:100B7C0002080000020A0000020C0000020E000035
:100B8C000210000002120000021400000216000005
:0C0B9C0002180000021A0000021C0000F9
:10166D005389F0438902538EF7758C7B758A7BD233
:06167D00A9D2AFD28C22BD
:1016830053890F438910538E7F758DF5758B95D2D2
:04169300ABD28E2226
:03001B00021515B6
:04151500C0E0C0D0A2
:101519000509E50970020508758DF5758B95C3E513
:101529000994F4E50894014008750800750900B2AA
:0415390086752B0187
:05153D00D0D0D0E03227
:03000B000210439D
:0B104300C0E0C0D075D000C006C007A0
:10104E00050BE50B7002050A050DE50D7002050C8A
:10105E00050FE50F7002050E0511E5117002051062
:10106E000513E51370020512051DE51D7002051C22
:10107E00C3E50B9464E50A94004009750A00750BEC
:10108E0000753001C374109515FF74279514FEC3B7
:10109E00E50D9FE50C9E400F751423751528750CF4
:1010AE0000750D00753201C374109517FF742795E6
:1010BE0016FEC3E50F9FE50E9E400F75162375179E
:1010CE0028750E00750F00753301C374109519FF46
:1010DE0074279518FEC3E5119FE5109E400F7518F5
:1010EE00267519AC751000751100753101C3741099
:1010FE00951BFF7427951AFEC3E5139FE5129E40BC
:10110E000F751A26751BAC751200751300752D011F
:09111E00D007D006D0D0D0E03299
:1016DB008040201004020108000000000000000000
:100BA800012E00013000013200013100012D000149
:100BB8003300012F00012B00012C055700640000B1
:100BC800000000000000000000000000000000001D
:100BD80000000000000121000122000423000000A1
:070BE80000042700000000DB
:0F16EB0053B33F43B4C053ACFE43AD01D2B02262
:07178D0043B10F53B2F0223B
:10097700851E3478357C007D007BFF7A1679E37E0F
:10098700007F041202EDE4A28133F535A280E4333F
:10099700F536A284E433F537A283E433F5389000C3
:0709A70079E07003020A7001
:1009AE00900066E06003020B7B90006BE060030238
:1009BE000B7B900070E06003020B7B900075E06093
:1009CE0003020B7BE4FF74232FF8E6FE74352FF839
:1009DE00E6FD6E6008EDB40104EF04F521E6FE7449
:1009EE00232FF8A6060FBF04DDE5226521602585BD
:1009FE002122E4FFEF2401FDE433FCE521B5050ED1
:100A0E00E4B5040A531E0FEF9016DB93421E0FBF80
:100A1E0004E2802D74342521F8E66013E52190164A
:100A2E00DA93FE551E6003020B70EE421E8012E535
:100A3E00219016DA93FE551E7003020B70EEF452DF
:100A4E001E9000667401F090006BF0900070F090B4
:0F0A5E000075F0E4900078F090007AF0752C05A8
:100A6D00020B70E4FFEF75F005A42468F582E43401
:100A7D0000F583E064016003020B3EEF75F005A401
:100A8D002464F582E43400F583E475F00112037AF1
:100A9D00EF9016DB93551E7003020B3EEF75F005BC
:100AAD00A42467F582E43400F583E07023EF75F03C
:100ABD0005A42464F582E43400F583E4F0A3F0EF9B
:100ACD0075F005A42467F582E43400F5837401F014
:100ADD00EF75F005A42464F582E43400F583E0FCA1
:100AED00A3E0C39407EC94004047EF75F005A424F0
:100AFD0064F582E43400F583E4F0A3F0EF75F005BE
:100B0D00A42467F582E43400F583E4F0EF9016DB5E
:100B1D0093F4521EEF75F005A42466F582E43400BB
:100B2D00F5837401F0E4900078F090007AF0752C64
:100B3D0005EF75F005A42466F582E43400F583E035
:100B4D00701874352FF8E66009EF9016DB93421E8E
:100B5D008008EF9016DB93F4521E0FEF64046003D0
:0E0B6D00020A72E51E65346005AF1E12156F98
:010B7B002257
:100F5400E4F534851E3578367C00FD7BFF7A1679FE
:100F6400E7FE7F041202ED900078E004F0E0652CC7
:100F74006003021002A28133F536A280E433F53710
:100F8400A284E433F538A283E433F539E4F534E597
:100F94003475F005A42466F582E43400F583E0603A
:100FA4004E74362534F8E6FF7E00C374079534FD8D
:100FB400EFA805088005C333CE33CED8F9FFE53456
:100FC4009016DB93551E6F7001EE60127427253462
:100FD400F87601E5349016DF93F4521E8011E5345F
:100FE40075F005A42466F582E43400F583E4F00585
:100FF40034E534B40499E51E65356042803BE52C44
:101004002401FFE433FE900078E0C39FEE6480F88F
:101014007480984029E4F0F53474272534F8E6B454
:10102400010AE5349016DF93421EE4F60534E534F4
:0E103400B404E6E51E65356005AF1E12156FAB
:01104200228B
:10161500E5306006E4F530120003E5336006E4F5D5
:0F16250033120977E5326006E4F532120F5422D2
:10149B00E52F603FE4F52F900079E0FD7F817E38EA
:1014AB00120D05900068E0FD7F827E38120D0590CD
:1014BB00006DE0FD7F837E38120D05900072E0FD1C
:1014CB007F847E38120D05900077E0FD7F857E3896
:0414DB00120D0522C7
:0B174400E52B6006E4F52B12070222E3
:101252007F817E38121785900079EFF07F827E3889
:10126200121785900068EFF07F837E381217859001
:10127200006DEFF07F847E38121785900072EFF0D8
:101282007F857E38121785900077EFF0900079E025
:10129200F4601C900068E0F4601590006DE0F4606A
:1012A2000E900072E0F46007900077E0B4FF15E45E
:1012B200900079F0900068F090006DF0900072F06C
:1012C200900077F0900079E06003D28622C28622F5
:101634001212521216EB7F0F12156F121794121713
:0D1644007C12178D12000E12168302166D17
:10156F00E4FEC2AFEFC4131313540124FF92B0EF84
:10157F0025E0FFC29600D2960EBE08E8C29700D2B1
:05158F0097C2B0D2AFCD
:011594002234
:030BEF00011E0FD5
:09174F002093037F01227F002298
:091758002092037F01227F002290
:091761002091037F01227F002288
:09176A002090037F01227F002280
:091773002094037F01227F002273
:0F16FA00E51E44046008531EFBAF1E12156F223D
:0F170900E51E44026008531EFDAF1E12156F222D
:0F171800E51E44016008531EFEAF1E12156F221E
:0F172700E51E44086008531EF7AF1E12156F220F
:10001E00308105531E7F800C900079E06003531EE3
:10002E000F431E80431E04AF1E12156F90007AE020
:10003E00B40107E4F0752C0A8003752C0590006658
:10004E007401F090006BF0900070F0900075F0E489
:05005E00900078F02283
:1013CC00308005531EBF800C900079E06003531EE3
:1013DC000F431E40431E02AF1E12156F90007AE0A1
:1013EC00B40107E4F0752C0A8003752C0590006697
:1013FC007401F090006BF0900070F0900075F0E4C8
:05140C00900078F022C1
:10141100308405531EDF800C900079E06003531E79
:101421000F431E20431E01AF1E12156F90007AE07C
:10143100B40107E4F0752C0A8003752C0590006651
:101441007401F090006BF0900070F0900075F0E482
:05145100900078F0227C
:10145600308305531EEF800C900079E06003531E25
:101466000F431E10431E08AF1E12156F90007AE040
:10147600B40107E4F0752C0A8003752C059000660C
:101486007401F090006BF0900070F0900075F0E43D
:05149600900078F02237
:10169700431E04752C0A90007A7401F0AF1E0215E0
:0116A7006FD3
:1016A800431E02752C0A90007A7401F0AF1E0215D1
:0116B8006FC2
:1016B900431E01752C0A90007A7401F0AF1E0215C1
:0116C9006FB1
:1016CA00431E08752C0A90007A7401F0AF1E0215A9
:0116DA006FA0
:10159500900068E0B40104E4F080069000687401EE
:1015A500F09000667401F0E4900078F0752F012248
:1015B50090006DE0B40104E4F0800690006D7401C4
:1015C500F090006B7401F0E4900078F0752F012223
:1015D500900072E0B40104E4F0800690007274019A
:1015E500F09000707401F0E4900078F0752F0122FE
:1015F500900077E0B40104E4F08006900077740170
:10160500F09000757401F0E4900078F0752F0122D8
:1014DF00900079E0700604F0D2868007E4900079DE
:1014EF00F0C286531E0FAF1E12156F900066740167
:1014FF00F090006BF0900070F0900075F0E49000A9
:06150F0078F0752F0122A7
:100E46007537FF7538167539FA753AFF753B0075B3
:100E56003C1E753D00753E00753F007540FF7541AF
:100E6600167542977543FF7544157545957BFF7A50
:100E760017794F1211277537FF75381775390975A8
:100E86003AFF753B13753CCC753D00753E00753FCA
:100E9600007540FF7541167542A87543FF754415E8
:100EA6007545B57BFF7A1779581211277537FF7587
:100EB6003817753918753AFF753B14753C11753D31
:100EC60000753E00753F007540FF7541167542B9C5
:100ED6007543FF7544157545D57BFF7A1779611201
:100EE60011277537FF753817753927753AFF753B22
:100EF60014753C56753D00753E00753F007540FF04
:100F06007541167542CA7543FF7544157545F57BDF
:100F1600FF7A17796A121127753700753800753907
:100F260000753A00753B00753C00753D00753E0046
:100F3600753F007540007541007542007543FF75A9
:0E0F460044147545DF7BFF7A1779730211277B
:09177C0043B31F53B4E0020E4612
:030000000211C624
:0C11C600787FE4F6D8FD7581E502120D7B
:0E17360012163412161512174412149B80F569
:100BF200206054000000000000000000000000001F
:100C020000000000000000000000000000000000E2
:100C120000000000000000000000000000000000D2
:100C220000000000000000000000000000000000C2
:100C320000000000000000000000000000000000B2
:100C420000000000000000000000000000000000A2
:100C52000000002032B4000000000000000000008C
:100C62000000000000000000000000000000000082
:100C72000000000000000000000000000000000072
:080C820000000000000000006A
:10133D00E4F534F535F535E53575F013A42454F899
:10134D00860308E6FA08E64A4B6021E53575F01389
:10135D00A42454F808E6FA08E6F91203C2BF010CFA
:10136D00E53575F013A42466F8E642340535E53508
:07137D00C3940540C2AF3428
:011384002246
:101127007F0178B3E6FEC3940540021F2278B3E639
:10113700FD75F013A42454F8A60308A60208A60117
:10114700AA38A939ED75F013A42457F8A63708A6CD
:101157000208A601AA3BA93CED75F013A4245AF88E
:10116700A63A08A60208A601AA3EA93FED75F01304
:10117700A4245DF8A63D08A60208A601AA41A94233
:10118700ED75F013A42460F8A64008A60208A6018E
:10119700AA44A945ED75F013A42463F8A64308A64D
:1011A7000208A601EFA805088002C333D8FCFFEEAA
:0E11B70075F013A42466F8A60778B3067F012E
:0111C5002207
:1003C8008F388D39E53975F00AA424B9F806E5396E
:1003D80075F00AA424BAF806E5386011E53975F015
:1003E8000AA424B8F8E538667003020522E53975D1
:1003F800F00AA424B7F9C3E7940219E7940050134C
:10040800E53975F00AA424B6F80806E6187001065E
:1004180002064EE53975F00AA424B5F9C3E7942C11
:1004280019E79401402DE53975F00AA424BDF8E4D4
:10043800F6E53975F013A42460F8860308E6FA088F
:10044800E64A4B7003020507E53975F013A42460EA
:100458000204FDE53975F00AA424B5F9C3E794024E
:1004680019E794005003020507E53975F013A42431
:1004780063F8860308E6FA08E64A4B605CE53975D6
:10048800F00AA424BDF8E6B40104E4F68071E53965
:1004980075F00AA424BCF8E6B40126E53975F01312
:1004A800A4245AF8860308E6FA08E64A4B6012E5DF
:1004B8003975F013A4245AF808E6FA08E6F9120385
:1004C800C2E53975F00AA424BAF8E4F6E53975F0FE
:1004D8000AA424BCF876018026E53975F013A42413
:1004E8005AF8860308E6FA08E64A4B6012E53975B9
:1004F800F013A4245AF808E6FA08E6F91203C2E54C
:100508003975F00AA424B8F8A638E53975F00AA4B4
:1005180024B4F8E4F608F602064EE53975F00AA4A4
:1005280024B4F80806E618700106E53975F00AA43F
:1005380024B5F9E7640219476003020609E539752D
:10054800F00AA424B6F8E4F608F6E53975F013A421
:100558002463F8860308E6FA08E64A4B70030205A6
:10056800EBE53975F00AA424BCF8E664017051E59E
:100578003975F00AA424B9F8E6C3941E5042E53947
:1005880075F00AA424BDF87601E53975F00AA424AB
:10059800BCF8E4F6E53975F00AA424BBF8E4F6E5FE
:1005A8003975F013A42463F8860308E6FA08E64AC6
:1005B8004B700302064EE53975F013A42463807C62
:1005C800E53975F00AA424BDF8E4F6E53975F00AB2
:1005D800A424BBF87601E53975F00AA424B9F8E437
:1005E800F68063E53975F013A42457F8860308E606
:1005F800FA08E64A4B604FE53975F013A424578092
:100608003BE53975F00AA424B5F9E7642C700419A0
:10061800E764017031E53975F00AA424BDF8E4F601
:10062800E53975F013A4245DF8860308E6FA08E6B0
:100638004A4B6012E53975F013A4245DF808E6FA10
:1006480008E6F91203C2E53975F013A42463F886A5
:100658000308E6FA08E64A4B7003020701E5397514
:10066800F00AA424BBF8E664017040E53975F00A85
:10067800A424B9F8E6C3941E4031E53975F00AA4FC
:1006880024BBF8E4F6E53975F013A42457F886037B
:1006980008E6FA08E64A4B6012E53975F013A42417
:1006A80057F808E6FA08E6F91203C2E53975F00AC0
:1006B800A424BCF8E664017040E53975F00AA42466
:1006C800BAF8E6C3941E4031E53975F00AA424BC93
:1006D800F8E4F6E53975F013A4245AF8860308E619
:1006E800FA08E64A4B6012E53975F013A4245AF863
:0A06F80008E6FA08E6F91203C22230
:021542008F34E4
:10154400E4F535753601F537F535AF35E536A807D9
:10155400088002C333D8FC5534F537AD35FF120388
:0A156400C80535E535C3940540E0E5
:01156E00225A
:08000300E4FF12133D02154257
:0717940053B13F43B2C02234
:041785008F828E833E
:03178900E493FFE7
:01178C00223A
:060D05008E348F358D369F
:100D0B00E4F537A907E9C394805004E4F98002792C
:100D1B00807D807C00E97A002400FFEA3534F538C9
:100D2B008F39ED7003EC6401601E85398285388341
:100D3B00E4938D828C83F005370DBD00010C0539D2
:100D4B00E53970DE053880DAAB35A903E9C3948049
:100D5B00E9500A2480FFE433FCAD0780037C00FDDF
:100D6B008D828C83E536F08BA6E534FFF5A775AE47
:100D7B00FFA2AF9200C2AF75C7AA75C755439F01BB
:100D8B00A20092AFA2AF9200C2AF75C7AA75C755AA
:100D9B0043A501A20092AF75AF22A2AF9200C2AFE2
:100DAB0075C7AA75C75543A401A20092AFA903E961
:100DBB00C394805004E4F9800279807C007D8089A3
:100DCB00A68FA7A2AF9200C2AF75C7AA75C755432E
:100DDB009F01A20092AFA2AF9200C2AF75C7AA75D6
:100DEB00C75543A501A20092AF75AF21EDF44C603E
:100DFB00238D828C83E0F5AEA2AF9200C2AF75C794
:100E0B00AA75C75543A401A20092AF05A60DBD005C
:100E1B00010C80D8A2AF9200C2AF75C7AA75C75597
:100E2B0053A5FEA20092AFA2AF9200C2AF75C7AAA4
:0A0E3B0075C755539FFEA20092AF49
:010E4500228A
:100C8A006064000000000000000000000000000096
:100C9A00000000000000000000000000000000004A
:100CAA00000000000000000000000000000000003A
:100CBA00000000000000000000000000000000002A
:100CCA00000000000000000000000000000000001A
:100CDA00000000000000000000000000000000000A
:100CEA0000000000000000000D47000000000000A6
:0A0CFA0000000000000000014600A9
:0412D200AB07AA06B6
:1012D600900001E07019C3EB94FAEA94004057308D
:1012E6009554A3EAF0A3EBF09000017401F0227C80
:1012F600007D05AF03AE02120313D3900003E09FF7
:10130600900002E09E4016E54625E02404F582E4BE
:101316003400F583EAF0A3EBF005468007E490007D
:1013260001F0F546E546C39430400BE4F5469000DF
:061336000004F0E4A3F046
:01133C00228E
:10070200E4F537F536F535F534F538F539F53AF5DA
:100712003BF53CF53DF53EF53FF540F541F542F53B
:1007220043900000E06401600302096EF0E551703D
:100732001C900004E0F549A3E0F54AA3E0F54BA3C1
:10074200E0F54C900002E0F547A3E0F548E54A25C4
:100752004CF539E549354BF538FEAF397C007D055E
:100762001203258E3C8F3DAE47AF487C007D0512BB
:1007720003258E3E8F3FE4FBEBC394304003020817
:10078200C1EB25E02406F582E43400F583E0FEA304
:10079200E0FFEB25E02404F582E43400F583E0FC7D
:1007A200A3E0FD2FF53BEC3EF53AE539253DFFE5AB
:1007B20038353CFED3E53B9FE53A9E5014C3E539FC
:1007C200953DFFE538953CFEC3E53B9FE53A9E50DB
:1007D200090553E5537002055222EB25E02406F584
:1007E20082E43400F583E0FEA3E0FFD3ED9FEC9EAC
:1007F200404FAF37AE36AD35AC3478011203AFEFB0
:100802004401F537EEF536EDF535ECF534EB25E040
:100812002406F582E43400F583E0FEA3E02541F5E9
:1008220041EE3540F540EB25E02404F582E4340046
:10083200F583E0FEA3E02543F543EE3542F5428021
:1008420079EB25E02406F582E43400F583E0FEA38B
:10085200E0FFEB25E02404F582E43400F583E0FCBC
:10086200A3E0C39FEC9E5049AF37AE36AD35AC34F2
:1008720078011203AF8F378E368D358C34EB25E03D
:100882002406F582E43400F583E0FEA3E02543F577
:1008920043EE3542F542EB25E02404F582E43400D0
:1008A200F583E0FEA3E02541F541EE3540F54080B9
:1008B200090553E55370020552220B0B02077A9089
:1008C2000002E0FEA3E0FF253DFDE53C3EFCC3E562
:1008D200489DE5479C5027C3EF953DFFEE953CFEB2
:1008E200D3E5489FE5479E4015AF50AE4FAD4EACA5
:1008F2004DAB37AA36A935A83412039E6066900024
:1009020002E0F547A3E0F54885375085364F853537
:100912004E85344D755101E4F552F553AE40AF4169
:10092200FC7D18120325AC06AD07E4120163E4FB5B
:10093200FAF9783F12006D12019C8E4B8F4CAE4239
:10094200AF437C007D18120325AC06AD07E412010B
:1009520063E4FBFAF9783F12006D12019C8E498F15
:100962004AB287220551E4F552F553220553E55365
:0409720070020552B8
:01097600225E
:1016510053C8FE53C90F43C9D043C908439210432D
:0C16610093035393FE53F1F043F1082271
:07179B0053B3DF53B4DF225A
:0C000E0012179B121651439B84D2CA2289
:0300630002138500
:10138500C0E0C0F0C083C082C0D075D000C000C02E
:0B13950002C003C004C005C006C00772
:1013A000E59230E00E5392FEAFE5EFFEADE4EDFFC7
:0313B0001212D244
:1013B300D007D006D005D004D003D002D000D0D0BF
:0913C300D082D083D0F0D0E032DA
:10006600020208E86480F8E933E83360110460F0BE
:10007600ED33EC337009E8FCE9FDEAFEEBFF220400
:1000860060DED3EB9FEA9EE99DE8C2E78CF0C2F7FB
:1000960095F0400CE8CCF8E9CDF9EACEFAEBCFFBC7
:1000A6001201D385D0F05804700320D5B3E804704C
:1000B600075002B2D502021292D5EC0460F7E4CCE6
:1000C600C0E0C398F8603B94186008400DD0E0FB90
:1000D6000201EAE4FBFAC9FC8028E830E406E4C938
:1000E600FBE4CAFCE830E305E4C9CACBFCE85407E4
:1000F6006010F8C3E913F9EA13FAEB13FBEC13FCEF
:10010600D8F130F52FC3E49CFCEF9BFFEE9AFEED91
:1001160099FDD0E0FBEF4E4D4C701222DB0302023C
:100126000FEC2CFCEF33FFEE33FEED33FDED30E745
:10013600EB0201EAEF2BFFEE3AFEED39FDD0E0FBD4
:1001460050130BBB0003020212ED13FDEE13FEEF7C
:0801560013FFEC13FC0201EAA7
:10015E0075F020800E75F010800575F0087D007E1C
:10016E00007F003392D530D503120390EC3340104C
:10017E00EF33FFEE33FEED33FDEC33FCD5F0ED2225
:0E018E00E5F0247EA2D513CC92E7CDCEFF2261
:10019C00EDD2E7CD33EC3392D524814006E4FFFE5B
:1001AC00FDFC22FCE4CFCECDCC24E0501174FF80BA
:1001BC00EDC3CC13CCCD13CDCE13CECF13CF047057
:0701CC00F030D5DE020390C4
:1001D300E9D2E7C933E833F892D5EDD2E7CD33EC72
:0701E30033FC5002B2D522EB
:1001EA00EC30E7100FBF000C0EBE00080DBD000476
:1001FA000BEB6014A2D5EB13FCED92E7FD2274FF22
:10020A00FCFDFEFF22E480F8A2D574FF13FC7D807A
:03021A00E480EF8E
:1011D200021736E493A3F8E493A34003F68001F2E6
:1011E20008DFF48029E493A3F85407240CC8C3331E
:1011F200C4540F4420C8834004F456800146F6DFED
:10120200E4800B0102040810204080900B7CE47EF5
:10121200019360BCA3FF543F30E509541FFEE493E1
:10122200A360010ECF54C025E060A840B8E493A3A8
:10123200FAE493A3F8E493A3C8C582C8CAC583CAD3
:10124200F0A3C8C582C8CAC583CADFE9DEE780BE8B
:010D040000EE
:10021D00E709F608DFFA8046E709F208DFFA803EC3
:10022D0088828C83E709F0A3DFFA8032E309F608B0
:10023D00DFFA8078E309F208DFFA807088828C8318
:10024D00E309F0A3DFFA806489828A83E0A3F608CC
:10025D00DFFA805889828A83E0A3F208DFFA804CA6
:10026D0080D280FA80C680D4806980F2803380107D
:10027D0080A680EA809A80A880DA80E280CA8033E6
:10028D0089828A83ECFAE493A3C8C582C8CCC5835E
:10029D00CCF0A3C8C582C8CCC583CCDFE9DEE7802E
:1002AD000D89828A83E493A3F608DFF9ECFAA9F0AD
:1002BD00EDFB2289828A83ECFAE0A3C8C582C8CC03
:1002CD00C583CCF0A3C8C582C8CCC583CCDFEADE1C
:1002DD00E880DB89828A83E493A3F208DFF980CC7E
:1002ED0088F0EF60010E4E60C388F0ED2402B40477
:1002FD000050B9F582EB2402B4040050AF2323451E
:06030D00822390026D73D3
:10031300EF8DF0A4A8F0CF8CF0A428CE8DF0A42EFE
:02032300FE22B8
:10032500BC000BBE0029EF8DF084FFADF022E4CCBC
:10033500F875F008EF2FFFEE33FEEC33FCEE9DEC85
:10034500984005FCEE9DFE0FD5F0E9E4CEFD22EDCB
:10035500F8F5F0EE8420D21CFEADF075F008EF2F15
:10036500FFED33FD4007985006D5F0F222C398FD06
:050375000FD5F0EA22A3
:10037A00C5F0F8A3E028F0C5F0F8E582158270020E
:06038A001583E038F022AB
:0E039000C3E49FFFE49EFEE49DFDE49CFC227E
:10039E00EB9FF5F0EA9E42F0E99D42F0E89C45F0B5
:0103AE00222C
:1003AF00E8600FEFC333FFEE33FEED33FDEC33FCAC
:0303BF00D8F12250
:0603C2008A838982E473C6
:00000001FF
