:1004560002080000020A0000020C0000020E000062
:100466000210000002120000021400000216000032
:0804760002180000021A000048
:100C2A005389F0438902538EF7758C7B758A7BD280
:060C3A00A9D2AFD28C220A
:03000B0002075F8A
:0B075F00C0E0C0D075D000C006C0078D
:10076A000509E50970020508050BE50B7002050A83
:10077A00050DE50D7002050C050FE50F7002050E5B
:10078A000511E51170020510051BE51B7002051A1B
:10079A00C3E5099464E508940040097508007509E1
:1007AA0000752A01C374109513FF74279512FEC3AE
:1007BA00E50B9FE50A9E400F751223751328750AEB
:1007CA0000750B00752C01C374109515FF742795DD
:1007DA0014FEC3E50D9FE50C9E400F75141F751599
:1007EA0040750C00750D00752D01C374109517FF27
:1007FA0074279516FEC3E50F9FE50E9E400F7516EA
:10080A00267517AC750E00750F00752B01C3741091
:10081A009519FF74279518FEC3E5119FE5109E40B0
:10082A000F7518267519AC75100075110075280119
:10083A00C3E51B9488E51A94134008751A00751BC2
:03084A0000B28772
:09084D00D007D006D0D0D0E03273
:100C90008040201004020108000000000000000055
:10047E00012900012A00012C00012B000128000196
:10048E002D005D00000000000000000000000000D4
:10049E00000000000000000000000000000000004E
:1004AE00000002260000011C00011D00041E0000B9
:0804BE00000004220000000010
:0F0CA00053B33F43B4C053ACFE43AD01D2B022B7
:070CED0043B10F53B2F022E6
:1005620085402E782F7C007D007BFF7A0C79987E67
:10057200007F04120733900002E0600302066290DB
:100582000008E0600302066290000EE060030206CB
:1005920062900014E06003020662A281E433F52F48
:1005A200A280E433F530A283E433F531A282E4334E
:0B05B200F532900019E07003020657BC
:1005BD00E4FF741E2FF8E6FE742F2FF8E6FD6E6033
:1005CD0008EDB40104EF04F51CE6FE741E2FF8A629
:1005DD00060FBF04DDE51D651C6036851C1DE4FF9F
:1005ED00EF2401FDE433FCE51CB5050EE4B5040A6A
:1005FD0053400FEF900C90934240EF75F006A424FA
:10060D0002F582E43400F5837401F00FBF04D1804C
:10061D0039742E251CF8E66010E51C900C8F93FFA5
:10062D0055407026EF4240800FE51C900C8F93FFD4
:10063D0055406016EFF452409000027401F09000A6
:0A064D0008F090000EF0900014F089
:0B065700E540652E6005AF40120BE58A
:010662002275
:10085600E4F52E85402F78307C00FD7BFF7A0C79FD
:100866009CFE7F04120733900018E004F0E0640554
:1008760060030208FCA28133F530A280E433F5312F
:10088600A283E433F532A282E433F533E4F52EE5B0
:100896002E75F006A42402F582E43400F583E060A8
:1008A6004E7430252EF8E6FF7E00C37407952EFDA4
:1008B600EFA805088005C333CE33CED8F9FFE52E61
:1008C600900C909355406F7001EE60127422252EA5
:1008D600F87601E52E900C9493F452408011E52EA3
:1008E60075F006A42402F582E43400F583E4F005ED
:1008F6002EE52EB40499900018E0C39406401EE439
:10090600F0F52E7422252EF8E6B4010AE52E900C99
:1009160094934240E4F6052EE52EB404E6E54065E0
:080926002F6005AF40120BE544
:01092E0022A6
:100C0B00E52A6006E4F52A120CE5E52D6006E4F50D
:0F0C1B002D120562E52C6006E4F52C1208562216
:100B8B00120CA07F0F120BE5120CF4120CDC120CE2
:100B9B00ED120C2A9000057401F090000BF0900000
:0D0BAB0011F0900017F0900019F0C28622A2
:100BE500E4FEC2AFEFC4131313540124FF92B0EF18
:100BF50025E0FFC29600D2960EBE08E8C29700D245
:050C050097C2B0D2AF60
:010C0A0022C7
:0304C60001400FE3
:090CAF002093037F01227F002243
:090CB8002092037F01227F00223B
:090CC1002091037F01227F002233
:090CCA002090037F01227F00222B
:090CD3002094037F01227F00221E
:100C4000E5404404600D5340FBE4F526F527AF4032
:040C5000120BE5227C
:100C5400E5404402600D5340FDE4F526F527AF401E
:040C6400120BE52268
:100C6800E5404401600D5340FEE4F526F527AF400A
:040C7800120BE52254
:100C7C00E5404408600D5340F7E4F526F527AF40F6
:040C8C00120BE52240
:010CFB0022D6
:100AA200E54020E22130810553407F800C900019FF
:100AB200E0600353400F434080434004E4F526F5D1
:100AC20027AF40120BE59000027401F0900008F08D
:0E0AD20090000EF0900014F0E4900018F02256
:100AE0003080055340BF800C900019E060035340F4
:100AF0000F434040434002E4F526F527AF40120B78
:100B0000E59000027401F0900008F090000EF09063
:090B10000014F0E4900018F0223A
:100B19003083055340DF800C900019E06003534097
:100B29000F434020434001E4F526F527AF40120B5F
:100B3900E59000027401F0900008F090000EF0902A
:090B49000014F0E4900018F02201
:100B52003082055340EF800C900019E0600353404F
:100B62000F434010434008E4F526F527AF40120B2F
:100B7200E59000027401F0900008F090000EF090F1
:090B82000014F0E4900018F022C8
:100348007531FF75320C7533407534FF75350A7594
:1003580036A2753700753800753900753A00753B57
:1003680000753C00753D00753E00753F007BFF7AC7
:100378000C79AF12092F7531FF75320C753354752E
:1003880034FF75350A7536E07537007538007539EC
:1003980000753A00753B00753C00753D00753E00E0
:1003A800753F007BFF7A0C79B812092F7531FF75FC
:1003B800320C7533687534FF75350B75361975371A
:1003C80000753800753900753A00753B00753C00BA
:1003D800753D00753E00753F007BFF7A0C79C112B0
:1003E800092F7531FF75320C75337C7534FF7535FF
:1003F8000B753652753700753800753900753A0037
:10040800753B00753C00753D00753E00753F007BEF
:10041800FF7A0C79CA12092F7531FF75320C7533C2
:10042800FB75340075350075360075370075380072
:10043800753900753A00753B00753C00753D0075CF
:0E0448003E00753F007BFF7A0C79D302092F2E
:090CDC0043B31F53B4E0020348C6
:030000000209CE24
:0C09CE00787FE4F6D8FD7581D2020A158E
:08000300120B8B120C0B80FBA9
:1004C9002060410000000000000000000000000062
:1004D9000000000000000000000000000000000013
:1004E9000000000000000000000000000000000003
:1004F90000000000000000000000000000000000F3
:1005090000000000000000000000000000000000E2
:1005190000000000000000000000000000000000D2
:100529000000002032A100000000000000000000CF
:1005390000000000000000000000000000000000B2
:1005490000000000000000000000000000000000A2
:0805590000000000000000009A
:100A5A00E4F52EF52FF52FE52F75F013A42441F8B0
:100A6A00860308E6FA08E64A4B6021E52F75F0137B
:100A7A00A42441F808E6FA08E6F9120759BF010C5E
:100A8A00E52F75F013A42453F8E6422E052FE52F1F
:070A9A00C3940540C2AF2E1A
:010AA1002232
:10092F007F0178A0E6FEC3940540021F2278A0E65F
:10093F00FD75F013A42441F8A60308A60208A6012A
:10094F00AA32A933ED75F013A42444F8A63108A6F2
:10095F000208A601AA35A936ED75F013A42447F8AD
:10096F00A63408A60208A601AA38A939ED75F01316
:10097F00A4244AF8A63708A60208A601AA3BA93C58
:10098F00ED75F013A4244DF8A63A08A60208A601A7
:10099F00AA3EA93FED75F013A42450F8A63D08A672
:1009AF000208A601EFA805088002C333D8FCFFEEAA
:0E09BF0075F013A42453F8A60778A0067F0154
:0109CD002207
:10000E008F328D33E53375F00AA424A6F806E53356
:10001E0075F00AA424A7F806E5326011E53375F0F1
:10002E000AA424A5F8E532667003020168E533756B
:10003E00F00AA424A4F9C3E7940219E7940050131C
:10004E00E53375F00AA424A3F80806E61870010635
:10005E00020294E53375F00AA424A2F9C3E7942CA6
:10006E0019E79401402DE53375F00AA424AAF8E4AB
:10007E00F6E53375F013A4244DF8860308E6FA0866
:10008E00E64A4B700302014DE53375F013A4244D7F
:10009E00020143E53375F00AA424A2F9C3E79402E2
:1000AE0019E79400500302014DE53375F013A424B3
:1000BE0050F8860308E6FA08E64A4B605CE53375AD
:1000CE00F00AA424AAF8E6B40104E4F68071E5333C
:1000DE0075F00AA424A9F8E6B40126E53375F013E9
:1000EE00A42447F8860308E6FA08E64A4B6012E5B0
:1000FE003375F013A42447F808E6FA08E6F9120758
:10010E0059E53375F00AA424A7F8E4F6E53375F043
:10011E000AA424A9F876018026E53375F013A424E9
:10012E0047F8860308E6FA08E64A4B6012E533758F
:10013E00F013A42447F808E6FA08E6F9120759E581
:10014E003375F00AA424A5F8A632E53375F00AA497
:10015E0024A1F8E4F608F6020294E53375F00AA439
:10016E0024A1F80806E618700106E53375F00AA416
:10017E0024A2F9E764021947600302024FE53375C2
:10018E00F00AA424A3F8E4F608F6E53375F013A4F8
:10019E002450F8860308E6FA08E64A4B700302027A
:1001AE0031E53375F00AA424A9F8E664017051E52F
:1001BE003375F00AA424A6F8E6C394325042E53310
:1001CE0075F00AA424AAF87601E53375F00AA42482
:1001DE00A9F8E4F6E53375F00AA424A8F8E4F6E5E8
:1001EE003375F013A42450F8860308E6FA08E64A9D
:1001FE004B7003020294E53375F013A42450807CF7
:10020E00E53375F00AA424AAF8E4F6E53375F00A8E
:10021E00A424A8F87601E53375F00AA424A6F8E420
:10022E00F68063E53375F013A42444F8860308E6DC
:10023E00FA08E64A4B604FE53375F013A424448068
:10024E003BE53375F00AA424A2F9E7642C70041977
:10025E00E764017031E53375F00AA424AAF8E4F6D8
:10026E00E53375F013A4244AF8860308E6FA08E687
:10027E004A4B6012E53375F013A4244AF808E6FAE7
:10028E0008E6F9120759E53375F013A42450F886E1
:10029E000308E6FA08E64A4B7003020347E5337596
:1002AE00F00AA424A8F8E664017040E53375F00A5C
:1002BE00A424A6F8E6C394324031E53375F00AA4BF
:1002CE0024A8F8E4F6E53375F013A42444F8860365
:1002DE0008E6FA08E64A4B6012E53375F013A424DB
:1002EE0044F808E6FA08E6F9120759E53375F00AFC
:1002FE00A424A9F8E664017040E53375F00AA4243D
:10030E00A7F8E6C394324031E53375F00AA424A968
:10031E00F8E4F6E53375F013A42447F8860308E6EF
:10032E00FA08E64A4B6012E53375F013A42447F839
:0A033E0008E6FA08E6F91207592252
:020BB8008F2E7E
:100BBA00E4F52F753001F531F52FAF2FE530A80791
:100BCA00088002C333D8FC552EF531AD2FFF120031
:0A0BDA000E052FE52FC3940540E03F
:010BE40022EE
:080CE500E4FF120A5A020BB8E9
:070CF40053B13F43B2C022DF
:1009DA00020003E493A3F8E493A34003F68001F230
:1009EA0008DFF48029E493A3F85407240CC8C3331E
:1009FA00C4540F4420C8834004F456800146F6DFED
:100A0A00E4800B0102040810204080900456E47E22
:100A1A00019360BCA3FF543F30E509541FFEE493E1
:100A2A00A360010ECF54C025E060A840B8E493A3A8
:100A3A00FAE493A3F8E493A3C8C582C8CAC583CAD3
:100A4A00F0A3C8C582C8CAC583CADFE9DEE780BE8B
:010561000099
:10066300E709F608DFFA8046E709F208DFFA803E79
:1006730088828C83E709F0A3DFFA8032E309F60866
:10068300DFFA8078E309F208DFFA807088828C83CE
:10069300E309F0A3DFFA806489828A83E0A3F60882
:1006A300DFFA805889828A83E0A3F208DFFA804C5C
:1006B30080D280FA80C680D4806980F28033801033
:1006C30080A680EA809A80A880DA80E280CA80339C
:1006D30089828A83ECFAE493A3C8C582C8CCC58314
:1006E300CCF0A3C8C582C8CCC583CCDFE9DEE780E4
:1006F3000D89828A83E493A3F608DFF9ECFAA9F063
:10070300EDFB2289828A83ECFAE0A3C8C582C8CCB8
:10071300C583CCF0A3C8C582C8CCC583CCDFEADED1
:10072300E880DB89828A83E493A3F208DFF980CC33
:1007330088F0EF60010E4E60C388F0ED2402B4042C
:100743000050B9F582EB2402B4040050AF232345D3
:0607530082239006B3733F
:060759008A838982E4732B
:00000001FF
