:100FD8000231000002330000023500000237000031
:080FE80002390000023B000089
:101E04005389F0438902538EF7758C7B758A7BD294
:061E1400A9D2AFD28C221E
:101E300053890F438910538E7F758DF5758B95D21D
:041E4000ABD28E2271
:03001B00021F0AB7
:0A1F0A00758DF5758B957517013282
:03000B0002176B6E
:0B176B00C0E0C0D075D000C006C00771
:101776000532E532700205310534E5347002053371
:101786000536E53670020535053CE53C7002053B3D
:10179600C3E5329464E53194004009753100753231
:1017A60000751C01C374109538FF74279537FEC366
:1017B600E5349FE5339E400F75372375382875331A
:1017C60000753400751D01C37410953AFF74279592
:1017D60039FEC3E5369FE5359E400F753923753AC8
:0A17E60028753500753600751E01E8
:0917F000D007D006D0D0D0E032C1
:101E5800804020100402010800000000000000007B
:041E68000000000076
:100FF000011C00011D00011E00011A000117000163
:101000001B000119000118056029010400000000FF
:1010100000000000000000000000000000000000D0
:1010200000000000000000000000000000000000C0
:101030000000000000010800010900040A0000008F
:1010400000040E0000000001120001130001140052
:041050000215000085
:0F00540053B33F43B4C053ACFE43AD01D2B0220F
:071F5C0043B10F53B2F02264
:100DD300853D1F78207C007D007BFF7A1E79607E35
:100DE300007F04120799E4A28133F520A280E43343
:100DF300F521A284E433F522A283E433F5239001A1
:070E03002AE07003020ECC8F
:100E0A00900106E06003020FD790010FE060030231
:100E1A000FD7900118E06003020FD7900121E0601C
:100E2A0003020FD7E4FF740A2FF8E6FE74202FF8A6
:100E3A00E6FD6E6008EDB40104EF04F508E6FE7401
:100E4A000A2FF8A6060FBF04DDE5096508602585A7
:100E5A000809E4FFEF2401FDE433FCE508B5050EBB
:100E6A00E4B5040A533D0FEF901E5893423D0FBF5D
:100E7A0004E2802D741F2508F8E66013E508901E29
:100E8A005793FE553D6003020FCCEE423D8012E5BA
:100E9A0008901E5793FE553D7003020FCCEEF45294
:100EAA003D9001067401F090010FF0900118F09046
:0F0EBA000121F0E4900128F090012BF07518054C
:100EC900020FCCE4FFEF75F009A42408F582E4349D
:100ED90001F583E064016003020F9AEF75F009A43C
:100EE9002404F582E43401F583E475F0011208263F
:100EF900EF901E5893553D7003020F9AEF75F00954
:100F0900A42407F582E43401F583E07023EF75F03A
:100F190009A42404F582E43401F583E4F0A3F0EF95
:100F290075F009A42407F582E43401F5837401F00E
:100F3900EF75F009A42404F582E43401F583E0FC9B
:100F4900A3E0C39407EC94004047EF75F009A4248B
:100F590004F582E43401F583E4F0A3F0EF75F009B8
:100F6900A42407F582E43401F583E4F0EF901E58D8
:100F790093F4523DEF75F009A42406F582E4340197
:100F8900F5837401F0E4900128F090012BF07518B5
:100F990005EF75F009A42406F582E43401F583E030
:100FA900701874202FF8E66009EF901E5893423D9F
:100FB9008008EF901E5893F4523D0FEF64046003CC
:0E0FC900020ECEE53D651F6005AF3D121B8692
:010FD70022F7
:10150300E4F51F853D2078217C00FD7BFF7A1E7961
:1015130064FE7F04120799900128E004F0E0651847
:1015230060030215B1A28133F521A280E433F522D1
:10153300A284E433F523A283E433F524E4F51FE521
:101543001F75F009A42406F582E43401F583E060F5
:101553004E7421251FF8E6FF7E00C37407951FFD17
:10156300EFA805088005C333CE33CED8F9FFE51FB6
:10157300901E5893553D6F7001EE6012740E251F37
:10158300F87601E51F901E5C93F4523D8011E51F30
:1015930075F009A42406F582E43401F583E4F0052B
:1015A3001FE51FB40499E53D65206042803BE518C3
:1015B3002401FFE433FE900128E0C39FEE6480F82A
:1015C3007480984029E4F0F51F740E251FF8E6B4E3
:1015D300010AE51F901E5C93423DE4F6051FE51FDB
:0E15E300B404E6E53D65206005AF3D121B86B1
:0115F10022D7
:101D3700E51C6006E4F51C120003E51E6006E4F5E9
:0F1D47001E120DD3E51D6006E4F51D12150322D3
:1012D300E51A70030213F490012AE090012DF090B7
:1012E3000108E090012EF0900111E090012FF090A1
:1012F300011AE0900130F0900123E0900131F09069
:101303000109E0FCA3E0FDA3E0FEA3E0FF781012D7
:10131300085B900132EFF0900109E0FCA3E0FDA32C
:10132300E0FEA3E0FF780812085B900133EFF09032
:101333000109A3A3A3E0900134F0900112E0FCA300
:10134300E0FDA3E0FEA3E0FF781012085B900135F7
:10135300EFF0900112E0FCA3E0FDA3E0FEA3E0FFA9
:10136300780812085B900136EFF0900112A3A3A353
:10137300E0900137F090011BE0FCA3E0FDA3E0FE49
:10138300A3E0FF781012085B900138EFF090011B87
:10139300E0FCA3E0FDA3E0FEA3E0FF780812085BF6
:1013A300900139EFF090011BA3A3A3E090013AF061
:1013B300900124E0FCA3E0FDA3E0FEA3E0FF78108E
:1013C30012085B90013BEFF0900124E0FCA3E0FDE9
:1013D300A3E0FEA3E0FF780812085B90013CEFF066
:1013E300900124A3A3A3E090013DF012000EE4F5C5
:0213F3001A22BC
:101BD100051290012CE0600DE512C394644011E4FC
:101BE100F512B2862290012AE06003D28622C286D3
:011BF10022D1
:101B2B000513E513C394644012E51B600EE4F51333
:101B3B00308706C28705198002D287E519C3940442
:0D1B4B00400BE51B6007C287E4F519F51B90
:011B5800226A
:1016BB00051490012CE0600302176A900112E0FC04
:1016CB00A3E0FDA3E0FEA3E0FF9000FCE0F8A3E0A5
:1016DB00F9A3E0FAA3E0FBC312084A605790010993
:1016EB00E0FCA3E0FDA3E0FEA3E0FF9000FCE0F82C
:1016FB00A3A3A3E0C312084A603A90011BE0FCA32A
:10170B00E0FDA3E0FEA3E0FF9000FCE0F8A3A3A3A1
:10171B00E0C312084A601D900124E0FCA3E0FDA386
:10172B00E0FEA3E0FF9000FCE0F8A3A3A3E0C3124C
:10173B00084A702BD3900101E09400900100E094D3
:10174B0000400BE514940F4005E4F514B287C390E9
:0F175B000103E09464900102E094004002C28711
:01176A00225C
:091F1400121BD1121B2B0216BB9B
:1018F000900129E0FB605890012CE06052900100BB
:10190000E0FEA3E0FF640A4E7007751B01F519C2E3
:1019100087C3EF940AEE94004035900103E094965B
:10192000900102E0940040279000FCE0FCA3E0FD61
:10193000A3E0FEA3E0FFEB75F009A42400F582E428
:101940003401F583120881121D8FE4900129F022E1
:10118500E4F51F78207C00FD7BFF7A1E7968FE7FE1
:10119500041207990516E5167002051590012CE055
:1011A50060030212D2A28133F520A280E433F52137
:1011B500A284E433F522A283E433F523900100E011
:1011C5007004A3E064017056F51FE51F75F009A4CE
:1011D5002409F582E43401F583E0FCA3E0FDA3E0F6
:1011E500FEA3E0FF9000FCE0F8A3E0F9A3E0FAA37A
:1011F500E0FBC312084A701D433D0FE51F901E5CBE
:1012050093F4523DE51F04900129F0AF3D121B8672
:10121500E4F515F516051FE51FC3940440ACC3900E
:101225000103E09496900102E0940050030212D26B
:10123500900101E09401900100E094005003021236
:10124500D2900129E075F009A42400F582E4340167
:10125500F583E0FCA3E0FDA3E0FEA3E0FF9000FC26
:10126500E0F8A3E0F9A3E0FAA3E0FBC312084A7093
:101275005C433D0FD3E51694C4E51594095046909B
:101285000129E0FF241FF8E6600AEF901E5793F44A
:10129500523D801390012AE06003533D0F900129D0
:1012A500E0901E5793423DE4900129F09001060419
:1012B500F090010FF0900118F0900121F0E49001F9
:0D12C50028F075180AAF3D121B86121D8F10
:0112D20022F9
:101E4400E517600FE4F5171208C4121F141218F0F6
:041E540012118522C0
:100B9A00121C7690012DE090012AF090012EE0902F
:100BAA000108F090012FE0900111F0900130E090DF
:100BBA00011AF0900131E0900123F0900133E0FF37
:100BCA00E4FCFDFE780812086EC004C005C006C029
:100BDA0007900132E0FFE4FCFDFE781012086ED0A7
:100BEA0003D002D001D000EF4BFBEE4AFAED49F9EF
:100BFA00EC48F8900134E0FFEB4FFFEAFEE9FDE82C
:100C0A00FC900109120881900136E0FFE4FCFDFE28
:100C1A00780812086EC004C005C006C007900135E6
:100C2A00E0FFE4FCFDFE781012086ED003D002D07B
:100C3A0001D000EF4BFBEE4AFAED49F9EC48F89087
:100C4A000137E0FFEB4FFFEAFEE9FDE8FC900112F5
:100C5A00120881900139E0FFE4FCFDFE78081208D1
:100C6A006EC004C005C006C007900138E0FFE4FC6E
:100C7A00FDFE781012086ED003D002D001D000EF2A
:100C8A004BFBEE4AFAED49F9EC48F890013AE0FFDD
:100C9A00EB4FFFEAFEE9FDE8FC90011B1208819088
:100CAA00013CE0FFE4FCFDFE780812086EC004C0B7
:100CBA0005C006C00790013BE0FFE4FCFDFE78108A
:100CCA0012086ED003D002D001D000EF4BFBEE4ADF
:100CDA00FAED49F9EC48F890013DE0FFEB4FFFEAE5
:100CEA00FEE9FDE8FC90012412088190012AE0F453
:100CFA007003020D8A900108E0F47003020D8A90D5
:100D0A000111E0F4607A90011AE0F4607390012313
:100D1A00E0F4606C74FFFFFEFD7C00900109E0F8CE
:100D2A00A3E0F9A3E0FAA3E0FBC312084A605174F6
:100D3A00FFFFFEFD7C00900112E0F8A3E0F9A3E0BA
:100D4A00FAA3E0FBC312084A603674FFFFFEFD7C7B
:100D5A000090011BE0F8A3E0F9A3E0FAA3E0FBC3CB
:100D6A0012084A601B74FFFFFEFD7C00900124E01C
:100D7A00F8A3E0F9A3E0FAA3E0FBC312084A703D26
:100D8A00E490012AF0900108F0900111F090011A04
:100D9A00F0900123F090010912088D0000000090E4
:100DAA00011212088D0000000090011B12088D002C
:100DBA0000000090012412088D0000000090012A12
:090DCA00E06003D28622C28622F9
:101D5600120B9A1200547F0F121B86121F53121F6A
:0D1D66004A121F5C121EFE121E30021E04E7
:101B8600E4FEC2AFEFC4131313540124FF92B0EF67
:101B960025E0FFC29600D2960EBE08E8C29700D294
:051BA60097C2B0D2AFB0
:011BAB002217
:03105400013D0F4C
:091F1D002093037F01227F0022C2
:091F26002092037F01227F0022BA
:091F2F002091037F01227F0022B2
:091F38002090037F01227F0022AA
:091F41002094037F01227F00229D
:101BF20090012CE0600C121D8FD287900129740194
:101C0200F022E53D44046008533DFBAF3D121B86C4
:011C120022AF
:101C130090012CE0600C121D8FD287900129740271
:101C2300F022E53D44026008533DFDAF3D121B86A3
:011C3300228E
:101C340090012CE0600C121D8FD28790012974034F
:101C4400F022E53D44016008533DFEAF3D121B8682
:011C5400226D
:101C550090012CE0600C121D8FD28790012974042D
:101C6500F022E53D44086008533DF7AF3D121B8661
:011C7500224C
:101EDE0090012CE0600BE4F0900129F0C287751A96
:021EEE000122CF
:1019AC0090012CE07045308105533D7F800C9001F7
:1019BC002AE06003533D0F433D80433D04AF3D128D
:1019CC001B8690012BE0B40107E4F075180A800324
:1019DC007518059001067401F090010FF090011834
:0E19EC00F0900121F0E4900128F022C2872241
:1019FA0090012CE07045308005533DBF800C90016A
:101A0A002AE06003533D0F433D40433D02AF3D1280
:101A1A001B8690012BE0B40107E4F075180A8003D5
:101A2A007518059001067401F090010FF0900118E5
:0E1A3A00F0900121F0E4900128F022C28722F2
:101A480090012CE07045308405533DDF800C9001F7
:101A58002AE06003533D0F433D20433D01AF3D1253
:101A68001B8690012BE0B40107E4F075180A800387
:101A78007518059001067401F090010FF090011897
:0E1A8800F0900121F0E4900128F022C28722A4
:101A960090012CE07045308305533DEF800C90019A
:101AA6002AE06003533D0F433D10433D08AF3D120E
:101AB6001B8690012BE0B40107E4F075180A800339
:101AC6007518059001067401F090010FF090011849
:0E1AD600F0900121F0E4900128F022C2872256
:101C970090012CE0600CE4F0900129F0C287751ADE
:101CA700012290012C7401F0E4900129F0C28722EF
:101E6C0090012CE0600C90010912088D000000001C
:031E7C00C28722F8
:101E7F0090012CE0600C90011212088D0000000000
:031E8F00C28722E5
:101E920090012CE0600C90011B12088D00000000E4
:031EA200C28722D2
:101EA50090012CE0600C90012412088D00000000C8
:031EB500C28722BF
:101DA80090012CE07010433D0475180A90012B0433
:071DB800F0AF3D121B862273
:101DBF0090012CE07010433D0275180A90012B041E
:071DCF00F0AF3D121B86225C
:101DD60090012CE07010433D0175180A90012B0408
:071DE600F0AF3D121B862245
:101DED0090012CE07010433D0875180A90012B04EA
:071DFD00F0AF3D121B86222E
:101CB700900108E0B40104E4F08006900108740183
:101CC700F09001067401F0E4900128F0751A0122E2
:101CD700900111E0B40104E4F08006900111740151
:101CE700F090010F7401F0E4900128F0751A0122B9
:101CF70090011AE0B40104E4F0800690011A74011F
:101D0700F09001187401F0E4900128F0751A01228F
:101D1700900123E0B40104E4F080069001237401EC
:101D2700F09001217401F0E4900128F0751A012266
:10001E0090012AE0700604F0D2868007E490012A4F
:10002E00F0C286533D0FAF3D121B86900106740140
:10003E00F090010FF0900118F0900121F0E4900182
:06004E0028F0751A0122E2
:1013F5007522FF75231B7524F27525FF7526197552
:1014050027AC7528FF75291E752A6C752BFF752C61
:101415001D752DA8752EFF752F1C7530B77BFF7AAE
:101425001F791D1215F27522FF75231C752413757E
:1014350025FF7526197527FA7528FF75291E752A42
:101445007F752BFF752C1D752DBF752EFF752F1CF8
:101455007530D77BFF7A1F79261215F27522FF7535
:10146500231C7524347525FF75261A75274875289C
:10147500FF75291E752A92752BFF752C1D752DD6A6
:10148500752EFF752F1C7530F77BFF7A1F792F128C
:1014950015F27522FF75231C7524557525FF7526D4
:1014A5001A7527967528FF75291E752AA5752BFFB0
:1014B500752C1D752DED752EFF752F1D7530177B40
:1014C500FF7A1F79381215F27522007523007524ED
:1014D500007525FF75261E7527DE7528FF75291CE5
:1014E500752A97752B00752C00752D00752EFF75C7
:0E14F5002F0075301E7BFF7A1F79410215F221
:091F4A0043B31F53B4E00213F588
:030000000217F9EB
:0C17F900787FE4F6D8FD75813E021840B0
:0E1EF000121D56121D37121E441212D380F519
:1010570060600000000000000000000000000000C9
:101067000000000000000000000000000000000079
:101077000000000000000000000000000000000069
:101087000000000000000000000000000000000059
:101097000000000000000000000000000000000049
:1010A7000000000000000000000000000000000039
:1010B7000000000060320060000000000000000037
:1010C7000000000000000000000000000000000019
:1010D7000000000000000000000000000000000009
:0A10E70000000000000000000000FF
:10195000E4F51FF520F520E52075F013A42400F52B
:1019600082E43400F583E0FBA3E0FAA3E0F9EA495E
:101970004B602DE52075F013A42400F582E43400BB
:10198000F583A3E0FAA3E0F91208BEBF0112E52037
:1019900075F013A42412F582E43400F583E0421FAD
:0B19A0000520E520C3940540AEAF1FFA
:0119AB002219
:1015F2007F0190005FE0FEC3940540021F2290002D
:101602005FE0FD75F013A42400F582E43400F58355
:10161200EBF0A3EAF0A3E9F0ED75F013A42403F5CF
:1016220082E43400F583E522F0A3E523F0A3E52468
:10163200F0ED75F013A42406F582E43400F583E599
:1016420025F0A3E526F0A3E527F0ED75F013A42419
:1016520009F582E43400F583E528F0A3E529F0A337
:10166200E52AF0ED75F013A4240CF582E43400F5BC
:1016720083E52BF0A3E52CF0A3E52DF0ED75F01337
:10168200A4240FF582E43400F583E52EF0A3E52FC0
:10169200F0A3E530F0EFA805088002C333D8FCFFC1
:1016A200EE75F013A42412F582E43400F583EFF012
:0816B20090005FE004F07F01ED
:0116BA00220D
:100066008F238D24E52475F00AA42465F582E434F3
:1000760000F583E004F0E52475F00AA42466F58211
:10008600E43400F583E004F0E5236017E52475F019
:100096000AA42464F582E43400F583E06523700342
:1000A600020264E52475F00AA42462F582E43400B1
:1000B600F583E0FEA3E0C39402EE94005019E52414
:1000C60075F00AA42462F582E43400F583E475F041
:1000D60001120826020416E52475F00AA42460F528
:1000E60082E43400F583E0FEA3E0C3942CEE940191
:1000F6004040E52475F00AA42469F582E43400F54D
:1001060083E4F0E52475F013A4240CF582E43400AE
:10011600F583E0FBA3E0FAA3E0F9EA494B7003029A
:10012600023CE52475F013A4240CF582E4340002A5
:100136000231E52475F00AA42460F582E43400F562
:1001460083E0FEA3E0C39402EE9400500302023C57
:10015600E52475F013A4240FF582E43400F583E05A
:10016600FBA3E0FAA3E0F9EA494B7003020208E5B3
:100176002475F00AA42469F582E43400F583E0B41A
:100186000114E52475F00AA42469F582E43400F527
:1001960083E4F002023CE52475F00AA42468F582A3
:1001A600E43400F583E0B40134E52475F013A424A7
:1001B60006F582E43400F583E0FBA3E0FAA3E0F958
:1001C600EA494B6018E52475F013A42406F582E489
:1001D6003400F583A3E0FAA3E0F91208BEE524751E
:1001E600F00AA42466F582E43400F583E4F0E524FD
:1001F60075F00AA42468F582E43400F5837401F0EE
:100206008034E52475F013A42406F582E43400F561
:1002160083E0FBA3E0FAA3E0F9EA494B6018E52482
:1002260075F013A42406F582E43400F583A3E0FAFE
:10023600A3E0F91208BEE52475F00AA42464F58249
:10024600E43400F583E523F0E52475F00AA4246080
:10025600F582E43400F583E4F0A3F0020416E52405
:1002660075F00AA42460F582E43400F583E475F0A1
:1002760001120826E52475F00AA42460F582E43408
:1002860000F583E0FEA3E064024E60030203B5E5D9
:100296002475F00AA42462F582E43400F583E4F0C0
:1002A600A3F0E52475F013A4240FF582E43400F5D9
:1002B60083E0FBA3E0FAA3E0F9EA494B70030203EB
:1002C6008AE52475F00AA42468F582E43400F583EF
:1002D600E064017078E52475F00AA42465F582E4EB
:1002E6003400F583E0C3941E5063E52475F00AA438
:1002F6002469F582E43400F5837401F0E52475F091
:100306000AA42468F582E43400F583E4F0E5247554
:10031600F00AA42467F582E43400F583E4F0E524CA
:1003260075F013A4240FF582E43400F583E0FBA3F3
:10033600E0FAA3E0F9EA494B7003020416E52475D6
:10034600F013A4240FF582E4340002040BE52475AF
:10035600F00AA42469F582E43400F583E4F0E52488
:1003660075F00AA42467F582E43400F5837401F07D
:10037600E52475F00AA42465F582E43400F583E4E7
:10038600F0020416E52475F013A42403F582E43480
:1003960000F583E0FBA3E0FAA3E0F9EA494B6070BD
:1003A600E52475F013A42403F582E434008056E5B1
:1003B6002475F00AA42460F582E43400F583E0FE97
:1003C600A3E0642C7003EE64017045E52475F00A21
:1003D600A42469F582E43400F583E4F0E52475F09D
:1003E60013A42409F582E43400F583E0FBA3E0FAC4
:1003F600A3E0F9EA494B6018E52475F013A4240933
:10040600F582E43400F583A3E0FAA3E0F91208BE0E
:10041600E52475F013A4240FF582E43400F583E097
:10042600FBA3E0FAA3E0F9EA494B7003020511E5E4
:100436002475F00AA42467F582E43400F583E064A9
:1004460001705AE52475F00AA42465F582E43400A7
:10045600F583E0C3941E4045E52475F00AA424679D
:10046600F582E43400F583E4F0E52475F013A42462
:1004760003F582E43400F583E0FBA3E0FAA3E0F998
:10048600EA494B6018E52475F013A42403F582E4C9
:100496003400F583A3E0FAA3E0F91208BEE524755B
:1004A600F00AA42468F582E43400F583E064017060
:1004B6005AE52475F00AA42466F582E43400F5832F
:1004C600E0C3941E4045E52475F00AA42468F5822D
:1004D600E43400F583E4F0E52475F013A42406F56E
:1004E60082E43400F583E0FBA3E0FAA3E0F9EA49ED
:1004F6004B6018E52475F013A42406F582E4340055
:0C050600F583A3E0FAA3E0F91208BE227E
:021B59008F1FDC
:101B5B00E4F520752101F522F520AF20E521A8073A
:101B6B00088002C333D8FC551FF522AD20FF1200AD
:0A1B7B00660520E520C3940540E054
:011B8500223D
:08000300E4FF121950021B5921
:091F530053B13F43B2C0C2872222
:1010F10054012DFF0000000000000000000000006E
:0711010000000000000000E7
:101EB80075C7AA75C755439F0175C7AA75C7554306
:031EC800A501224F
:101E1A0075AF2275A738E4F5A675AEFF75C7AA7522
:061E2A00C75543A401228C
:101ECB0075C7AA75C75553A5FE75C7AA75C75553D0
:031EDB009FFE2245
:101BAC00E4FF75AF2175A7388FA6742D2FF582E44D
:101BBC003401F583E0F5AE75C7AA75C75543A4018A
:041BCC000FBF14DE55
:011BD00022F2
:101C7600E4FDED2400FFE434388F82F583E493FF1E
:101C8600742D2DF582E43401F583EFF00DBD14E2D9
:011C9600222B
:0C000E00121EB8121E1A121BAC021ECBF0
:101108006064009200000000000000000000000081
:1011180000000000000000000000000000000000C7
:1011280000000000000000000000000000000000B7
:1011380000000000000000000000000000000000A7
:101148000000000000000000000000000000000097
:101158000000000000000000000000000000000087
:1011680000000000000000004E00F6000000000033
:0C117800000000000000000000013E002C
:04188500AB07AA06FD
:10188900900093E07019C3EB94FAEA940040573042
:101899009554A3EAF0A3EBF09000937401F0227C35
:1018A900007D05AF03AE021207BFD3900095E09FFC
:1018B900900094E09E4016E53E25E02496F582E4EA
:1018C9003400F583EAF0A3EBF0053E8007E49000CD
:1018D90093F0F53EE53EC39430400BE4F53E9000AD
:0618E9009204F0E4A3F0FC
:0118EF0022D6
:101D8F00E4900100F0A3F09000FC12088D00000019
:091D9F0000E49000F6F0A3F0222C
:1008C400E4F522F521F520F51FF523F524F525F5AA
:1008D40026F527F528F529F52AF52BF52CF52DF520
:1008E4002E900092E064016003020B8BF0900100F3
:1008F400E07002A3E0702D900096E0FFA3E090006A
:10090400F8CFF0A3EFF0900098E0FFA3E09000FA96
:10091400CFF0A3EFF0900094E0FFA3E09000F6CFB7
:10092400F0A3EFF09000FAE0FEA3E0FF9000F9E0FE
:100934002FF5249000F8E03EF523FEAF247C007DE3
:10094400051207D18E278F289000F6E0FEA3E0FF62
:100954007C007D051207D18E298F2AE4FBEBC3941A
:10096400304003020AB5EB25E02498F582E4340014
:10097400F583E0FEA3E0FFEB25E02496F582E43462
:1009840000F583E0FCA3E0FD2FF526EC3EF525E51C
:10099400242528FFE5233527FED3E5269FE5259E5C
:1009A4005014C3E5249528FFE5239527FEC3E526C7
:1009B4009FE5259E500F900103E004F0700690011E
:1009C40002E004F022EB25E02498F582E43400F5FB
:1009D40083E0FEA3E0FFD3ED9FEC9E4050AF22AE38
:1009E40021AD20AC1F780112086EEF4401F522EE10
:1009F400F521EDF520ECF51FEB25E02498F582E4D4
:100A04003400F583E0FEA3E0252CF52CEE352BF520
:100A14002BEB25E02496F582E43400F583E0FEA375
:100A2400E0252EF52EEE352DF52D020AB0EB25E04E
:100A34002498F582E43400F583E0FEA3E0FFEB257F
:100A4400E02496F582E43400F583E0FCA3E0C39F40
:100A5400EC9E5049AF22AE21AD20AC1F78011208A4
:100A64006E8F228E218D208C1FEB25E02498F58239
:100A7400E43400F583E0FEA3E0252EF52EEE352DBB
:100A8400F52DEB25E02496F582E43400F583E0FEB1
:100A9400A3E0252CF52CEE352BF52B800F900103CC
:100AA400E004F07006900102E004F0220B0B02094E
:100AB40061900094E0FEA3E0FF2528FDE5273EFCBD
:100AC4009000F6E0FAA3E0FBC39DEA9C502BC3EF31
:100AD4009528FFEE9527FED3EB9FEA9E401B9000DE
:100AE400FCE0FCA3E0FDA3E0FEA3E0FFAB22AA210F
:100AF400A920A81F12084A6078900094E0FFA3E0A0
:100B04009000F6CFF0A3EFF0AF22AE21AD20AC1FE2
:100B14009000FC120881900100E4F0A304F0E4A327
:100B2400F0A3F0AE2BAF2CFC7D181207D1AC06ADB0
:100B340007E412060FE4FBFAF9783F1205191206CE
:100B4400489000FAEEF0A3EFF0AE2DAF2E7C007DBE
:100B5400181207D1AC06AD07E412060FE4FBFAF94C
:100B6400783F1205191206489000F8EEF0A3EFF052
:100B740022900101E004F07006900100E004F0E42A
:100B8400900102F0A3F022900103E004F0700690BB
:050B94000102E004F085
:010B99002239
:101D730053C8FE53C90F43C9D043C9084392104304
:0C1D830093035393FE53F1F043F1082248
:071F630043B32053B4DF2259
:0C1EFE00121F63121D73439B04D2CA2202
:03006300021AE49A
:101AE400C0E0C0F0C083C082C0D075D000C000C0C8
:0B1AF40002C003C004C005C006C0070C
:101AFF00E59230E00E5392FEAFE5EFFEADE4EDFF61
:031B0F0012188524
:101B1200D007D006D005D004D003D002D000D0D058
:091B2200D082D083D0F0D0E03273
:100512000206B4E86480F8E933E83360110460F05D
:10052200ED33EC337009E8FCE9FDEAFEEBFF22044F
:1005320060DED3EB9FEA9EE99DE8C2E78CF0C2F74A
:1005420095F0400CE8CCF8E9CDF9EACEFAEBCFFB16
:1005520012067F85D0F05804700320D5B3E80470EA
:10056200075002B2D50206BE92D5EC0460F7E4CC85
:10057200C0E0C398F8603B94186008400DD0E0FBDF
:10058200020696E4FBFAC9FC8028E830E406E4C9D6
:10059200FBE4CAFCE830E305E4C9CACBFCE8540733
:1005A2006010F8C3E913F9EA13FAEB13FBEC13FC3E
:1005B200D8F130F52FC3E49CFCEF9BFFEE9AFEEDE1
:1005C20099FDD0E0FBEF4E4D4C701222DB03020688
:1005D200BBEC2CFCEF33FFEE33FEED33FDED30E7E9
:1005E200EB020696EF2BFFEE3AFEED39FDD0E0FB73
:1005F20050130BBB00030206BEED13FDEE13FEEF1C
:0806020013FFEC13FC02069645
:10060A0075F020800E75F010800575F0087D007E6B
:10061A00007F003392D530D50312083CEC334010EA
:10062A00EF33FFEE33FEED33FDEC33FCD5F0ED2274
:0E063A00E5F0247EA2D513CC92E7CDCEFF22B0
:10064800EDD2E7CD33EC3392D524814006E4FFFEAA
:10065800FDFC22FCE4CFCECDCC24E0501174FF8009
:10066800EDC3CC13CCCD13CDCE13CECF13CF0470A6
:07067800F030D5DE02083C62
:10067F00E9D2E7C933E833F892D5EDD2E7CD33ECC1
:07068F0033FC5002B2D5223A
:10069600EC30E7100FBF000C0EBE00080DBD0004C5
:1006A6000BEB6014A2D5EB13FCED92E7FD2274FF71
:1006B600FCFDFEFF22E480F8A2D574FF13FC7D80CA
:0306C600E480EFDE
:10180500021EF0E493A3F8E493A34003F68001F2EB
:1018150008DFF48029E493A3F85407240CC8C333E4
:10182500C4540F4420C8834004F456800146F6DFB3
:10183500E4800B0102040810204080900FD8E47E5C
:10184500019360BCA3FF543F30E509541FFEE493A8
:10185500A360010ECF54C025E060A840B8E493A36F
:10186500FAE493A3F8E493A3C8C582C8CAC583CA9A
:10187500F0A3C8C582C8CAC583CADFE9DEE780BE52
:01118400006A
:1006C900E709F608DFFA8046E709F208DFFA803E13
:1006D90088828C83E709F0A3DFFA8032E309F60800
:1006E900DFFA8078E309F208DFFA807088828C8368
:1006F900E309F0A3DFFA806489828A83E0A3F6081C
:10070900DFFA805889828A83E0A3F208DFFA804CF5
:1007190080D280FA80C680D4806980F280338010CC
:1007290080A680EA809A80A880DA80E280CA803335
:1007390089828A83ECFAE493A3C8C582C8CCC583AD
:10074900CCF0A3C8C582C8CCC583CCDFE9DEE7807D
:100759000D89828A83E493A3F608DFF9ECFAA9F0FC
:10076900EDFB2289828A83ECFAE0A3C8C582C8CC52
:10077900C583CCF0A3C8C582C8CCC583CCDFEADE6B
:10078900E880DB89828A83E493A3F208DFF980CCCD
:1007990088F0EF60010E4E60C388F0ED2402B404C6
:1007A9000050B9F582EB2402B4040050AF2323456D
:0607B90082239007197372
:1007BF00EF8DF0A4A8F0CF8CF0A428CE8DF0A42E4E
:0207CF00FE2208
:1007D100BC000BBE0029EF8DF084FFADF022E4CC0C
:1007E100F875F008EF2FFFEE33FEEC33FCEE9DECD5
:1007F100984005FCEE9DFE0FD5F0E9E4CEFD22ED1B
:10080100F8F5F0EE8420D21CFEADF075F008EF2F64
:10081100FFED33FD4007985006D5F0F222C398FD55
:050821000FD5F0EA22F2
:10082600C5F0F8A3E028F0C5F0F8E582158270025D
:060836001583E038F022FA
:0E083C00C3E49FFFE49EFEE49DFDE49CFC22CD
:10084A00EB9FF5F0EA9E42F0E99D42F0E89C45F004
:01085A00227B
:10085B00E8600FECC313FCED13FDEE13FEEF13FF7B
:03086B00D8F1229F
:10086E00E8600FEFC333FFEE33FEED33FDEC33FCE8
:03087E00D8F1228C
:0C088100ECF0A3EDF0A3EEF0A3EFF022EA
:10088D00A8828583F0D083D0821208A41208A41206
:10089D0008A41208A4E473E493A3C583C5F0C5832B
:1008AD00C8C582C8F0A3C583C5F0C583C8C582C8B5
:0108BD002218
:0608BE008A838982E473C5
:00000001FF
