:1007630002080000020A0000020C0000020E000052
:100773000210000002120000021400000216000022
:0807830002180000021A000038
:100D3B005389F0438902538EF7758C7B758A7BD26E
:060D4B00A9D2AFD28C22F8
:03000B0002086F79
:0B086F00C0E0C0D075D000C006C0077C
:10087A000509E50970020508050BE50B7002050A72
:10088A00050DE50D7002050C050FE50F7002050E4A
:10089A000511E51170020510051BE51B7002051A0A
:1008AA00C3E5099464E508940040097508007509D0
:1008BA0000752A01C374109513FF74279512FEC39D
:1008CA00E50B9FE50A9E400F751223751328750ADA
:1008DA0000750B00752C01C374109515FF742795CC
:1008EA0014FEC3E50D9FE50C9E400F751423751584
:1008FA0028750C00750D00752D01C374109517FF2E
:10090A0074279516FEC3E50F9FE50E9E400F7516D8
:10091A00267517AC750E00750F00752B01C3741080
:10092A009519FF74279518FEC3E5119FE5109E409F
:10093A000F7518267519AC75100075110075280108
:10094A00C3E51B9488E51A94134008751A00751BB1
:03095A0000B28761
:09095D00D007D006D0D0D0E03262
:100DA1008040201004020108000000000000000043
:10078B00012900012A00012C00012B000128000186
:10079B002D005D00000000000000000000000000C4
:1007AB00000000000000000000000000000000003E
:1007BB00000002260000011C00011D00041E0000A9
:0807CB00000004220000000000
:0F0DB10053B33F43B4C053ACFE43AD01D2B022A5
:070DFE0043B10F53B2F022D4
:1003480085402E782F7C007D007BFF7A0D79A97E71
:10035800007F04120613E4A28133F52FA280E43350
:10036800F530A283E433F531A282E433F53290000C
:0703780019E0700302043AD2
:10037F00900002E06003020542900008E060030273
:10038F00054290000EE06003020542900014E06009
:10039F0003020542E4FF741E2FF8E6FE742F2FF8B8
:1003AF00E6FD6E6008EDB40104EF04F51CE6FE7483
:1003BF001E2FF8A6060FBF04DDE51D651C60258501
:1003CF001C1DE4FFEF2401FDE433FCE51CB5050E15
:1003DF00E4B5040A53400FEF900DA19342400FBFB5
:1003EF0004E2802D742E251CF8E66013E51C900D99
:1003FF00A093FE55406003020537EE42408012E5A0
:10040F001C900DA093FE55407003020537EEF45279
:10041F00409000027401F0900008F090000EF090F0
:08042F000014F0E4900018F045
:10043700020537E4FFEF75F006A42405F582E434DE
:1004470000F583E064016003020505EF75F006A47B
:100457002400F582E43400F583E475F001120639CF
:10046700EF900DA19355407003020505EF75F00657
:10047700A42403F582E43400F583E07023EF75F0DC
:1004870006A42400F582E43400F583E4F0A3F0EF3A
:1004970075F006A42403F582E43400F5837401F0B3
:1004A700EF75F006A42400F582E43400F583E0FC40
:1004B700A3E0C39407EC94004044EF75F006A4242E
:1004C70000F582E43400F583E4F0A3F0EF75F0065D
:1004D700A42403F582E43400F583E4F0EF900DA142
:1004E70093F45240EF75F006A42402F582E4340039
:1004F700F5837401F0E4900018F0F526F527EF7501
:10050700F006A42402F582E43400F583E070187441
:100517002F2FF8E66009EF900DA19342408008EF76
:10052700900DA193F452400FEF6404600302043C62
:0B053700E540652E6005AF40120CF699
:010542002296
:10096600E4F52E85402F78307C00FD7BFF7A0D79EB
:10097600ADFE7F04120613900018E004F0E0640553
:100986006003020A0CA28133F530A280E433F5310C
:10099600A283E433F532A282E433F533E4F52EE59F
:1009A6002E75F006A42402F582E43400F583E06097
:1009B6004E7430252EF8E6FF7E00C37407952EFD93
:1009C600EFA805088005C333CE33CED8F9FFE52E50
:1009D600900DA19355406F7001EE60127422252E82
:1009E600F87601E52E900DA593F452408011E52E80
:1009F60075F006A42402F582E43400F583E4F005DC
:100A06002EE52EB40499900018E0C39406401EE427
:100A1600F0F52E7422252EF8E6B4010AE52E900D87
:100A2600A5934240E4F6052EE52EB404E6E54065BE
:080A36002F6005AF40120CF621
:010A3E002295
:100D1C00E52A6006E4F52A120DF6E52D6006E4F5E9
:0F0D2C002D120348E52C6006E4F52C120966220F
:100C9B00120DB17F0F120CF6120E05120DED120D87
:100CAB00FE120D3B9000057401F090000BF09000CC
:0E0CBB0011F0900017F0E4900019F0C28622AC
:100CF600E4FEC2AFEFC4131313540124FF92B0EF06
:100D060025E0FFC29600D2960EBE08E8C29700D232
:050D160097C2B0D2AF4E
:010D1B0022B5
:0307D30001400FD3
:090DC0002093037F01227F002231
:090DC9002092037F01227F002229
:090DD2002091037F01227F002221
:090DDB002090037F01227F002219
:090DE4002094037F01227F00220C
:100D5100E5404404600D5340FBE4F526F527AF4020
:040D6100120CF62258
:100D6500E5404402600D5340FDE4F526F527AF400C
:040D7500120CF62244
:100D7900E5404401600D5340FEE4F526F527AF40F8
:040D8900120CF62230
:100D8D00E5404408600D5340F7E4F526F527AF40E4
:040D9D00120CF6221C
:010E0C0022C3
:100BB200E54020E22130810553407F800C900019EE
:100BC200E0600353400F434080434004E4F526F5C0
:100BD20027AF40120CF69000027401F0900008F06A
:0E0BE20090000EF0900014F0E4900018F02245
:100BF0003080055340BF800C900019E060035340E3
:100C00000F434040434002E4F526F527AF40120C65
:100C1000F69000027401F0900008F090000EF09041
:090C20000014F0E4900018F02229
:100C29003083055340DF800C900019E06003534086
:100C39000F434020434001E4F526F527AF40120C4D
:100C4900F69000027401F0900008F090000EF09008
:090C59000014F0E4900018F022F0
:100C62003082055340EF800C900019E0600353403E
:100C72000F434010434008E4F526F527AF40120C1D
:100C8200F69000027401F0900008F090000EF090CF
:090C92000014F0E4900018F022B7
:100655007531FF75320D7533517534FF75350B7571
:1006650036B2753700753800753900753A00753B37
:1006750000753C00753D00753E00753F007BFF7AB7
:100685000D79C0120A3F7531FF75320D75336575E9
:1006950034FF75350B7536F07537007538007539CB
:1006A50000753A00753B00753C00753D00753E00D0
:1006B500753F007BFF7A0D79C9120A3F7531FF75C9
:1006C500320D7533797534FF75350C7536297537E7
:1006D50000753800753900753A00753B00753C00AA
:1006E500753D00753E00753F007BFF7A0D79D2128E
:1006F5000A3F7531FF75320D75338D7534FF7535CC
:100705000C753662753700753800753900753A0015
:10071500753B00753C00753D00753E00753F007BDF
:10072500FF7A0D79DB120A3F7531FF75320E75338D
:100735000C75340075350075360075370075380051
:10074500753900753A00753B00753C00753D0075BF
:0E0755003E00753F007BFF7A0D79E4020A3FFB
:090DED0043B31F53B4E0020655A4
:03000000020ADE13
:0C0ADE00787FE4F6D8FD7581D2020B256C
:08000300120C9B120D1C80FB86
:1007D6002060410000000000000000000000000052
:1007E6000000000000000000000000000000000003
:1007F60000000000000000000000000000000000F3
:1008060000000000000000000000000000000000E2
:1008160000000000000000000000000000000000D2
:1008260000000000000000000000000000000000C2
:100836000000002032A100000000000000000000BF
:1008460000000000000000000000000000000000A2
:100856000000000000000000000000000000000092
:0808660000000000000000008A
:100B6A00E4F52EF52FF52FE52F75F013A42441F89F
:100B7A00860308E6FA08E64A4B6021E52F75F0136A
:100B8A00A42441F808E6FA08E6F912064FBF010C58
:100B9A00E52F75F013A42453F8E6422E052FE52F0E
:070BAA00C3940540C2AF2E09
:010BB1002221
:100A3F007F0178A0E6FEC3940540021F2278A0E64E
:100A4F00FD75F013A42441F8A60308A60208A60119
:100A5F00AA32A933ED75F013A42444F8A63108A6E1
:100A6F000208A601AA35A936ED75F013A42447F89C
:100A7F00A63408A60208A601AA38A939ED75F01305
:100A8F00A4244AF8A63708A60208A601AA3BA93C47
:100A9F00ED75F013A4244DF8A63A08A60208A60196
:100AAF00AA3EA93FED75F013A42450F8A63D08A661
:100ABF000208A601EFA805088002C333D8FCFFEE99
:0E0ACF0075F013A42453F8A60778A0067F0143
:010ADD0022F6
:10000E008F328D33E53375F00AA424A6F806E53356
:10001E0075F00AA424A7F806E5326011E53375F0F1
:10002E000AA424A5F8E532667003020168E533756B
:10003E00F00AA424A4F9C3E7940219E7940050131C
:10004E00E53375F00AA424A3F80806E61870010635
:10005E00020294E53375F00AA424A2F9C3E7942CA6
:10006E0019E79401402DE53375F00AA424AAF8E4AB
:10007E00F6E53375F013A4244DF8860308E6FA0866
:10008E00E64A4B700302014DE53375F013A4244D7F
:10009E00020143E53375F00AA424A2F9C3E79402E2
:1000AE0019E79400500302014DE53375F013A424B3
:1000BE0050F8860308E6FA08E64A4B605CE53375AD
:1000CE00F00AA424AAF8E6B40104E4F68071E5333C
:1000DE0075F00AA424A9F8E6B40126E53375F013E9
:1000EE00A42447F8860308E6FA08E64A4B6012E5B0
:1000FE003375F013A42447F808E6FA08E6F9120659
:10010E004FE53375F00AA424A7F8E4F6E53375F04D
:10011E000AA424A9F876018026E53375F013A424E9
:10012E0047F8860308E6FA08E64A4B6012E533758F
:10013E00F013A42447F808E6FA08E6F912064FE58C
:10014E003375F00AA424A5F8A632E53375F00AA497
:10015E0024A1F8E4F608F6020294E53375F00AA439
:10016E0024A1F80806E618700106E53375F00AA416
:10017E0024A2F9E764021947600302024FE53375C2
:10018E00F00AA424A3F8E4F608F6E53375F013A4F8
:10019E002450F8860308E6FA08E64A4B700302027A
:1001AE0031E53375F00AA424A9F8E664017051E52F
:1001BE003375F00AA424A6F8E6C394325042E53310
:1001CE0075F00AA424AAF87601E53375F00AA42482
:1001DE00A9F8E4F6E53375F00AA424A8F8E4F6E5E8
:1001EE003375F013A42450F8860308E6FA08E64A9D
:1001FE004B7003020294E53375F013A42450807CF7
:10020E00E53375F00AA424AAF8E4F6E53375F00A8E
:10021E00A424A8F87601E53375F00AA424A6F8E420
:10022E00F68063E53375F013A42444F8860308E6DC
:10023E00FA08E64A4B604FE53375F013A424448068
:10024E003BE53375F00AA424A2F9E7642C70041977
:10025E00E764017031E53375F00AA424AAF8E4F6D8
:10026E00E53375F013A4244AF8860308E6FA08E687
:10027E004A4B6012E53375F013A4244AF808E6FAE7
:10028E0008E6F912064FE53375F013A42450F886EC
:10029E000308E6FA08E64A4B7003020347E5337596
:1002AE00F00AA424A8F8E664017040E53375F00A5C
:1002BE00A424A6F8E6C394324031E53375F00AA4BF
:1002CE0024A8F8E4F6E53375F013A42444F8860365
:1002DE0008E6FA08E64A4B6012E53375F013A424DB
:1002EE0044F808E6FA08E6F912064FE53375F00A07
:1002FE00A424A9F8E664017040E53375F00AA4243D
:10030E00A7F8E6C394324031E53375F00AA424A968
:10031E00F8E4F6E53375F013A42447F8860308E6EF
:10032E00FA08E64A4B6012E53375F013A42447F839
:0A033E0008E6FA08E6F912064F225D
:020CC9008F2E6C
:100CCB00E4F52F753001F531F52FAF2FE530A8077F
:100CDB00088002C333D8FC552EF531AD2FFF12001F
:0A0CEB000E052FE52FC3940540E02D
:010CF50022DC
:080DF600E4FF120B6A020CC9B4
:070E050053B13F43B2C022CC
:100AEA00020003E493A3F8E493A34003F68001F21F
:100AFA0008DFF48029E493A3F85407240CC8C3330D
:100B0A00C4540F4420C8834004F456800146F6DFDB
:100B1A00E4800B0102040810204080900763E47E01
:100B2A00019360BCA3FF543F30E509541FFEE493D0
:100B3A00A360010ECF54C025E060A840B8E493A397
:100B4A00FAE493A3F8E493A3C8C582C8CAC583CAC2
:100B5A00F0A3C8C582C8CAC583CADFE9DEE780BE7A
:01086E000089
:10054300E709F608DFFA8046E709F208DFFA803E9A
:1005530088828C83E709F0A3DFFA8032E309F60887
:10056300DFFA8078E309F208DFFA807088828C83EF
:10057300E309F0A3DFFA806489828A83E0A3F608A3
:10058300DFFA805889828A83E0A3F208DFFA804C7D
:1005930080D280FA80C680D4806980F28033801054
:1005A30080A680EA809A80A880DA80E280CA8033BD
:1005B30089828A83ECFAE493A3C8C582C8CCC58335
:1005C300CCF0A3C8C582C8CCC583CCDFE9DEE78005
:1005D3000D89828A83E493A3F608DFF9ECFAA9F084
:1005E300EDFB2289828A83ECFAE0A3C8C582C8CCDA
:1005F300C583CCF0A3C8C582C8CCC583CCDFEADEF3
:10060300E880DB89828A83E493A3F208DFF980CC54
:1006130088F0EF60010E4E60C388F0ED2402B4044D
:100623000050B9F582EB2402B4040050AF232345F4
:0606330082239005937381
:10063900C5F0F8A3E028F0C5F0F8E582158270024C
:060649001583E038F022E9
:06064F008A838982E47336
:00000001FF
