:1007630002080000020A0000020C0000020E000052
:100773000210000002120000021400000216000022
:0807830002180000021A000038
:100D34005389F0438902538EF7758C7B758A7BD275
:060D4400A9D2AFD28C22FF
:03000B0002086880
:0B086800C0E0C0D075D000C006C00783
:100873000509E50970020508050BE50B7002050A79
:10088300050DE50D7002050C050FE50F7002050E51
:100893000511E51170020510051BE51B7002051A11
:1008A300C3E5099464E508940040097508007509D7
:1008B30000752A01C374109513FF74279512FEC3A4
:1008C300E50B9FE50A9E400F751223751328750AE1
:1008D30000750B00752C01C374109515FF742795D3
:1008E30014FEC3E50D9FE50C9E400F75142375158B
:1008F30028750C00750D00752D01C374109517FF35
:1009030074279516FEC3E50F9FE50E9E400F7516DF
:10091300267517AC750E00750F00752B01C3741087
:100923009519FF74279518FEC3E5119FE5109E40A6
:100933000F7518267519AC7510007511007528010F
:10094300C3E51B9488E51A94134008751A00751BB8
:0309530000B28768
:09095600D007D006D0D0D0E03269
:100D9A00804020100402010800000000000000004A
:10078B00012900012A00012C00012B000128000186
:10079B002D005600000000000000000000000000CB
:1007AB000000000000000000000000022600000115
:1007BB001C00011D00041E000000000422000000AC
:0107CB00002D
:0F0DAA0053B33F43B4C053ACFE43AD01D2B022AC
:070DF70043B10F53B2F022DB
:1003480085402E782F7C007D007BFF7A0D79A27E78
:10035800007F04120613E4A28133F52FA280E43350
:10036800F530A283E433F531A282E433F53290000C
:0703780015E0700302043AD6
:10037F00900002E06003020542900007E060030274
:10038F00054290000CE06003020542900011E0600E
:10039F0003020542E4FF741E2FF8E6FE742F2FF8B8
:1003AF00E6FD6E6008EDB40104EF04F51CE6FE7483
:1003BF001E2FF8A6060FBF04DDE51D651C60258501
:1003CF001C1DE4FFEF2401FDE433FCE51CB5050E15
:1003DF00E4B5040A53400FEF900D9A9342400FBFBC
:1003EF0004E2802D742E251CF8E66013E51C900D99
:1003FF009993FE55406003020537EE42408012E5A7
:10040F001C900D9993FE55407003020537EEF45280
:10041F00409000027401F0900007F090000CF090F3
:08042F000011F0E4900014F04C
:10043700020537E4FFEF75F005A42404F582E434E0
:1004470000F583E064016003020505EF75F005A47C
:100457002400F582E43400F583E475F001120639CF
:10046700EF900D9A9355407003020505EF75F0055F
:10047700A42403F582E43400F583E07023EF75F0DC
:1004870005A42400F582E43400F583E4F0A3F0EF3B
:1004970075F005A42403F582E43400F5837401F0B4
:1004A700EF75F005A42400F582E43400F583E0FC41
:1004B700A3E0C39407EC94004044EF75F005A4242F
:1004C70000F582E43400F583E4F0A3F0EF75F0055E
:1004D700A42403F582E43400F583E4F0EF900D9A49
:1004E70093F45240EF75F005A42402F582E434003A
:1004F700F5837401F0E4900014F0F526F527EF7505
:10050700F005A42402F582E43400F583E070187442
:100517002F2FF8E66009EF900D9A9342408008EF7D
:10052700900D9A93F452400FEF6404600302043C69
:0B053700E540652E6005AF40120CEFA0
:010542002296
:10095F00E4F52E85402F78307C00FD7BFF7A0D79F2
:10096F00A6FE7F04120613900014E004F0E0640565
:10097F006003020A05A28133F530A280E433F5311A
:10098F00A283E433F532A282E433F533E4F52EE5A6
:10099F002E75F005A42402F582E43400F583E0609F
:1009AF004E7430252EF8E6FF7E00C37407952EFD9A
:1009BF00EFA805088005C333CE33CED8F9FFE52E57
:1009CF00900D9A9355406F7001EE60127422252E90
:1009DF00F87601E52E900D9E93F452408011E52E8E
:1009EF0075F005A42402F582E43400F583E4F005E4
:1009FF002EE52EB40499900014E0C39406401EE433
:100A0F00F0F52E7422252EF8E6B4010AE52E900D8E
:100A1F009E934240E4F6052EE52EB404E6E54065CC
:080A2F002F6005AF40120CEF2F
:010A3700229C
:100D1500E52A6006E4F52A120DEFE52D6006E4F5F7
:0F0D25002D120348E52C6006E4F52C12095F221D
:100C9400120DAA7F0F120CEF120DFE120DE6120DAB
:100CA400F7120D349000047401F0900009F09000E4
:0E0CB4000EF0900013F0E4900015F0C28622BE
:100CEF00E4FEC2AFEFC4131313540124FF92B0EF0D
:100CFF0025E0FFC29600D2960EBE08E8C29700D23A
:050D0F0097C2B0D2AF55
:010D140022BC
:0307CC0001400FDA
:090DB9002093037F01227F002238
:090DC2002092037F01227F002230
:090DCB002091037F01227F002228
:090DD4002090037F01227F002220
:090DDD002094037F01227F002213
:100D4A00E5404404600D5340FBE4F526F527AF4027
:040D5A00120CEF2266
:100D5E00E5404402600D5340FDE4F526F527AF4013
:040D6E00120CEF2252
:100D7200E5404401600D5340FEE4F526F527AF40FF
:040D8200120CEF223E
:100D8600E5404408600D5340F7E4F526F527AF40EB
:040D9600120CEF222A
:010E050022CA
:100BAB00E54020E22130810553407F800C900015F9
:100BBB00E0600353400F434080434004E4F526F5C7
:100BCB0027AF40120CEF9000027401F0900007F079
:0E0BDB0090000CF0900011F0E4900014F02255
:100BE9003080055340BF800C900015E060035340EE
:100BF9000F434040434002E4F526F527AF40120C6D
:100C0900EF9000027401F0900007F090000CF09052
:090C19000011F0E4900014F02237
:100C22003083055340DF800C900015E06003534091
:100C32000F434020434001E4F526F527AF40120C54
:100C4200EF9000027401F0900007F090000CF09019
:090C52000011F0E4900014F022FE
:100C5B003082055340EF800C900015E06003534049
:100C6B000F434010434008E4F526F527AF40120C24
:100C7B00EF9000027401F0900007F090000CF090E0
:090C8B000011F0E4900014F022C5
:100655007531FF75320D75334A7534FF75350B7578
:1006650036AB753700753800753900753A00753B3E
:1006750000753C00753D00753E00753F007BFF7AB7
:100685000D79B9120A387531FF75320D75335E75FE
:1006950034FF75350B7536E97537007538007539D2
:1006A50000753A00753B00753C00753D00753E00D0
:1006B500753F007BFF7A0D79C2120A387531FF75D7
:1006C500320D7533727534FF75350C7536227537F5
:1006D50000753800753900753A00753B00753C00AA
:1006E500753D00753E00753F007BFF7A0D79CB1295
:1006F5000A387531FF75320D7533867534FF7535DA
:100705000C75365B753700753800753900753A001C
:10071500753B00753C00753D00753E00753F007BDF
:10072500FF7A0D79D4120A387531FF75320E75339B
:100735000575340075350075360075370075380058
:10074500753900753A00753B00753C00753D0075BF
:0E0755003E00753F007BFF7A0D79DD020A3809
:090DE60043B31F53B4E0020655AB
:03000000020AD71A
:0C0AD700787FE4F6D8FD7581D2020B1E7A
:08000300120C94120D1580FB94
:1007CF002060410000000000000000000000000059
:1007DF00000000000000000000000000000000000A
:1007EF0000000000000000000000000000000000FA
:1007FF0000000000000000000000000000000000EA
:10080F0000000000000000000000000000000000D9
:10081F0000000000000000000000000000000000C9
:10082F000000002032A100000000000000000000C6
:10083F0000000000000000000000000000000000A9
:10084F000000000000000000000000000000000099
:08085F00000000000000000091
:100B6300E4F52EF52FF52FE52F75F013A42441F8A6
:100B7300860308E6FA08E64A4B6021E52F75F01371
:100B8300A42441F808E6FA08E6F912064FBF010C5F
:100B9300E52F75F013A42453F8E6422E052FE52F15
:070BA300C3940540C2AF2E10
:010BAA002228
:100A38007F0178A0E6FEC3940540021F2278A0E655
:100A4800FD75F013A42441F8A60308A60208A60120
:100A5800AA32A933ED75F013A42444F8A63108A6E8
:100A68000208A601AA35A936ED75F013A42447F8A3
:100A7800A63408A60208A601AA38A939ED75F0130C
:100A8800A4244AF8A63708A60208A601AA3BA93C4E
:100A9800ED75F013A4244DF8A63A08A60208A6019D
:100AA800AA3EA93FED75F013A42450F8A63D08A668
:100AB8000208A601EFA805088002C333D8FCFFEEA0
:0E0AC80075F013A42453F8A60778A0067F014A
:010AD60022FD
:10000E008F328D33E53375F00AA424A6F806E53356
:10001E0075F00AA424A7F806E5326011E53375F0F1
:10002E000AA424A5F8E532667003020168E533756B
:10003E00F00AA424A4F9C3E7940219E7940050131C
:10004E00E53375F00AA424A3F80806E61870010635
:10005E00020294E53375F00AA424A2F9C3E7942CA6
:10006E0019E79401402DE53375F00AA424AAF8E4AB
:10007E00F6E53375F013A4244DF8860308E6FA0866
:10008E00E64A4B700302014DE53375F013A4244D7F
:10009E00020143E53375F00AA424A2F9C3E79402E2
:1000AE0019E79400500302014DE53375F013A424B3
:1000BE0050F8860308E6FA08E64A4B605CE53375AD
:1000CE00F00AA424AAF8E6B40104E4F68071E5333C
:1000DE0075F00AA424A9F8E6B40126E53375F013E9
:1000EE00A42447F8860308E6FA08E64A4B6012E5B0
:1000FE003375F013A42447F808E6FA08E6F9120659
:10010E004FE53375F00AA424A7F8E4F6E53375F04D
:10011E000AA424A9F876018026E53375F013A424E9
:10012E0047F8860308E6FA08E64A4B6012E533758F
:10013E00F013A42447F808E6FA08E6F912064FE58C
:10014E003375F00AA424A5F8A632E53375F00AA497
:10015E0024A1F8E4F608F6020294E53375F00AA439
:10016E0024A1F80806E618700106E53375F00AA416
:10017E0024A2F9E764021947600302024FE53375C2
:10018E00F00AA424A3F8E4F608F6E53375F013A4F8
:10019E002450F8860308E6FA08E64A4B700302027A
:1001AE0031E53375F00AA424A9F8E664017051E52F
:1001BE003375F00AA424A6F8E6C394325042E53310
:1001CE0075F00AA424AAF87601E53375F00AA42482
:1001DE00A9F8E4F6E53375F00AA424A8F8E4F6E5E8
:1001EE003375F013A42450F8860308E6FA08E64A9D
:1001FE004B7003020294E53375F013A42450807CF7
:10020E00E53375F00AA424AAF8E4F6E53375F00A8E
:10021E00A424A8F87601E53375F00AA424A6F8E420
:10022E00F68063E53375F013A42444F8860308E6DC
:10023E00FA08E64A4B604FE53375F013A424448068
:10024E003BE53375F00AA424A2F9E7642C70041977
:10025E00E764017031E53375F00AA424AAF8E4F6D8
:10026E00E53375F013A4244AF8860308E6FA08E687
:10027E004A4B6012E53375F013A4244AF808E6FAE7
:10028E0008E6F912064FE53375F013A42450F886EC
:10029E000308E6FA08E64A4B7003020347E5337596
:1002AE00F00AA424A8F8E664017040E53375F00A5C
:1002BE00A424A6F8E6C394324031E53375F00AA4BF
:1002CE0024A8F8E4F6E53375F013A42444F8860365
:1002DE0008E6FA08E64A4B6012E53375F013A424DB
:1002EE0044F808E6FA08E6F912064FE53375F00A07
:1002FE00A424A9F8E664017040E53375F00AA4243D
:10030E00A7F8E6C394324031E53375F00AA424A968
:10031E00F8E4F6E53375F013A42447F8860308E6EF
:10032E00FA08E64A4B6012E53375F013A42447F839
:0A033E0008E6FA08E6F912064F225D
:020CC2008F2E73
:100CC400E4F52F753001F531F52FAF2FE530A80786
:100CD400088002C333D8FC552EF531AD2FFF120026
:0A0CE4000E052FE52FC3940540E034
:010CEE0022E3
:080DEF00E4FF120B63020CC2C9
:070DFE0053B13F43B2C022D4
:100AE300020003E493A3F8E493A34003F68001F226
:100AF30008DFF48029E493A3F85407240CC8C33314
:100B0300C4540F4420C8834004F456800146F6DFE2
:100B1300E4800B0102040810204080900763E47E08
:100B2300019360BCA3FF543F30E509541FFEE493D7
:100B3300A360010ECF54C025E060A840B8E493A39E
:100B4300FAE493A3F8E493A3C8C582C8CAC583CAC9
:100B5300F0A3C8C582C8CAC583CADFE9DEE780BE81
:010867000090
:10054300E709F608DFFA8046E709F208DFFA803E9A
:1005530088828C83E709F0A3DFFA8032E309F60887
:10056300DFFA8078E309F208DFFA807088828C83EF
:10057300E309F0A3DFFA806489828A83E0A3F608A3
:10058300DFFA805889828A83E0A3F208DFFA804C7D
:1005930080D280FA80C680D4806980F28033801054
:1005A30080A680EA809A80A880DA80E280CA8033BD
:1005B30089828A83ECFAE493A3C8C582C8CCC58335
:1005C300CCF0A3C8C582C8CCC583CCDFE9DEE78005
:1005D3000D89828A83E493A3F608DFF9ECFAA9F084
:1005E300EDFB2289828A83ECFAE0A3C8C582C8CCDA
:1005F300C583CCF0A3C8C582C8CCC583CCDFEADEF3
:10060300E880DB89828A83E493A3F208DFF980CC54
:1006130088F0EF60010E4E60C388F0ED2402B4044D
:100623000050B9F582EB2402B4040050AF232345F4
:0606330082239005937381
:10063900C5F0F8A3E028F0C5F0F8E582158270024C
:060649001583E038F022E9
:06064F008A838982E47336
:00000001FF
