:100D4D00022C0000022E00000230000002320000D2
:080D5D00023400000236000020
:10178F005389F0438902538EF7758C7B758A7BD210
:06179F00A9D2AFD28C229A
:1017D00053890F438910538E7F758DF5758B95D284
:0417E000ABD28E22D8
:03001B0002188642
:0A188600758DF5758B957513013211
:03000B0002119748
:0B119700C0E0C0D075D000C006C0074B
:1011A200052DE52D7002052C052FE52F7002052E69
:1011B2000531E531700205300537E5377002053635
:1011C200C3E52D9464E52C94004009752C00752D1F
:1011D20000751701C374109533FF74279532FEC34F
:1011E200E52F9FE52E9E400F753223753328752E0D
:1011F20000752F00751801C374109535FF7427957B
:1012020034FEC3E5319FE5309E400F7534237535BA
:0A12120028753000753100751901D0
:09121C00D007D006D0D0D0E0329A
:10184E00804020100402010800000000000000008B
:100D65000115000117000118000119000116000105
:100D750013000114055901030000000000000000E4
:100D8500000000000000000000000000000000005E
:100D950000010800010900040A00000000040E001B
:060DA50000000001120035
:0F00540053B33F43B4C053ACFE43AD01D2B0220F
:0718CF0043B10F53B2F022F8
:100B480085381A781B7C007D007BFF7A1879567EE1
:100B5800007F04120799E4A28133F51BA280E433D5
:100B6800F51CA284E433F51DA283E433F51E90013D
:070B780019E07003020C41BB
:100B7F00900105E06003020D4C90010AE060030252
:100B8F000D4C90010FE06003020D4C900114E060DA
:100B9F0003020D4CE4FF740A2FF8E6FE741B2FF8C6
:100BAF00E6FD6E6008EDB40104EF04F508E6FE748F
:100BBF000A2FF8A6060FBF04DDE509650860258535
:100BCF000809E4FFEF2401FDE433FCE508B5050E49
:100BDF00E4B5040A53380FEF90184E9342380FBF05
:100BEF0004E2802D741A2508F8E66013E5089018C2
:100BFF004D93FE55386003020D41EE42388012E5E9
:100C0F000890184D93FE55387003020D41EEF452C3
:100C1F00389001057401F090010AF090010FF090E7
:0F0C2F000114F0E4900117F090011AF07514050C
:100C3E00020D41E4FFEF75F005A42407F582E434BC
:100C4E0001F583E064016003020D0FEF75F005A45A
:100C5E002403F582E43401F583E475F001120826CD
:100C6E00EF90184E9355387003020D0FEF75F00587
:100C7E00A42406F582E43401F583E07023EF75F0C9
:100C8E0005A42403F582E43401F583E4F0A3F0EF28
:100C9E0075F005A42406F582E43401F5837401F0A1
:100CAE00EF75F005A42403F582E43401F583E0FC2E
:100CBE00A3E0C39407EC94004047EF75F005A4241D
:100CCE0003F582E43401F583E4F0A3F0EF75F0054B
:100CDE00A42406F582E43401F583E4F0EF90184E77
:100CEE0093F45238EF75F005A42405F582E434012F
:100CFE00F5837401F0E4900117F090011AF0751469
:100D0E0005EF75F005A42405F582E43401F583E0C2
:100D1E007018741B2FF8E66009EF90184E93423846
:100D2E008008EF90184E93F452380FEF640460036E
:0E0D3E00020C43E538651A6005AF381215BA8D
:010D4C002284
:100FDF00E4F51A85381B781C7C00FD7BFF7A1879A5
:100FEF005AFE7F04120799900117E004F0E0651490
:100FFF00600302108DA28133F51CA280E433F51D2E
:10100F00A284E433F51EA283E433F51FE4F51AE559
:10101F001A75F005A42405F582E43401F583E06028
:10102F004E741C251AF8E6FF7E00C37407951AFD4F
:10103F00EFA805088005C333CE33CED8F9FFE51AE4
:10104F0090184E9355386F7001EE6012740E251A7A
:10105F00F87601E51A90185293F452388011E51A78
:10106F0075F005A42405F582E43401F583E4F00559
:10107F001AE51AB40499E538651B6042803BE51404
:10108F002401FFE433FE900117E0C39FEE6480F864
:10109F007480984029E4F0F51A740E251AF8E6B416
:1010AF00010AE51A901852934238E4F6051AE51A28
:0E10BF00B404E6E538651B6005AF381215BABB
:0110CD002200
:1016C700E5176006E4F517120003E5196006E4F56F
:0F16D70019120B48E5186006E4F518120FDF2210
:10155A00E516602E900119E090011CF0900107E059
:10156A0090011DF090010CE090011EF0900111E035
:10157A0090011FF0900116E0900120F012000EE495
:03158A00F5162231
:10160500051290011BE0600DE512C394644011E4DE
:10161500F512B28622900119E06003D28622C286B5
:0116250022A2
:0E185E00E5136009E4F5131208801216052246
:1012B10012162690011CE0900119F090011DE0909A
:1012C1000107F090011EE090010CF090011FE090E9
:1012D1000111F0900120E0900116F0900119E0F465
:1012E100601C900107E0F4601590010CE0F4600EC1
:1012F100900111E0F46007900116E0B4FF15E4904D
:101301000119F0900107F090010CF0900111F0909B
:0F1311000116F0900119E06003D28622C28622F5
:1016E6001212B11200547F0F1215BA1218D6121820
:0D16F600C61218CF12187A1217D002178FE3
:1015BA00E4FEC2AFEFC4131313540124FF92B0EF39
:1015CA0025E0FFC29600D2960EBE08E8C29700D266
:0515DA0097C2B0D2AF82
:0115DF0022E9
:030DAB0001380FFD
:091890002093037F01227F002256
:091899002092037F01227F00224E
:0918A2002091037F01227F002246
:0918AB002090037F01227F00223E
:0918B4002094037F01227F002231
:1017030090011BE060079001187401F022E5384452
:0C1713000460085338FBAF381215BA22EE
:10171F0090011BE060079001187402F022E5384435
:0C172F000260085338FDAF381215BA22D2
:10173B0090011BE060079001187403F022E5384418
:0C174B000160085338FEAF381215BA22B6
:1017570090011BE060079001187404F022E53844FB
:0C1767000860085338F7AF381215BA229A
:0918BD0090011BE06002E4F0223E
:1013E70090011BE0704430810553387F800C9001D9
:1013F70019E0600353380F433880433804AF38127D
:1014070015BA90011AE0B40107E4F075140A8003D5
:101417007514059001057401F090010AF090010F11
:0B142700F0900114F0E4900117F02297
:1014320090011BE070443080055338BF800C90014E
:1014420019E0600353380F433840433802AF381273
:1014520015BA90011AE0B40107E4F075140A80038A
:101462007514059001057401F090010AF090010FC6
:0B147200F0900114F0E4900117F0224C
:10147D0090011BE070443084055338DF800C9001DF
:10148D0019E0600353380F433820433801AF381249
:10149D0015BA90011AE0B40107E4F075140A80033F
:1014AD007514059001057401F090010AF090010F7B
:0B14BD00F0900114F0E4900117F02201
:1014C80090011BE070443083055338EF800C900185
:1014D80019E0600353380F433810433808AF381207
:1014E80015BA90011AE0B40107E4F075140A8003F4
:1014F8007514059001057401F090010AF090010F30
:0B150800F0900114F0E4900117F022B5
:1017BB0090011BE06003E4F02290011B7401F0E444
:0517CB00900118F0225E
:10180A0043380475140A90011A7401F0AF380215AE
:01181A00BA13
:10181B0043380275140A90011A7401F0AF3802159F
:01182B00BA02
:10182C0043380175140A90011A7401F0AF3802158F
:01183C00BAF1
:10183D0043380875140A90011A7401F0AF38021577
:01184D00BAE0
:10164700900107E0B40104E4F080069001077401FB
:10165700F09001057401F0E4900117F0751601226E
:1016670090010CE0B40104E4F0800690010C7401D1
:10167700F090010A7401F0E4900117F07516012249
:10168700900111E0B40104E4F080069001117401A7
:10169700F090010F7401F0E4900117F07516012224
:1016A700900116E0B40104E4F0800690011674017D
:1016B700F09001147401F0E4900117F075160122FF
:10001E00900119E0700604F0D2868007E490011971
:10002E00F0C28653380FAF381215BA90010574011D
:10003E00F090010AF090010FF0900114F0E490019D
:06004E0017F075160122F7
:100ED100751DFF751E17751F037520FF752113758D
:100EE10022E77523007524007525007526FF7527F7
:100EF1001875280A7529FF752A16752B477BFF7A05
:100F01001879901210CE751DFF751E17751F1F756C
:100F110020FF752114752232752300752400752573
:100F2100007526FF75271875281B7529FF752A1668
:100F3100752B677BFF7A1879991210CE751DFF7595
:100F41001E17751F3B7520FF75211475227D7523B2
:100F5100007524007525007526FF75271875282C46
:100F61007529FF752A16752B877BFF7A1879A212CE
:100F710010CE751DFF751E17751F577520FF752142
:100F8100147522C87523007524007525007526FF88
:100F910075271875283D7529FF752A16752BA77BAE
:100FA100FF7A1879AB1210CE751D00751E00751FE2
:100FB100007520FF7521187522BD7523FF75241753
:100FC1007525BB7526007527007528007529FF75E5
:0E0FD1002A00752B1E7BFF7A1879B40210CE11
:0918C60043B31F53B4E0020ED13C
:03000000021225C4
:0C122500787FE4F6D8FD75813902126C68
:0E186C001216E61216C712185E12155A80F5F3
:100DAE006060000000000000000000000000000075
:100DBE000000000000000000000000000000000025
:100DCE000000000000000000000000000000000015
:100DDE000000000000000000000000000000000005
:100DEE0000000000000000000000000000000000F5
:100DFE0000000000000000000000000000000000E5
:100E0E0000000000603200600000000000000000E2
:100E1E0000000000000000000000000000000000C4
:100E2E0000000000000000000000000000000000B4
:0A0E3E0000000000000000000000AA
:10138B00E4F51AF51BF51BE51B75F013A42400F50A
:10139B0082E43400F583E0FBA3E0FAA3E0F9EA4929
:1013AB004B602DE51B75F013A42400F582E434008B
:1013BB00F583A3E0FAA3E0F912087ABF0112E51B4B
:1013CB0075F013A42412F582E43400F583E0421A7D
:0B13DB00051BE51BC3940540AEAF1AD4
:0113E60022E4
:1010CE007F0190005FE0FEC3940540021F22900056
:1010DE005FE0FD75F013A42400F582E43400F5837F
:1010EE00EBF0A3EAF0A3E9F0ED75F013A42403F5F9
:1010FE0082E43400F583E51DF0A3E51EF0A3E51FA1
:10110E00F0ED75F013A42406F582E43400F583E5C2
:10111E0020F0A3E521F0A3E522F0ED75F013A42451
:10112E0009F582E43400F583E523F0A3E524F0A36A
:10113E00E525F0ED75F013A4240CF582E43400F5EA
:10114E0083E526F0A3E527F0A3E528F0ED75F0136F
:10115E00A4240FF582E43400F583E529F0A3E52AF3
:10116E00F0A3E52BF0EFA805088002C333D8FCFFEF
:10117E00EE75F013A42412F582E43400F583EFF03B
:08118E0090005FE004F07F0116
:011196002236
:100066008F1E8D1FE51F75F00AA42465F582E43402
:1000760000F583E004F0E51F75F00AA42466F58216
:10008600E43400F583E004F0E51E6017E51F75F023
:100096000AA42464F582E43400F583E0651E700347
:1000A600020264E51F75F00AA42462F582E43400B6
:1000B600F583E0FEA3E0C39402EE94005019E51F19
:1000C60075F00AA42462F582E43400F583E475F041
:1000D60001120826020416E51F75F00AA42460F52D
:1000E60082E43400F583E0FEA3E0C3942CEE940191
:1000F6004040E51F75F00AA42469F582E43400F552
:1001060083E4F0E51F75F013A4240CF582E43400B3
:10011600F583E0FBA3E0FAA3E0F9EA494B7003029A
:10012600023CE51F75F013A4240CF582E4340002AA
:100136000231E51F75F00AA42460F582E43400F567
:1001460083E0FEA3E0C39402EE9400500302023C57
:10015600E51F75F013A4240FF582E43400F583E05F
:10016600FBA3E0FAA3E0F9EA494B7003020208E5B3
:100176001F75F00AA42469F582E43400F583E0B41F
:100186000114E51F75F00AA42469F582E43400F52C
:1001960083E4F002023CE51F75F00AA42468F582A8
:1001A600E43400F583E0B40134E51F75F013A424AC
:1001B60006F582E43400F583E0FBA3E0FAA3E0F958
:1001C600EA494B6018E51F75F013A42406F582E48E
:1001D6003400F583A3E0FAA3E0F912087AE51F7567
:1001E600F00AA42466F582E43400F583E4F0E51F02
:1001F60075F00AA42468F582E43400F5837401F0EE
:100206008034E51F75F013A42406F582E43400F566
:1002160083E0FBA3E0FAA3E0F9EA494B6018E51F87
:1002260075F013A42406F582E43400F583A3E0FAFE
:10023600A3E0F912087AE51F75F00AA42464F58292
:10024600E43400F583E51EF0E51F75F00AA424608A
:10025600F582E43400F583E4F0A3F0020416E51F0A
:1002660075F00AA42460F582E43400F583E475F0A1
:1002760001120826E51F75F00AA42460F582E4340D
:1002860000F583E0FEA3E064024E60030203B5E5D9
:100296001F75F00AA42462F582E43400F583E4F0C5
:1002A600A3F0E51F75F013A4240FF582E43400F5DE
:1002B60083E0FBA3E0FAA3E0F9EA494B70030203EB
:1002C6008AE51F75F00AA42468F582E43400F583F4
:1002D600E064017078E51F75F00AA42465F582E4F0
:1002E6003400F583E0C3941E5063E51F75F00AA43D
:1002F6002469F582E43400F5837401F0E51F75F096
:100306000AA42468F582E43400F583E4F0E51F7559
:10031600F00AA42467F582E43400F583E4F0E51FCF
:1003260075F013A4240FF582E43400F583E0FBA3F3
:10033600E0FAA3E0F9EA494B7003020416E51F75DB
:10034600F013A4240FF582E4340002040BE51F75B4
:10035600F00AA42469F582E43400F583E4F0E51F8D
:1003660075F00AA42467F582E43400F5837401F07D
:10037600E51F75F00AA42465F582E43400F583E4EC
:10038600F0020416E51F75F013A42403F582E43485
:1003960000F583E0FBA3E0FAA3E0F9EA494B6070BD
:1003A600E51F75F013A42403F582E434008056E5B6
:1003B6001F75F00AA42460F582E43400F583E0FE9C
:1003C600A3E0642C7003EE64017045E51F75F00A26
:1003D600A42469F582E43400F583E4F0E51F75F0A2
:1003E60013A42409F582E43400F583E0FBA3E0FAC4
:1003F600A3E0F9EA494B6018E51F75F013A4240938
:10040600F582E43400F583A3E0FAA3E0F912087A52
:10041600E51F75F013A4240FF582E43400F583E09C
:10042600FBA3E0FAA3E0F9EA494B7003020511E5E4
:100436001F75F00AA42467F582E43400F583E064AE
:1004460001705AE51F75F00AA42465F582E43400AC
:10045600F583E0C3941E4045E51F75F00AA42467A2
:10046600F582E43400F583E4F0E51F75F013A42467
:1004760003F582E43400F583E0FBA3E0FAA3E0F998
:10048600EA494B6018E51F75F013A42403F582E4CE
:100496003400F583A3E0FAA3E0F912087AE51F75A4
:1004A600F00AA42468F582E43400F583E064017060
:1004B6005AE51F75F00AA42466F582E43400F58334
:1004C600E0C3941E4045E51F75F00AA42468F58232
:1004D600E43400F583E4F0E51F75F013A42406F573
:1004E60082E43400F583E0FBA3E0FAA3E0F9EA49ED
:1004F6004B6018E51F75F013A42406F582E434005A
:0C050600F583A3E0FAA3E0F912087A22C2
:02158D008F1AB3
:10158F00E4F51B751C01F51DF51BAF1BE51CA8072A
:10159F00088002C333D8FC551AF51DAD1BFF12008E
:0A15AF0066051BE51BC3940540E030
:0115B900220F
:08000300E4FF12138B02158DBE
:0718D60053B13F43B2C022F1
:0D0E48004A011CFF00000000000000000037
:1017E40075C7AA75C755439F0175C7AA75C75543E1
:0317F400A501222A
:1017A50075AF2275A738E4F5A675AEFF75C7AA759E
:0617B500C75543A4012208
:1017F70075C7AA75C75553A5FE75C7AA75C75553AB
:031807009FFE221F
:1015E000E4FF75AF2175A7388FA6741C2FF582E430
:1015F0003401F583E0F5AE75C7AA75C75543A4015C
:041600000FBF0ADE30
:0116040022C3
:10162600E4FDED2400FFE434388F82F583E493FF74
:10163600741C2DF582E43401F583EFF00DBD0AE24A
:011646002281
:0C000E001217E41217A51215E00217F7F4
:100E55006064009200000000000000000000000037
:100E6500000000000000000000000000000000007D
:100E7500000000000000000000000000000000006D
:100E8500000000000000000000000000000000005D
:100E9500000000000000000000000000000000004D
:100EA500000000000000000000000000000000003D
:100EB50000000000000000004D00F60000000000EA
:0B0EC5000000000000000000013900E8
:04132000AB07AA0667
:10132400900093E07019C3EB94FAEA9400405730AC
:101334009554A3EAF0A3EBF09000937401F0227C9F
:10134400007D05AF03AE021207BFD3900095E09F66
:10135400900094E09E4016E53925E02496F582E459
:101364003400F583EAF0A3EBF005398007E490003C
:1013740093F0F539E539C39430400BE4F539900026
:061384009204F0E4A3F066
:01138A002240
:10088000E4F51DF51CF51BF51AF51EF51FF520F511
:1008900021F522F523F524F525F526F527F528F58C
:1008A00029900092E064016003020B39F09001008E
:1008B000E0702D900096E0FFA3E09000F8CFF0A349
:1008C000EFF0900098E0FFA3E09000FACFF0A3EFE4
:1008D000F0900094E0FFA3E09000F6CFF0A3EFF0DB
:1008E0009000FAE0FEA3E0FF9000F9E02FF51F90E2
:1008F00000F8E03EF51EFEAF1F7C007D051207D11B
:100900008E228F239000F6E0FEA3E0FF7C007D05A1
:100910001207D18E248F25E4FBEBC39430400302F1
:100920000A6DEB25E02498F582E43400F583E0FEBF
:10093000A3E0FFEB25E02496F582E43400F583E0A4
:10094000FCA3E0FD2FF521EC3EF520E51F2523FF5C
:10095000E51E3522FED3E5219FE5209E5014C3E518
:100960001F9523FFE51E9522FEC3E5219FE5209EEE
:10097000500F900102E004F07006900101E004F0D5
:1009800022EB25E02498F582E43400F583E0FEA311
:10099000E0FFD3ED9FEC9E4050AF1DAE1CAD1BACF5
:1009A0001A780112085BEF4401F51DEEF51CEDF518
:1009B0001BECF51AEB25E02498F582E43400F5836E
:1009C000E0FEA3E02527F527EE3526F526EB25E00A
:1009D0002496F582E43400F583E0FEA3E02529F5B2
:1009E00029EE3528F528020A68EB25E02498F582DF
:1009F000E43400F583E0FEA3E0FFEB25E02496F568
:100A000082E43400F583E0FCA3E0C39FEC9E5049F0
:100A1000AF1DAE1CAD1BAC1A780112085B8F1D8E8A
:100A20001C8D1B8C1AEB25E02498F582E43400F52C
:100A300083E0FEA3E02529F529EE3528F528EB25EE
:100A4000E02496F582E43400F583E0FEA3E0252758
:100A5000F527EE3526F526800F900102E004F070B0
:100A600006900101E004F0220B0B0209199000949A
:100A7000E0FEA3E0FF2523FDE5223EFC9000F6E02A
:100A8000FAA3E0FBC39DEA9C502BC3EF9523FFEE36
:100A90009522FED3EB9FEA9E401B9000FCE0FCA356
:100AA000E0FDA3E0FEA3E0FFAB1DAA1CA91BA81A52
:100AB00012084A6078900094E0FFA3E09000F6CF1F
:100AC000F0A3EFF0AF1DAE1CAD1BAC1A9000FC12F2
:100AD000086E9001007401F0E4A3F0A3F0AE26AF1D
:100AE00027FC7D181207D1AC06AD07E412060FE40F
:100AF000FBFAF9783F1205191206489000FAEEF059
:100B0000A3EFF0AE28AF297C007D181207D1AC0608
:100B1000AD07E412060FE4FBFAF9783F120519124B
:100B200006489000F8EEF0A3EFF0B28722900100A3
:100B3000E004F0E4A3F0A3F022900102E004F070DE
:070B400006900101E004F042
:010B4700228B
:1017730053C8FE53C90F43C9D043C908439210430A
:0C17830093035393FE53F1F043F108224E
:0718DD0053B3DF53B4DF2217
:0C187A001218DD121773439B84D2CA229F
:0300630002151370
:10151300C0E0C0F0C083C082C0D075D000C000C09E
:0B15230002C003C004C005C006C007E2
:10152E00E59230E00E5392FEAFE5EFFEADE4EDFF37
:03153E0012132065
:10154100D007D006D005D004D003D002D000D0D02F
:09155100D082D083D0F0D0E0324A
:100512000206B4E86480F8E933E83360110460F05D
:10052200ED33EC337009E8FCE9FDEAFEEBFF22044F
:1005320060DED3EB9FEA9EE99DE8C2E78CF0C2F74A
:1005420095F0400CE8CCF8E9CDF9EACEFAEBCFFB16
:1005520012067F85D0F05804700320D5B3E80470EA
:10056200075002B2D50206BE92D5EC0460F7E4CC85
:10057200C0E0C398F8603B94186008400DD0E0FBDF
:10058200020696E4FBFAC9FC8028E830E406E4C9D6
:10059200FBE4CAFCE830E305E4C9CACBFCE8540733
:1005A2006010F8C3E913F9EA13FAEB13FBEC13FC3E
:1005B200D8F130F52FC3E49CFCEF9BFFEE9AFEEDE1
:1005C20099FDD0E0FBEF4E4D4C701222DB03020688
:1005D200BBEC2CFCEF33FFEE33FEED33FDED30E7E9
:1005E200EB020696EF2BFFEE3AFEED39FDD0E0FB73
:1005F20050130BBB00030206BEED13FDEE13FEEF1C
:0806020013FFEC13FC02069645
:10060A0075F020800E75F010800575F0087D007E6B
:10061A00007F003392D530D50312083CEC334010EA
:10062A00EF33FFEE33FEED33FDEC33FCD5F0ED2274
:0E063A00E5F0247EA2D513CC92E7CDCEFF22B0
:10064800EDD2E7CD33EC3392D524814006E4FFFEAA
:10065800FDFC22FCE4CFCECDCC24E0501174FF8009
:10066800EDC3CC13CCCD13CDCE13CECF13CF0470A6
:07067800F030D5DE02083C62
:10067F00E9D2E7C933E833F892D5EDD2E7CD33ECC1
:07068F0033FC5002B2D5223A
:10069600EC30E7100FBF000C0EBE00080DBD0004C5
:1006A6000BEB6014A2D5EB13FCED92E7FD2274FF71
:1006B600FCFDFEFF22E480F8A2D574FF13FC7D80CA
:0306C600E480EFDE
:1012310002186CE493A3F8E493A34003F68001F24F
:1012410008DFF48029E493A3F85407240CC8C333BE
:10125100C4540F4420C8834004F456800146F6DF8D
:10126100E4800B0102040810204080900D4DE47EC3
:10127100019360BCA3FF543F30E509541FFEE49382
:10128100A360010ECF54C025E060A840B8E493A349
:10129100FAE493A3F8E493A3C8C582C8CAC583CA74
:1012A100F0A3C8C582C8CAC583CADFE9DEE780BE2C
:010ED0000021
:1006C900E709F608DFFA8046E709F208DFFA803E13
:1006D90088828C83E709F0A3DFFA8032E309F60800
:1006E900DFFA8078E309F208DFFA807088828C8368
:1006F900E309F0A3DFFA806489828A83E0A3F6081C
:10070900DFFA805889828A83E0A3F208DFFA804CF5
:1007190080D280FA80C680D4806980F280338010CC
:1007290080A680EA809A80A880DA80E280CA803335
:1007390089828A83ECFAE493A3C8C582C8CCC583AD
:10074900CCF0A3C8C582C8CCC583CCDFE9DEE7807D
:100759000D89828A83E493A3F608DFF9ECFAA9F0FC
:10076900EDFB2289828A83ECFAE0A3C8C582C8CC52
:10077900C583CCF0A3C8C582C8CCC583CCDFEADE6B
:10078900E880DB89828A83E493A3F208DFF980CCCD
:1007990088F0EF60010E4E60C388F0ED2402B404C6
:1007A9000050B9F582EB2402B4040050AF2323456D
:0607B90082239007197372
:1007BF00EF8DF0A4A8F0CF8CF0A428CE8DF0A42E4E
:0207CF00FE2208
:1007D100BC000BBE0029EF8DF084FFADF022E4CC0C
:1007E100F875F008EF2FFFEE33FEEC33FCEE9DECD5
:1007F100984005FCEE9DFE0FD5F0E9E4CEFD22ED1B
:10080100F8F5F0EE8420D21CFEADF075F008EF2F64
:10081100FFED33FD4007985006D5F0F222C398FD55
:050821000FD5F0EA22F2
:10082600C5F0F8A3E028F0C5F0F8E582158270025D
:060836001583E038F022FA
:0E083C00C3E49FFFE49EFEE49DFDE49CFC22CD
:10084A00EB9FF5F0EA9E42F0E99D42F0E89C45F004
:01085A00227B
:10085B00E8600FEFC333FFEE33FEED33FDEC33FCFB
:03086B00D8F1229F
:0C086E00ECF0A3EDF0A3EEF0A3EFF022FD
:06087A008A838982E47309
:00000001FF
