:100B7C0002080000020A0000020C0000020E000035
:100B8C000210000002120000021400000216000005
:080B9C0002180000021A00001B
:10163C005389F0438902538EF7758C7B758A7BD264
:06164C00A9D2AFD28C22EE
:1016520053890F438910538E7F758DF5758B95D203
:04166200ABD28E2257
:03001B0002171EAB
:0A171E00758DF5758B95752B013262
:03000B0002103FA1
:0B103F00C0E0C0D075D000C006C007A4
:10104A000509E50970020508050BE50B7002050A9A
:10105A00050DE50D7002050C050FE50F7002050E72
:10106A000511E51170020510051BE51B7002051A32
:10107A00C3E5099464E508940040097508007509F8
:10108A0000753001C374109513FF74279512FEC3BF
:10109A00E50B9FE50A9E400F751223751328750A02
:1010AA0000750B00753201C374109515FF742795EE
:1010BA0014FEC3E50D9FE50C9E400F7514237515AC
:1010CA0028750C00750D00753301C374109517FF50
:1010DA0074279516FEC3E50F9FE50E9E400F751601
:1010EA00267517AC750E00750F00753101C37410A3
:1010FA009519FF74279518FEC3E5119FE5109E40C8
:10110A000F7518267519AC751000751100752D012B
:09111A00D007D006D0D0D0E0329D
:1016AA008040201004020108000000000000000031
:100BA400012E00013000013200013100012D00014D
:100BB4003300012F00012B00012C055700640000B5
:100BC4000000000000000000000000000000000021
:100BD40000000000000121000122000423000000A5
:070BE40000042700000000DF
:0F16BA0053B33F43B4C053ACFE43AD01D2B02293
:0717660043B10F53B2F02262
:10097700851C3478357C007D007BFF7A1679B27E42
:10098700007F041202EDE4A28133F535A280E4333F
:10099700F536A284E433F537A283E433F5389000C3
:0709A70079E07003020A7001
:1009AE00900066E06003020B7B90006BE060030238
:1009BE000B7B900070E06003020B7B900075E06093
:1009CE0003020B7BE4FF74232FF8E6FE74352FF839
:1009DE00E6FD6E6008EDB40104EF04F521E6FE7449
:1009EE00232FF8A6060FBF04DDE5226521602585BD
:1009FE002122E4FFEF2401FDE433FCE521B5050ED1
:100A0E00E4B5040A531C0FEF9016AA93421C0FBFB5
:100A1E0004E2802D74342521F8E66013E52190164A
:100A2E00A993FE551C6003020B70EE421C8012E56A
:100A3E00219016A993FE551C7003020B70EEF45212
:100A4E001C9000667401F090006BF0900070F090B6
:0F0A5E000075F0E4900078F090007AF0752C05A8
:100A6D00020B70E4FFEF75F005A42468F582E43401
:100A7D0000F583E064016003020B3EEF75F005A401
:100A8D002464F582E43400F583E475F00112037AF1
:100A9D00EF9016AA93551C7003020B3EEF75F005EF
:100AAD00A42467F582E43400F583E07023EF75F03C
:100ABD0005A42464F582E43400F583E4F0A3F0EF9B
:100ACD0075F005A42467F582E43400F5837401F014
:100ADD00EF75F005A42464F582E43400F583E0FCA1
:100AED00A3E0C39407EC94004047EF75F005A424F0
:100AFD0064F582E43400F583E4F0A3F0EF75F005BE
:100B0D00A42467F582E43400F583E4F0EF9016AA8F
:100B1D0093F4521CEF75F005A42466F582E43400BD
:100B2D00F5837401F0E4900078F090007AF0752C64
:100B3D0005EF75F005A42466F582E43400F583E035
:100B4D00701874352FF8E66009EF9016AA93421CC1
:100B5D008008EF9016AA93F4521C0FEF6404600303
:0E0B6D00020A72E51C65346005AF1C12153ECD
:010B7B002257
:100F5000E4F534851C3578367C00FD7BFF7A167904
:100F6000B6FE7F041202ED900078E004F0E0652CFC
:100F70006003020FFEA28133F536A280E433F53719
:100F8000A284E433F538A283E433F539E4F534E59B
:100F90003475F005A42466F582E43400F583E0603E
:100FA0004E74362534F8E6FF7E00C374079534FD91
:100FB000EFA805088005C333CE33CED8F9FFE5345A
:100FC0009016AA93551C6F7001EE60127427253499
:100FD000F87601E5349016AE93F4521C8011E53496
:100FE00075F005A42466F582E43400F583E4F00589
:100FF00034E534B40499E51C65356042803BE52C4A
:101000002401FFE433FE900078E0C39FEE6480F893
:101010007480984029E4F0F53474272534F8E6B458
:10102000010AE5349016AE93421CE4F60534E5342B
:0E103000B404E6E51C65356005AF1C12153EE4
:01103E00228F
:1015E400E5306006E4F530120003E5336006E4F507
:0F15F40033120977E5326006E4F532120F502208
:10149700E52F603FE4F52F900079E0FD7F817E38EE
:1014A700120D01900068E0FD7F827E38120D0190D9
:1014B700006DE0FD7F837E38120D01900072E0FD24
:1014C7007F847E38120D01900077E0FD7F857E389E
:0414D700120D0122CF
:0B171300E52B6006E4F52B1207022214
:10124E007F817E3812175E900079EFF07F827E38B4
:10125E0012175E900068EFF07F837E3812175E9053
:10126E00006DEFF07F847E3812175E900072EFF003
:10127E007F857E3812175E900077EFF0900079E050
:10128E00F4601C900068E0F4601590006DE0F4606E
:10129E000E900072E0F46007900077E0B4FF15E462
:1012AE00900079F0900068F090006DF0900072F070
:1012BE00900077F0900079E06003D28622C28622F9
:1016030012124E1216BA7F0F12153E12176D1217D1
:0D1613005512176612000E12165202163CF8
:10153E00E4FEC2AFEFC4131313540124FF92B0EFB5
:10154E0025E0FFC29600D2960EBE08E8C29700D2E2
:05155E0097C2B0D2AFFE
:011563002265
:030BEB00011C0FDB
:091728002093037F01227F0022BF
:091731002092037F01227F0022B7
:09173A002091037F01227F0022AF
:091743002090037F01227F0022A7
:09174C002094037F01227F00229A
:0F16C900E51C44046008531CFBAF1C12153E22A5
:0F16D800E51C44026008531CFDAF1C12153E2296
:0F16E700E51C44016008531CFEAF1C12153E2287
:0F16F600E51C44086008531CF7AF1C12153E2278
:10001E00308105531C7F800C900079E06003531CE7
:10002E000F431C80431C04AF1C12153E90007AE057
:10003E00B40107E4F0752C0A8003752C0590006658
:10004E007401F090006BF0900070F0900075F0E489
:05005E00900078F02283
:1013C800308005531CBF800C900079E06003531CEB
:1013D8000F431C40431C02AF1C12153E90007AE0DC
:1013E800B40107E4F0752C0A8003752C059000669B
:1013F8007401F090006BF0900070F0900075F0E4CC
:05140800900078F022C5
:10140D00308405531CDF800C900079E06003531C81
:10141D000F431C20431C01AF1C12153E90007AE0B7
:10142D00B40107E4F0752C0A8003752C0590006655
:10143D007401F090006BF0900070F0900075F0E486
:05144D00900078F02280
:10145200308305531CEF800C900079E06003531C2D
:101462000F431C10431C08AF1C12153E90007AE07B
:10147200B40107E4F0752C0A8003752C0590006610
:101482007401F090006BF0900070F0900075F0E441
:05149200900078F0223B
:10166600431C04752C0A90007A7401F0AF1C021515
:011676003E35
:10167700431C02752C0A90007A7401F0AF1C021506
:011687003E24
:10168800431C01752C0A90007A7401F0AF1C0215F6
:011698003E13
:10169900431C08752C0A90007A7401F0AF1C0215DE
:0116A9003E02
:10156400900068E0B40104E4F0800690006874011F
:10157400F09000667401F0E4900078F0752F012279
:1015840090006DE0B40104E4F0800690006D7401F5
:10159400F090006B7401F0E4900078F0752F012254
:1015A400900072E0B40104E4F080069000727401CB
:1015B400F09000707401F0E4900078F0752F01222F
:1015C400900077E0B40104E4F080069000777401A1
:1015D400F09000757401F0E4900078F0752F01220A
:1014DB00900079E0700604F0D2868007E4900079E2
:1014EB00F0C286531C0FAF1C12153E9000667401A0
:1014FB00F090006BF0900070F0900075F0E49000AD
:06150B0078F0752F0122AB
:100E42007537FF7538167539C9753AFF753B0075E8
:100E52003C1E753D00753E00753F007540FF7541B3
:100E6200167542667543FF7544157545647BFF7AB6
:100E72001779281211237537FF7538167539D87509
:100E82003AFF753B13753CC8753D00753E00753FD2
:100E9200007540FF7541167542777543FF7544151D
:100EA2007545847BFF7A1779311211237537FF75E7
:100EB20038167539E7753AFF753B14753C0D753D6B
:100EC20000753E00753F007540FF754116754288FA
:100ED2007543FF7544157545A47BFF7A17793A125D
:100EE20011237537FF7538167539F6753AFF753B5C
:100EF20014753C52753D00753E00753F007540FF0C
:100F02007541167542997543FF7544157545C47B45
:100F1200FF7A177943121123753700753800753936
:100F220000753A00753B00753C00753D00753E004A
:100F3200753F007540007541007542007543FF75AD
:0E0F420044147545DB7BFF7A17794C021123AE
:0917550043B31F53B4E0020E423D
:030000000211C228
:0C11C200787FE4F6D8FD7581E502120983
:0E1705001216031215E412171312149780F532
:100BEE002060540000000000000000000000000023
:100BFE0000000000000000000000000000000000E7
:100C0E0000000000000000000000000000000000D6
:100C1E0000000000000000000000000000000000C6
:100C2E0000000000000000000000000000000000B6
:100C3E0000000000000000000000000000000000A6
:100C4E000000002032B40000000000000000000090
:100C5E000000000000000000000000000000000086
:100C6E000000000000000000000000000000000076
:080C7E0000000000000000006E
:10133900E4F534F535F535E53575F013A42454F89D
:10134900860308E6FA08E64A4B6021E53575F0138D
:10135900A42454F808E6FA08E6F91203C2BF010CFE
:10136900E53575F013A42466F8E642340535E5350C
:07137900C3940540C2AF342C
:01138000224A
:101123007F0178B3E6FEC3940540021F2278B3E63D
:10113300FD75F013A42454F8A60308A60208A6011B
:10114300AA38A939ED75F013A42457F8A63708A6D1
:101153000208A601AA3BA93CED75F013A4245AF892
:10116300A63A08A60208A601AA3EA93FED75F01308
:10117300A4245DF8A63D08A60208A601AA41A94237
:10118300ED75F013A42460F8A64008A60208A60192
:10119300AA44A945ED75F013A42463F8A64308A651
:1011A3000208A601EFA805088002C333D8FCFFEEAE
:0E11B30075F013A42466F8A60778B3067F0132
:0111C100220B
:1003C8008F388D39E53975F00AA424B9F806E5396E
:1003D80075F00AA424BAF806E5386011E53975F015
:1003E8000AA424B8F8E538667003020522E53975D1
:1003F800F00AA424B7F9C3E7940219E7940050134C
:10040800E53975F00AA424B6F80806E6187001065E
:1004180002064EE53975F00AA424B5F9C3E7942C11
:1004280019E79401402DE53975F00AA424BDF8E4D4
:10043800F6E53975F013A42460F8860308E6FA088F
:10044800E64A4B7003020507E53975F013A42460EA
:100458000204FDE53975F00AA424B5F9C3E794024E
:1004680019E794005003020507E53975F013A42431
:1004780063F8860308E6FA08E64A4B605CE53975D6
:10048800F00AA424BDF8E6B40104E4F68071E53965
:1004980075F00AA424BCF8E6B40126E53975F01312
:1004A800A4245AF8860308E6FA08E64A4B6012E5DF
:1004B8003975F013A4245AF808E6FA08E6F9120385
:1004C800C2E53975F00AA424BAF8E4F6E53975F0FE
:1004D8000AA424BCF876018026E53975F013A42413
:1004E8005AF8860308E6FA08E64A4B6012E53975B9
:1004F800F013A4245AF808E6FA08E6F91203C2E54C
:100508003975F00AA424B8F8A638E53975F00AA4B4
:1005180024B4F8E4F608F602064EE53975F00AA4A4
:1005280024B4F80806E618700106E53975F00AA43F
:1005380024B5F9E7640219476003020609E539752D
:10054800F00AA424B6F8E4F608F6E53975F013A421
:100558002463F8860308E6FA08E64A4B70030205A6
:10056800EBE53975F00AA424BCF8E664017051E59E
:100578003975F00AA424B9F8E6C3941E5042E53947
:1005880075F00AA424BDF87601E53975F00AA424AB
:10059800BCF8E4F6E53975F00AA424BBF8E4F6E5FE
:1005A8003975F013A42463F8860308E6FA08E64AC6
:1005B8004B700302064EE53975F013A42463807C62
:1005C800E53975F00AA424BDF8E4F6E53975F00AB2
:1005D800A424BBF87601E53975F00AA424B9F8E437
:1005E800F68063E53975F013A42457F8860308E606
:1005F800FA08E64A4B604FE53975F013A424578092
:100608003BE53975F00AA424B5F9E7642C700419A0
:10061800E764017031E53975F00AA424BDF8E4F601
:10062800E53975F013A4245DF8860308E6FA08E6B0
:100638004A4B6012E53975F013A4245DF808E6FA10
:1006480008E6F91203C2E53975F013A42463F886A5
:100658000308E6FA08E64A4B7003020701E5397514
:10066800F00AA424BBF8E664017040E53975F00A85
:10067800A424B9F8E6C3941E4031E53975F00AA4FC
:1006880024BBF8E4F6E53975F013A42457F886037B
:1006980008E6FA08E64A4B6012E53975F013A42417
:1006A80057F808E6FA08E6F91203C2E53975F00AC0
:1006B800A424BCF8E664017040E53975F00AA42466
:1006C800BAF8E6C3941E4031E53975F00AA424BC93
:1006D800F8E4F6E53975F013A4245AF8860308E619
:1006E800FA08E64A4B6012E53975F013A4245AF863
:0A06F80008E6FA08E6F91203C22230
:021511008F3415
:10151300E4F535753601F537F535AF35E536A8070A
:10152300088002C333D8FC5534F537AD35FF1203B9
:0A153300C80535E535C3940540E016
:01153D00228B
:08000300E4FF1213390215118C
:07176D0053B13F43B2C0225B
:04175E008F828E8365
:03176200E493FF0E
:011765002261
:060D01008E348F358D36A3
:100D0700E4F537A907E9C394805004E4F980027930
:100D1700807D807C00E97A002400FFEA3534F538CD
:100D27008F39ED7003EC6401601E85398285388345
:100D3700E4938D828C83F005370DBD00010C0539D6
:100D4700E53970DE053880DAAB35A903E9C394804D
:100D5700E9500A2480FFE433FCAD0780037C00FDE3
:100D67008D828C83E536F08BA6E534FFF5A775AE4B
:100D7700FFA2AF9200C2AF75C7AA75C755439F01BF
:100D8700A20092AFA2AF9200C2AF75C7AA75C755AE
:100D970043A501A20092AF75AF22A2AF9200C2AFE6
:100DA70075C7AA75C75543A401A20092AFA903E965
:100DB700C394805004E4F9800279807C007D8089A7
:100DC700A68FA7A2AF9200C2AF75C7AA75C7554332
:100DD7009F01A20092AFA2AF9200C2AF75C7AA75DA
:100DE700C75543A501A20092AF75AF21EDF44C6042
:100DF700238D828C83E0F5AEA2AF9200C2AF75C798
:100E0700AA75C75543A401A20092AF05A60DBD0060
:100E1700010C80D8A2AF9200C2AF75C7AA75C7559B
:100E270053A5FEA20092AFA2AF9200C2AF75C7AAA8
:0A0E370075C755539FFEA20092AF4D
:010E4100228E
:100C8600606400000000000000000000000000009A
:100C9600000000000000000000000000000000004E
:100CA600000000000000000000000000000000003E
:100CB600000000000000000000000000000000002E
:100CC600000000000000000000000000000000001E
:100CD600000000000000000000000000000000000E
:100CE60000000000000000000D47000000000000AA
:0A0CF60000000000000000014600AD
:0412CE00AB07AA06BA
:1012D200900001E07019C3EB94FAEA940040573091
:1012E2009554A3EAF0A3EBF09000017401F0227C84
:1012F200007D05AF03AE02120313D3900003E09FFB
:10130200900002E09E4016E54625E02404F582E4C2
:101312003400F583EAF0A3EBF005468007E4900081
:1013220001F0F546E546C39430400BE4F5469000E3
:061332000004F0E4A3F04A
:011338002292
:10070200E4F537F536F535F534F538F539F53AF5DA
:100712003BF53CF53DF53EF53FF540F541F542F53B
:1007220043900000E06401600302096EF0E551703D
:100732001C900004E0F549A3E0F54AA3E0F54BA3C1
:10074200E0F54C900002E0F547A3E0F548E54A25C4
:100752004CF539E549354BF538FEAF397C007D055E
:100762001203258E3C8F3DAE47AF487C007D0512BB
:1007720003258E3E8F3FE4FBEBC394304003020817
:10078200C1EB25E02406F582E43400F583E0FEA304
:10079200E0FFEB25E02404F582E43400F583E0FC7D
:1007A200A3E0FD2FF53BEC3EF53AE539253DFFE5AB
:1007B20038353CFED3E53B9FE53A9E5014C3E539FC
:1007C200953DFFE538953CFEC3E53B9FE53A9E50DB
:1007D200090553E5537002055222EB25E02406F584
:1007E20082E43400F583E0FEA3E0FFD3ED9FEC9EAC
:1007F200404FAF37AE36AD35AC3478011203AFEFB0
:100802004401F537EEF536EDF535ECF534EB25E040
:100812002406F582E43400F583E0FEA3E02541F5E9
:1008220041EE3540F540EB25E02404F582E4340046
:10083200F583E0FEA3E02543F543EE3542F5428021
:1008420079EB25E02406F582E43400F583E0FEA38B
:10085200E0FFEB25E02404F582E43400F583E0FCBC
:10086200A3E0C39FEC9E5049AF37AE36AD35AC34F2
:1008720078011203AF8F378E368D358C34EB25E03D
:100882002406F582E43400F583E0FEA3E02543F577
:1008920043EE3542F542EB25E02404F582E43400D0
:1008A200F583E0FEA3E02541F541EE3540F54080B9
:1008B200090553E55370020552220B0B02077A9089
:1008C2000002E0FEA3E0FF253DFDE53C3EFCC3E562
:1008D200489DE5479C5027C3EF953DFFEE953CFEB2
:1008E200D3E5489FE5479E4015AF50AE4FAD4EACA5
:1008F2004DAB37AA36A935A83412039E6066900024
:1009020002E0F547A3E0F54885375085364F853537
:100912004E85344D755101E4F552F553AE40AF4169
:10092200FC7D18120325AC06AD07E4120163E4FB5B
:10093200FAF9783F12006D12019C8E4B8F4CAE4239
:10094200AF437C007D18120325AC06AD07E412010B
:1009520063E4FBFAF9783F12006D12019C8E498F15
:100962004AB287220551E4F552F553220553E55365
:0409720070020552B8
:01097600225E
:1016200053C8FE53C90F43C9D043C908439210435E
:0C16300093035393FE53F1F043F10822A2
:0717740053B3DF53B4DF2281
:0C000E00121774121620439B84D2CA22E1
:0300630002138104
:10138100C0E0C0F0C083C082C0D075D000C000C032
:0B13910002C003C004C005C006C00776
:10139C00E59230E00E5392FEAFE5EFFEADE4EDFFCB
:0313AC001212CE4C
:1013AF00D007D006D005D004D003D002D000D0D0C3
:0913BF00D082D083D0F0D0E032DE
:10006600020208E86480F8E933E83360110460F0BE
:10007600ED33EC337009E8FCE9FDEAFEEBFF220400
:1000860060DED3EB9FEA9EE99DE8C2E78CF0C2F7FB
:1000960095F0400CE8CCF8E9CDF9EACEFAEBCFFBC7
:1000A6001201D385D0F05804700320D5B3E804704C
:1000B600075002B2D502021292D5EC0460F7E4CCE6
:1000C600C0E0C398F8603B94186008400DD0E0FB90
:1000D6000201EAE4FBFAC9FC8028E830E406E4C938
:1000E600FBE4CAFCE830E305E4C9CACBFCE85407E4
:1000F6006010F8C3E913F9EA13FAEB13FBEC13FCEF
:10010600D8F130F52FC3E49CFCEF9BFFEE9AFEED91
:1001160099FDD0E0FBEF4E4D4C701222DB0302023C
:100126000FEC2CFCEF33FFEE33FEED33FDED30E745
:10013600EB0201EAEF2BFFEE3AFEED39FDD0E0FBD4
:1001460050130BBB0003020212ED13FDEE13FEEF7C
:0801560013FFEC13FC0201EAA7
:10015E0075F020800E75F010800575F0087D007E1C
:10016E00007F003392D530D503120390EC3340104C
:10017E00EF33FFEE33FEED33FDEC33FCD5F0ED2225
:0E018E00E5F0247EA2D513CC92E7CDCEFF2261
:10019C00EDD2E7CD33EC3392D524814006E4FFFE5B
:1001AC00FDFC22FCE4CFCECDCC24E0501174FF80BA
:1001BC00EDC3CC13CCCD13CDCE13CECF13CF047057
:0701CC00F030D5DE020390C4
:1001D300E9D2E7C933E833F892D5EDD2E7CD33EC72
:0701E30033FC5002B2D522EB
:1001EA00EC30E7100FBF000C0EBE00080DBD000476
:1001FA000BEB6014A2D5EB13FCED92E7FD2274FF22
:10020A00FCFDFEFF22E480F8A2D574FF13FC7D807A
:03021A00E480EF8E
:1011CE00021705E493A3F8E493A34003F68001F21B
:1011DE0008DFF48029E493A3F85407240CC8C33322
:1011EE00C4540F4420C8834004F456800146F6DFF1
:1011FE00E4800B0102040810204080900B7CE47EFA
:10120E00019360BCA3FF543F30E509541FFEE493E5
:10121E00A360010ECF54C025E060A840B8E493A3AC
:10122E00FAE493A3F8E493A3C8C582C8CAC583CAD7
:10123E00F0A3C8C582C8CAC583CADFE9DEE780BE8F
:010D000000F2
:10021D00E709F608DFFA8046E709F208DFFA803EC3
:10022D0088828C83E709F0A3DFFA8032E309F608B0
:10023D00DFFA8078E309F208DFFA807088828C8318
:10024D00E309F0A3DFFA806489828A83E0A3F608CC
:10025D00DFFA805889828A83E0A3F208DFFA804CA6
:10026D0080D280FA80C680D4806980F2803380107D
:10027D0080A680EA809A80A880DA80E280CA8033E6
:10028D0089828A83ECFAE493A3C8C582C8CCC5835E
:10029D00CCF0A3C8C582C8CCC583CCDFE9DEE7802E
:1002AD000D89828A83E493A3F608DFF9ECFAA9F0AD
:1002BD00EDFB2289828A83ECFAE0A3C8C582C8CC03
:1002CD00C583CCF0A3C8C582C8CCC583CCDFEADE1C
:1002DD00E880DB89828A83E493A3F208DFF980CC7E
:1002ED0088F0EF60010E4E60C388F0ED2402B40477
:1002FD000050B9F582EB2402B4040050AF2323451E
:06030D00822390026D73D3
:10031300EF8DF0A4A8F0CF8CF0A428CE8DF0A42EFE
:02032300FE22B8
:10032500BC000BBE0029EF8DF084FFADF022E4CCBC
:10033500F875F008EF2FFFEE33FEEC33FCEE9DEC85
:10034500984005FCEE9DFE0FD5F0E9E4CEFD22EDCB
:10035500F8F5F0EE8420D21CFEADF075F008EF2F15
:10036500FFED33FD4007985006D5F0F222C398FD06
:050375000FD5F0EA22A3
:10037A00C5F0F8A3E028F0C5F0F8E582158270020E
:06038A001583E038F022AB
:0E039000C3E49FFFE49EFEE49DFDE49CFC227E
:10039E00EB9FF5F0EA9E42F0E99D42F0E89C45F0B5
:0103AE00222C
:1003AF00E8600FEFC333FFEE33FEED33FDEC33FCAC
:0303BF00D8F12250
:0603C2008A838982E473C6
:00000001FF
