:08045600022000000222000058
:10073F005389F0438902538EF7758C7B758A7BD270
:06074F00A9D2AFD28C22FA
:03000B00020622C8
:10062200C0E0C0F0C083C082C0D075D000C000C09E
:0D06320001C002C003C004C005C006C0071F
:10063F000521E521700205200523E523700205221F
:10064F00C3E5219464E520940040097520007521CD
:10065F0000120003C3E5239488E522941340087524
:07066F002200752300B28791
:10067600D007D006D005D004D003D002D001D000D8
:0B068600D0D0D082D083D0F0D0E03282
:0F07550053B33F43B4C053ACFE43AD01D2B02207
:10070600E4FEEFC4131313540124FF92B0EF25E067
:10071600FFC29600D2960EBE08E8C29700D297C2D4
:01072600B022
:0107270022AF
:090764002093037F01227F002293
:09076D002092037F01227F00228B
:090776002091037F01227F002283
:09077F002090037F01227F00227B
:090788002094037F01227F00226E
:0307A700B28622F5
:0307AA00B28622F2
:0307AD00B28622EF
:0307B000B28622EC
:0307B300B28622E9
:100348007511FF7512077513A775140075150075DB
:100358001600751700751800751900751A00751BB9
:1003680000751C00751D00751E00751F007BFF7A47
:100378000779641204F77511FF7512077513AA75CA
:100388001400751500751600751700751800751995
:1003980000751A00751B00751C00751D00751E0080
:1003A800751F007BFF7A07796D1204F77511FF75C9
:1003B80012077513AD7514007515007516007517BD
:1003C80000751800751900751A00751B00751C005A
:1003D800751D00751E00751F007BFF7A0779761260
:1003E80004F77511FF7512077513B07514007515AC
:1003F80000751600751700751800751900751A0034
:10040800751B00751C00751D00751E00751F007B8F
:10041800FF7A07797F1204F77511FF7512077513B4
:10042800B37514007515007516007517007518005A
:10043800751900751A00751B00751C00751D00756F
:0E0448001E00751F007BFF7A0779880204F7FB
:0907910043B31F53B4E002034816
:0300000002059660
:0C059600787FE4F6D8FD7581B50205DD24
:1007280012079A12073F1207911207557FFF120707
:0707380006D286D28780FE85
:10045E0020602400000000000000000000000000EA
:10046E00000000000000000000000000000000007E
:10047E00000000000000000000000000000000006E
:10048E00000000000000000000000000000000005E
:10049E00000000000000000000000000000000004E
:1004AE00000000000000000000000000000000003E
:1004BE000000002032840000000000000000000058
:1004CE00000000000000000000000000000000001E
:1004DE00000000000000000000000000000000000E
:0804EE00000000000000000006
:10069100E4F508F509F509E50975F013A42424F832
:1006A100860308E6FA08E64A4B6021E50975F0136E
:1006B100A42424F808E6FA08E6F91207A1BF010C00
:1006C100E50975F013A42436F8E642080509E509A1
:0706D100C3940540C2AF080D
:0106D80022FF
:1004F7007F017883E6FEC3940540021F227883E6D6
:10050700FD75F013A42424F8A60308A60208A60183
:10051700AA12A913ED75F013A42427F8A61108A6AB
:100527000208A601AA15A916ED75F013A4242AF846
:10053700A61408A60208A601AA18A919ED75F013B2
:10054700A4242DF8A61708A60208A601AA1BA91C11
:10055700ED75F013A42430F8A61A08A60208A60120
:10056700AA1EA91FED75F013A42433F8A61D08A62B
:100577000208A601EFA805088002C333D8FCFFEEE6
:0E05870075F013A42436F8A6077883067F01CA
:010595002243
:10000E008F0C8D0DE50D75F00AA42489F806E50D0B
:10001E0075F00AA4248AF806E50C6011E50D75F05A
:10002E000AA42488F8E50C667003020168E50D75D4
:10003E00F00AA42487F9C3E7940219E79400501339
:10004E00E50D75F00AA42486F80806E61870010678
:10005E00020294E50D75F00AA42485F9C3E7942CE9
:10006E0019E79401402DE50D75F00AA4248DF8E4EE
:10007E00F6E50D75F013A42430F8860308E6FA08A9
:10008E00E64A4B700302014DE50D75F013A42430C2
:10009E00020143E50D75F00AA42485F9C3E7940225
:1000AE0019E79400500302014DE50D75F013A424D9
:1000BE0033F8860308E6FA08E64A4B605CE50D75F0
:1000CE00F00AA4248DF8E6B40104E4F68071E50D7F
:1000DE0075F00AA4248CF8E6B40126E50D75F0132C
:1000EE00A4242AF8860308E6FA08E64A4B6012E5CD
:1000FE000D75F013A4242AF808E6FA08E6F912079B
:10010E00A1E50D75F00AA4248AF8E4F6E50D75F064
:10011E000AA4248CF876018026E50D75F013A4242C
:10012E002AF8860308E6FA08E64A4B6012E50D75D2
:10013E00F013A4242AF808E6FA08E6F91207A1E556
:10014E000D75F00AA42488F8A60CE50D75F00AA426
:10015E002484F8E4F608F6020294E50D75F00AA47C
:10016E002484F80806E618700106E50D75F00AA459
:10017E002485F9E764021947600302024FE50D7505
:10018E00F00AA42486F8E4F608F6E50D75F013A43B
:10019E002433F8860308E6FA08E64A4B7003020297
:1001AE0031E50D75F00AA4248CF8E664017051E572
:1001BE000D75F00AA42489F8E6C394325042E50D79
:1001CE0075F00AA4248DF87601E50D75F00AA424C5
:1001DE008CF8E4F6E50D75F00AA4248BF8E4F6E548
:1001EE000D75F013A42433F8860308E6FA08E64AE0
:1001FE004B7003020294E50D75F013A42433807C3A
:10020E00E50D75F00AA4248DF8E4F6E50D75F00AF7
:10021E00A4248BF87601E50D75F00AA42489F8E480
:10022E00F68063E50D75F013A42427F8860308E61F
:10023E00FA08E64A4B604FE50D75F013A4242780AB
:10024E003BE50D75F00AA42485F9E7642C700419BA
:10025E00E764017031E50D75F00AA4248DF8E4F61B
:10026E00E50D75F013A4242DF8860308E6FA08E6CA
:10027E004A4B6012E50D75F013A4242DF808E6FA2A
:10028E0008E6F91207A1E50D75F013A42433F886DC
:10029E000308E6FA08E64A4B7003020347E50D75BC
:1002AE00F00AA4248BF8E664017040E50D75F00A9F
:1002BE00A42489F8E6C394324031E50D75F00AA402
:1002CE00248BF8E4F6E50D75F013A42427F88603C5
:1002DE0008E6FA08E64A4B6012E50D75F013A42401
:1002EE0027F808E6FA08E6F91207A1E50D75F00AF7
:1002FE00A4248CF8E664017040E50D75F00AA42480
:10030E008AF8E6C394324031E50D75F00AA4248CC8
:10031E00F8E4F6E50D75F013A4242AF8860308E632
:10032E00FA08E64A4B6012E50D75F013A4242AF87C
:0A033E0008E6FA08E6F91207A1220A
:0206D9008F0888
:1006DB00E4F509750A01F50BF509AF09E50AA80759
:1006EB00088002C333D8FC5508F50BAD09FF120087
:0A06FB000E0509E509C3940540E06F
:0107050022D1
:08000300E4FF1206910206D988
:07079A0053B13F43B2C0223E
:1005A200020728E493A3F8E493A34003F68001F240
:1005B20008DFF48029E493A3F85407240CC8C3335A
:1005C200C4540F4420C8834004F456800146F6DF29
:1005D200E4800B0102040810204080900456E47E5F
:1005E200019360BCA3FF543F30E509541FFEE4931E
:1005F200A360010ECF54C025E060A840B8E493A3E5
:10060200FAE493A3F8E493A3C8C582C8CAC583CA0F
:10061200F0A3C8C582C8CAC583CADFE9DEE780BEC7
:0104F6000005
:0607A1008A838982E473E3
:00000001FF
