:10073100024B0000024D0000024F00000251000078
:08074100025300000255000004
:100CEE005389F0438902538EF7758C7B758A7BD2BC
:060CFE00A9D2AFD28C2246
:03000B000209CF18
:0B09CF00C0E0C0D075D000C006C0071B
:1009DA00054CE54C7002054B054EE54E7002054D7F
:1009EA000550E5507002054F0554E5547002055351
:1009FA00C3E54C9464E54B9400400C754B00754C70
:100A0A0000751B01753801C374109556FF7427953C
:100A1A0055FEC3E5549FE5539E400F755300755428
:100A2A00007555267556AC751601C374989552FF14
:100A3A00743A9551FEC3E54E9FE54D9E400F7551A0
:100A4A00327552C8754D00754E00750E01C3E550DA
:100A5A009488E54F94134008754F00755000B2878B
:090A6A00D007D006D0D0D0E03254
:080003000000000000000000F5
:10074900011B00010E00011500013800011600040B
:1007590011804020100417040201081C1C0000002D
:100769000000000000000000000000000000000080
:10077900000000000000000000020F000001080056
:09078900010900040A000000004F
:0F0D540053B33F43B4C053ACFE43AD01D2B02202
:070DA90043B10F53B2F02229
:10092A00E53460030209CEAD57A2813375F080A485
:10093A00FFE55754806F7002E5F06012E51E700EF5
:10094A0053577FA28133C433333354804257A28032
:10095A00E43375F040A4FFE55754406F7002E5F0A8
:10096A006011E524700D7557BFA28033C433335428
:10097A00C04257A283E43375F020A4FFE557542000
:10098A006F7002E5F06010E52A700C5357DFA283FE
:10099A0033C43354E04257A282E43375F010A4FF03
:1009AA00E55754106F7002E5F0600FE530700B5395
:1009BA0057EFA28233C454F04257ED65576005AF32
:0409CA0057120C6252
:0109CE002206
:1003480078397C007D007BFF7A0079037E007F048A
:100358001208FEE4FDE53460030205100510E510FF
:100368007002050FAC57A281E433F539A280E4335B
:10037800F53AA283E433F53BA282E433F53CE4ED9D
:1003880075F006A42421F8E664016003020443ED35
:1003980075F006A4241CF80806E618700106741106
:1003A8002DF8E655576064ED75F006A4241FF8E6AD
:1003B8007016ED75F006A4241CF8E4F608F6ED7541
:1003C800F006A4241FF87601ED75F006A4241CF8A5
:1003D800E6FE08E6C39464EE9400405FED75F0060F
:1003E800A4241CF8E4F608F6ED75F006A4241FF81A
:1003F800E4F674112DF8E6F45257ED75F006A424CE
:100408001EF87601E4F50FF5108030ED75F006A4BE
:10041800241CF8E4F608F674392DF8E6701DED751D
:10042800F006A4241EF8E6B4011174172DF8E6426C
:1004380057ED75F006A4241EF8E4F60DED6404608B
:1004480003020387E5106450450F702DFDED75F02C
:1004580006A4241EF8E66401701974172DF8E6FF47
:100468005557600FED75F006A42420F8E67004EFE8
:10047800F452570DBD04D6803CE5106464450F70F6
:1004880034FDED75F006A4241EF8E66401702274AC
:10049800172DF8E6FF55577018ED75F006A42420BF
:1004A800F8E6700DEF4257ED75F006A42420F876B3
:1004B800010DBD04CDE4FD74392DF8E6FF7E00C3BF
:1004C80074079DFBEFA803088005C333CE33CED84D
:1004D800F9FF74112DF8E655577A00B5071CEAB5EF
:1004E8000618ED75F006A42420F8E6B4010CE4F62D
:1004F800ED75F006A4241EF8E4F60DBD04B9EC650C
:08050800576005AF57120C62A9
:0105100022C8
:1005110078397C007D007BFF7A0079077E007F04BB
:100521001208FEE4FFAE57E53470030206220537D8
:10053100E53770020536A281E433F539A280E43350
:10054100F53AA283E433F53BA282E433F53C740A25
:100551002FF8E6FD74392FF8E6FC6D6008ECB40164
:1005610004EF04F508E6FD740A2FF8A6050FBF0491
:10057100DDE50965086060B286850809E4FF743924
:100581002FF8E6F964017021EF2401FDE433FCE565
:10059100086D7001EC601274172FF8E6F45257746D
:1005A100112FF8E6F452578020EF2401FDE433FCCB
:1005B100E508B50514E4B50410E9600D74112FF8D0
:1005C100E6FD55577003ED42570FBF04B1E4F53610
:1005D100F537753501802774382508F8E660107401
:1005E100102508F8E6FF55577014EF4257800F7435
:1005F100102508F8E6FF55576004EFF45257C3E59C
:10060100379432E5369400400EE535600AE4F5365C
:10061100F537F53543570FE5576E6005AF57120CA7
:010621006276
:0106220022B5
:100C1300E51B6006E4F51B120DA1E538600612031F
:100C230048E4F538E5166006E4F516120511E50EFD
:090C3300600612092AE4F50E2204
:100C3C00120D547F0F120C62120DB0120D90120D8A
:100C4C00A9120CEE752101752701752D0175330163
:060C5C00753401C286227E
:100C6200E4FEC2AFEFC4131313540124FF92B0EF9A
:100C720025E0FFC29600D2960EBE08E8C29700D2C7
:050C820097C2B0D2AFE3
:010C8700224A
:0307920001570FFD
:090D63002093037F01227F00228E
:090D6C002092037F01227F002286
:090D75002091037F01227F00227E
:090D7E002090037F01227F002276
:090D87002094037F01227F002269
:100D0400E5574404600D5357FBE4F50FF510AF5756
:040D1400120C622239
:100D1800E5574402600D5357FDE4F50FF510AF5742
:040D2800120C622225
:100D2C00E5574401600D5357FEE4F50FF510AF572E
:040D3C00120C622211
:100D4000E5574408600D5357F7E4F50FF510AF571A
:040D5000120C6222FD
:010DB7002219
:100C8800E55720E21830810853577F435704800303
:0E0C9800435784E4F50FF510AF57120C62229B
:100CA6003080085357BF4357028003435742E4F549
:080CB6000FF510AF57020C62AC
:100CBE003083085357DF4357018003435721E4F530
:080CCE000FF510AF57020C6294
:100CD6003082085357EF4357088003435718E4F50B
:080CE6000FF510AF57020C627C
:10062300753CFF753D0D753E04753FFF75400C75B8
:100633004188754200754300754400754500754651
:1006430000754700754800754900754A007BFF7ABD
:100653000D7963120A73753CFF753D0D753E187570
:100663003FFF75400C7541A6754200754300754404
:1006730000754500754600754700754800754900CB
:10068300754A007BFF7A0D796C120A73753CFF750E
:100693003D0D753E2C753FFF75400C7541BE75428F
:1006A30000754300754400754500754600754700A5
:1006B300754800754900754A007BFF7A0D797512FC
:1006C3000A73753CFF753D0D753E40753FFF7540E0
:1006D3000C7541D67542007543007544007545009D
:1006E300754600754700754800754900754A007BDB
:1006F300FF7A0D797E120A73753CFF753D0D753EC9
:10070300B7753F00754000754100754200754300A1
:1007130075440075450075460075470075480075BA
:0E0723004900754A007BFF7A0D7987020A7340
:090D900043B31F53B4E002062333
:03000000020B12DE
:0C0B1200787FE4F6D8FD7581E9020B59EC
:080D9900120C3C120C1380FB4C
:10079500206058000000000000000000000000007C
:1007A5000000000000000000000000000000000044
:1007B5000000000000000000000000000000000034
:1007C5000000000000000000000000000000000024
:1007D5000000000000000000000000000000000014
:1007E5000000000000000000000000000000000004
:1007F5000000002032B800000000000000000000EA
:1008050000000000000000000000000000000000E3
:1008150000000000000000000000000000000000D3
:080825000000000000000000CB
:100B9E00E4F539F53AF53AE53A75F013A42458F828
:100BAE00860308E6FA08E64A4B6021E53A75F0132B
:100BBE00A42458F808E6FA08E6F9120924BF010C35
:100BCE00E53A75F013A4246AF8E64239053AE53A97
:070BDE00C3940540C2AF39CA
:010BE50022ED
:100A73007F0178B7E6FEC3940540021F2278B7E6EC
:100A8300FD75F013A42458F8A60308A60208A601CE
:100A9300AA3DA93EED75F013A4245BF8A63C08A675
:100AA3000208A601AA40A941ED75F013A4245EF83B
:100AB300A63F08A60208A601AA43A944ED75F013B0
:100AC300A42461F8A64208A60208A601AA46A947DB
:100AD300ED75F013A42464F8A64508A60208A60140
:100AE300AA49A94AED75F013A42467F8A64808A6F5
:100AF3000208A601EFA805088002C333D8FCFFEE65
:0E0B030075F013A4246AF8A60778B7067F01E0
:010B110022C1
:10000E008F3D8D3EE53E75F00AA424BDF806E53E13
:10001E0075F00AA424BEF806E53D6011E53E75F0C4
:10002E000AA424BCF8E53D667003020168E53E753E
:10003E00F00AA424BBF9C3E7940319E79400501304
:10004E00E53E75F00AA424BAF80806E61870010613
:10005E00020294E53E75F00AA424B9F9C3E7942C84
:10006E0019E79401402DE53E75F00AA424C1F8E489
:10007E00F6E53E75F013A42464F8860308E6FA0844
:10008E00E64A4B700302014DE53E75F013A424645D
:10009E00020143E53E75F00AA424B9F9C3E79403BF
:1000AE0019E79400500302014DE53E75F013A424A8
:1000BE0067F8860308E6FA08E64A4B605CE53E758B
:1000CE00F00AA424C1F8E6B40104E4F68071E53E1A
:1000DE0075F00AA424C0F8E6B40126E53E75F013C7
:1000EE00A4245EF8860308E6FA08E64A4B6012E599
:1000FE003E75F013A4245EF808E6FA08E6F9120934
:10010E0024E53E75F00AA424BEF8E4F6E53E75F04B
:10011E000AA424C0F876018026E53E75F013A424C7
:10012E005EF8860308E6FA08E64A4B6012E53E756D
:10013E00F013A4245EF808E6FA08E6F9120924E59D
:10014E003E75F00AA424BCF8A63DE53E75F00AA45F
:10015E0024B8F8E4F608F6020294E53E75F00AA417
:10016E0024B8F80806E618700106E53E75F00AA4F4
:10017E0024B9F9E764031947600302024FE53E759F
:10018E00F00AA424BAF8E4F608F6E53E75F013A4D6
:10019E002467F8860308E6FA08E64A4B7003020263
:1001AE0031E53E75F00AA424C0F8E664017051E50D
:1001BE003E75F00AA424BDF8E6C394325042E53EE3
:1001CE0075F00AA424C1F87601E53E75F00AA42460
:1001DE00C0F8E4F6E53E75F00AA424BFF8E4F6E5AF
:1001EE003E75F013A42467F8860308E6FA08E64A7B
:1001FE004B7003020294E53E75F013A42467807CD5
:10020E00E53E75F00AA424C1F8E4F6E53E75F00A61
:10021E00A424BFF87601E53E75F00AA424BDF8E4E7
:10022E00F68063E53E75F013A4245BF8860308E6BA
:10023E00FA08E64A4B604FE53E75F013A4245B8046
:10024E003BE53E75F00AA424B9F9E7642C70041955
:10025E00E764017031E53E75F00AA424C1F8E4F6B6
:10026E00E53E75F013A42461F8860308E6FA08E665
:10027E004A4B6012E53E75F013A42461F808E6FAC5
:10028E0008E6F9120924E53E75F013A42467F886F2
:10029E000308E6FA08E64A4B7003020347E53E758B
:1002AE00F00AA424BFF8E664017040E53E75F00A3A
:1002BE00A424BDF8E6C394324031E53E75F00AA49D
:1002CE0024BFF8E4F6E53E75F013A4245BF886032C
:1002DE0008E6FA08E64A4B6012E53E75F013A424D0
:1002EE005BF808E6FA08E6F9120924E53E75F00A0D
:1002FE00A424C0F8E664017040E53E75F00AA4241B
:10030E00BEF8E6C394324031E53E75F00AA424C02F
:10031E00F8E4F6E53E75F013A4245EF8860308E6CD
:10032E00FA08E64A4B6012E53E75F013A4245EF817
:0A033E0008E6FA08E6F91209242285
:020BE6008F3945
:100BE800E4F53A753B01F53CF53AAF3AE53BA80721
:100BF800088002C333D8FC5539F53CAD3AFF1200E2
:0A0C08000E053AE53AC3940540E0FA
:010C120022BF
:080DA100E4FF120B9E020BE6B9
:070DB00053B13F43B2C02222
:100B1E00020D99E493A3F8E493A34003F68001F247
:100B2E0008DFF48029E493A3F85407240CC8C333D8
:100B3E00C4540F4420C8834004F456800146F6DFA7
:100B4E00E4800B0102040810204080900731E47EFF
:100B5E00019360BCA3FF543F30E509541FFEE4939C
:100B6E00A360010ECF54C025E060A840B8E493A363
:100B7E00FAE493A3F8E493A3C8C582C8CAC583CA8E
:100B8E00F0A3C8C582C8CAC583CADFE9DEE780BE46
:01082D0000CA
:10082E00E709F608DFFA8046E709F208DFFA803EAC
:10083E0088828C83E709F0A3DFFA8032E309F60899
:10084E00DFFA8078E309F208DFFA807088828C8301
:10085E00E309F0A3DFFA806489828A83E0A3F608B5
:10086E00DFFA805889828A83E0A3F208DFFA804C8F
:10087E0080D280FA80C680D4806980F28033801066
:10088E0080A680EA809A80A880DA80E280CA8033CF
:10089E0089828A83ECFAE493A3C8C582C8CCC58347
:1008AE00CCF0A3C8C582C8CCC583CCDFE9DEE78017
:1008BE000D89828A83E493A3F608DFF9ECFAA9F096
:1008CE00EDFB2289828A83ECFAE0A3C8C582C8CCEC
:1008DE00C583CCF0A3C8C582C8CCC583CCDFEADE05
:1008EE00E880DB89828A83E493A3F208DFF980CC67
:1008FE0088F0EF60010E4E60C388F0ED2402B40460
:10090E000050B9F582EB2402B4040050AF23234506
:06091E00822390087E73A5
:060924008A838982E4735E
:00000001FF
