:10045600021A0000021C0000021E0000022000001A
:10077E005389F0438902538EF7758C7B758A7BD231
:06078E00A9D2AFD28C22BB
:03000B00020636B4
:0B063600C0E0C0D075D000C006C007B7
:10064100051BE51B7002051A051DE51D7002051C41
:10065100051FE51F7002051EC3E51B9464E51A948E
:10066100004009751A00751B00752401C374989523
:1006710021FF743A9520FEC3E51D9FE51C9E4009AC
:100681007520327521C8752201C3E51F9488E51EC6
:0C06910094134008751E00751F00B2870E
:09069D00D007D006D0D0D0E03225
:0904660001240001220001230021
:0F08090053B33F43B4C053ACFE43AD01D2B02252
:07087E0043B10F53B2F02259
:1006EE00E4A28033C4333354C0FFA281E433C43355
:1006FE00333354804FFFA283E433C43354E04FFFAF
:10070E00A282E433C454F04FFFE52554F0FEEF54BB
:10071E00F0FD6E600BE525540F4DF525FF12075CBD
:01072E0022A8
:10079400E5246006E4F524120876E52260061206D4
:0507A400EEE4F5222245
:1007A9001208097F0F12075C12088512086D1208DA
:0407B9007E02077E37
:10075C00E4FEEFC4131313540124FF92B0EF25E011
:10076C00FFC29600D2960EBE08E8C29700D297C27E
:01077C00B0CC
:01077D002259
:03046F0001250F55
:090840002093037F01227F0022B6
:090849002092037F01227F0022AE
:090852002091037F01227F0022A6
:09085B002090037F01227F00229E
:090864002094037F01227F002291
:0A081800B2865325FBAF2502075CF2
:0A082200B2865325FDAF2502075CE6
:0A082C00B2865325FEAF2502075CDB
:0A083600B2865325F7AF2502075CD8
:03089200B2862209
:1007BD0030810853257F4325048003432584AF25CD
:0307CD0002075CC4
:1007D0003080085325BF4325028003432542AF25BF
:0307E00002075CB1
:1007E3003083085325DF4325018003432521AF25AB
:0307F30002075C9E
:1007F6003082085325EF4325088003432518AF258B
:0308060002075C8A
:10034800750BFF750C08750D18750EFF750F077581
:1003580010BD751100751200751300751400751520
:10036800007516007517007518007519007BFF7A5F
:1003780008794012050B750BFF750C08750D227571
:100388000EFF750F077510D07511007512007513E3
:10039800007514007515007516007517007518009E
:1003A8007519007BFF7A08794912050B750BFF75E3
:1003B8000C08750D2C750EFF750F077510E3751178
:1003C8000075120075130075140075150075160078
:1003D8007517007518007519007BFF7A0879521295
:1003E800050B750BFF750C08750D36750EFF750F2F
:1003F800077510F675110075120075130075140055
:100408007515007516007517007518007519007BAD
:10041800FF7A08795B12050B750BFF750C08750DD3
:1004280092750EFF750F077510BD751100751200D6
:10043800751300751400751500751600751700758D
:0E04480018007519007BFF7A08796402050B15
:09086D0043B31F53B4E002034839
:030000000205AA4C
:0C05AA00787FE4F6D8FD7581B70205F1FA
:080003001207A912079480FB0B
:1004720020602600000000000000000000000000D4
:10048200000000000000000000000000000000006A
:10049200000000000000000000000000000000005A
:1004A200000000000000000000000000000000004A
:1004B200000000000000000000000000000000003A
:1004C200000000000000000000000000000000002A
:1004D2000000002032860000000000000000000042
:1004E200000000000000000000000000000000000A
:1004F20000000000000000000000000000000000FA
:080502000000000000000000F1
:1006A600E4F508F509F509E50975F013A42426F81B
:1006B600860308E6FA08E64A4B6021E50975F01359
:1006C600A42426F808E6FA08E6F912088CBF010CFD
:1006D600E50975F013A42438F8E642080509E5098A
:0706E600C3940540C2AF08F8
:0106ED0022EA
:10050B007F017885E6FEC3940540021F227885E6BD
:10051B00FD75F013A42426F8A60308A60208A6016D
:10052B00AA0CA90DED75F013A42429F8A60B08A6A7
:10053B000208A601AA0FA910ED75F013A4242CF83C
:10054B00A60E08A60208A601AA12A913ED75F013B0
:10055B00A4242FF8A61108A60208A601AA15A9160D
:10056B00ED75F013A42432F8A61408A60208A60110
:10057B00AA18A919ED75F013A42435F8A61708A627
:10058B000208A601EFA805088002C333D8FCFFEED2
:0E059B0075F013A42438F8A6077885067F01B2
:0105A900222F
:10000E008F0C8D0DE50D75F00AA4248BF806E50D09
:10001E0075F00AA4248CF806E50C6011E50D75F058
:10002E000AA4248AF8E50C667003020168E50D75D2
:10003E00F00AA42489F9C3E7940319E79400501336
:10004E00E50D75F00AA42488F80806E61870010676
:10005E00020294E50D75F00AA42487F9C3E7942CE7
:10006E0019E79401402DE50D75F00AA4248FF8E4EC
:10007E00F6E50D75F013A42432F8860308E6FA08A7
:10008E00E64A4B700302014DE50D75F013A42432C0
:10009E00020143E50D75F00AA42487F9C3E7940322
:1000AE0019E79400500302014DE50D75F013A424D9
:1000BE0035F8860308E6FA08E64A4B605CE50D75EE
:1000CE00F00AA4248FF8E6B40104E4F68071E50D7D
:1000DE0075F00AA4248EF8E6B40126E50D75F0132A
:1000EE00A4242CF8860308E6FA08E64A4B6012E5CB
:1000FE000D75F013A4242CF808E6FA08E6F9120898
:10010E008CE50D75F00AA4248CF8E4F6E50D75F077
:10011E000AA4248EF876018026E50D75F013A4242A
:10012E002CF8860308E6FA08E64A4B6012E50D75D0
:10013E00F013A4242CF808E6FA08E6F912088CE568
:10014E000D75F00AA4248AF8A60CE50D75F00AA424
:10015E002486F8E4F608F6020294E50D75F00AA47A
:10016E002486F80806E618700106E50D75F00AA457
:10017E002487F9E764031947600302024FE50D7502
:10018E00F00AA42488F8E4F608F6E50D75F013A439
:10019E002435F8860308E6FA08E64A4B7003020295
:1001AE0031E50D75F00AA4248EF8E664017051E570
:1001BE000D75F00AA4248BF8E6C394325042E50D77
:1001CE0075F00AA4248FF87601E50D75F00AA424C3
:1001DE008EF8E4F6E50D75F00AA4248DF8E4F6E544
:1001EE000D75F013A42435F8860308E6FA08E64ADE
:1001FE004B7003020294E50D75F013A42435807C38
:10020E00E50D75F00AA4248FF8E4F6E50D75F00AF5
:10021E00A4248DF87601E50D75F00AA4248BF8E47C
:10022E00F68063E50D75F013A42429F8860308E61D
:10023E00FA08E64A4B604FE50D75F013A4242980A9
:10024E003BE50D75F00AA42487F9E7642C700419B8
:10025E00E764017031E50D75F00AA4248FF8E4F619
:10026E00E50D75F013A4242FF8860308E6FA08E6C8
:10027E004A4B6012E50D75F013A4242FF808E6FA28
:10028E0008E6F912088CE50D75F013A42435F886EE
:10029E000308E6FA08E64A4B7003020347E50D75BC
:1002AE00F00AA4248DF8E664017040E50D75F00A9D
:1002BE00A4248BF8E6C394324031E50D75F00AA400
:1002CE00248DF8E4F6E50D75F013A42429F88603C1
:1002DE0008E6FA08E64A4B6012E50D75F013A42401
:1002EE0029F808E6FA08E6F912088CE50D75F00A09
:1002FE00A4248EF8E664017040E50D75F00AA4247E
:10030E008CF8E6C394324031E50D75F00AA4248EC4
:10031E00F8E4F6E50D75F013A4242CF8860308E630
:10032E00FA08E64A4B6012E50D75F013A4242CF87A
:0A033E0008E6FA08E6F912088C221E
:02072F008F0831
:10073100E4F509750A01F50BF509AF09E50AA80702
:10074100088002C333D8FC5508F50BAD09FF120030
:0A0751000E0509E509C3940540E018
:01075B00227B
:08087600E4FF1206A602072FA1
:0708850053B13F43B2C02252
:1005B600020003E493A3F8E493A34003F68001F258
:1005C60008DFF48029E493A3F85407240CC8C33346
:1005D600C4540F4420C8834004F456800146F6DF15
:1005E600E4800B0102040810204080900456E47E4B
:1005F600019360BCA3FF543F30E509541FFEE4930A
:10060600A360010ECF54C025E060A840B8E493A3D0
:10061600FAE493A3F8E493A3C8C582C8CAC583CAFB
:10062600F0A3C8C582C8CAC583CADFE9DEE780BEB3
:01050A0000F0
:06088C008A838982E473F7
:00000001FF
