:10045600023500000237000002390000023B0000AE
:100968005389F0438902538EF7758C7B758A7BD245
:06097800A9D2AFD28C22CF
:03000B000207BB2E
:0B07BB00C0E0C0D075D000C006C00731
:1007C6000536E536700205350538E5387002053719
:1007D600053AE53A70020539C3E5369464E5359481
:1007E60000400C753500753600750D01750B01C39B
:1007F6007498953CFF743A953BFEC3E5389FE53700
:100806009E4009753B32753CC8750801C3E53A94AC
:0F08160088E53994134008753900753A00B287A8
:09082500D007D006D0D0D0E0329B
:10046600010D00010800010C00010B00150E000033
:100476000000000000000000000000000000000076
:070486000000000209000064
:0F09CE0053B33F43B4C053ACFE43AD01D2B0228C
:070A1B0043B10F53B2F022BA
:1005F100E4AD3DA2813375F080A4FFE53D54806FE9
:100601007002E5F06012E510700E533D7FA2813358
:10061100C43333335480423DA280E43375F040A4A7
:10062100FFE53D54406F7002E5F06011E515700D76
:10063100533DBFA28033C4333354C0423DA283E44F
:100641003375F020A4FFE53D54206F7002E5F060A2
:1006510010E51A700C533DDFA28333C43354E042DA
:100661003DA282E43375F010A4FFE53D54106F7094
:1006710002E5F0600FE51F700B533DEFA28233C41A
:0E06810054F0423DED653D6005AF3D1208A30B
:01068F002248
:10052900050AE50A70020509E52260030205F0E5FE
:1005390012640160030205EB050FE50F7002050E59
:10054900E53D30E729E5117007F50EF50F75110145
:10055900C3E50F9464E50E94004026E4F50EF50F0B
:10056900F511533D7F751001F509F50A8013E4F57E
:100579000EF50F20810BE510B40106433D04E4F5A7
:1005890010E50A64324509700BE510640170535394
:100599003DFB804ED3E50A943CE5099400401BD30A
:1005A900E50A9446E50994005010E510640170329B
:1005B900E53D20E22D433D048028D3E50A9446E534
:1005C900099400401DA281E43375F080A4FFE53D44
:1005D90054807C00B5070BECB5F007E4F509F50A82
:0805E900F510AF3D1208A3223A
:1008C900E50D6006E4F50D120A13E50B6006120545
:0F08D90029E4F50BE50860061205F1E4F50822A5
:100906001209CE7F0F1208A3120A22120A0A120A2D
:0A0916001B120968751201C2862247
:1008A300E4FEC2AFEFC4131313540124FF92B0EF5D
:1008B30025E0FFC29600D2960EBE08E8C29700D28A
:0508C30097C2B0D2AFA6
:0108C800220D
:03048D00013D0F1F
:0909DD002093037F01227F002218
:0909E6002092037F01227F002210
:0909EF002091037F01227F002208
:0909F8002090037F01227F002200
:090A01002094037F01227F0022F2
:10097E00E53D4404600D533DFBE4F509F50AAF3D3A
:04098E001208A32286
:10099200E53D4402600D533DFDE4F509F50AAF3D26
:0409A2001208A32272
:1009A600E53D4401600D533DFEE4F509F50AAF3D12
:0409B6001208A3225E
:1009BA00E53D4408600D533DF7E4F509F50AAF3DFE
:0409CA001208A3224A
:010A2F0022A4
:1008E800E53D20E218308108533D7F433D048003F5
:0E08F800433D84E4F509F50AAF3D1208A32242
:10092000308008533DBF433D028003433D42E4F520
:0809300009F50AAF3D0208A31E
:10093800308308533DDF433D018003433D21E4F507
:0809480009F50AAF3D0208A306
:10095000308208533DEF433D088003433D18E4F5E2
:0809600009F50AAF3D0208A3EE
:100348007526FF75270975287E7529FF752A087592
:100358002BE8752C00752D00752E00752F00753053
:10036800007531007532007533007534007BFF7AF3
:100378000979DD1206907526FF752709752892758B
:1003880029FF752A09752B20752C00752D00752EEF
:1003980000752F0075300075310075320075330017
:1003A8007534007BFF7A0979E61206907526FF7589
:1003B80027097528A67529FF752A09752B38752C04
:1003C80000752D00752E00752F00753000753100F1
:1003D8007532007533007534007BFF7A0979EF12A6
:1003E80006907526FF7527097528BA7529FF752A9D
:1003F80009752B50752C00752D00752E00752F0072
:100408007530007531007532007533007534007B26
:10041800FF7A0979F81206907526FF75270A75285C
:100428002F752900752A00752B00752C00752D0075
:10043800752E00752F007530007531007532007506
:0E04480033007534007BFF7A0A7901020690BA
:090A0A0043B31F53B4E00203489A
:0300000002072FC5
:0C072F00787FE4F6D8FD7581CF020776D4
:080003001209061208C980FB76
:1004900020603E000000000000000000000000009E
:1004A000000000000000000000000000000000004C
:1004B000000000000000000000000000000000003C
:1004C000000000000000000000000000000000002C
:1004D000000000000000000000000000000000001C
:1004E000000000000000000000000000000000000C
:1004F00000000020329E000000000000000000000C
:1005000000000000000000000000000000000000EB
:1005100000000000000000000000000000000000DB
:080520000000000000000000D3
:10082E00E4F523F524F524E52475F013A4243EF80D
:10083E00860308E6FA08E64A4B6021E52475F013B4
:10084E00A4243EF808E6FA08E6F9120A29BF010CBC
:10085E00E52475F013A42450F8E642230524E5247C
:07086E00C3940540C2AF2353
:010875002260
:100690007F01789DE6FEC3940540021F22789DE607
:1006A000FD75F013A4243EF8A60308A60208A601CF
:1006B000AA27A928ED75F013A42441F8A62608A6B8
:1006C0000208A601AA2AA92BED75F013A42444F868
:1006D000A62908A60208A601AA2DA92EED75F013D9
:1006E000A42447F8A62C08A60208A601AA30A9311E
:1006F000ED75F013A4244AF8A62F08A60208A60157
:10070000AA33A934ED75F013A4244DF8A63208A637
:100710000208A601EFA805088002C333D8FCFFEE4B
:0E07200075F013A42450F8A607789D067F01FB
:01072E0022A8
:10000E008F278D28E52875F00AA424A3F806E52885
:10001E0075F00AA424A4F806E5276011E52875F00A
:10002E000AA424A2F8E527667003020168E5287584
:10003E00F00AA424A1F9C3E7940319E7940050131E
:10004E00E52875F00AA424A0F80806E61870010643
:10005E00020294E52875F00AA4249FF9C3E7942CB4
:10006E0019E79401402DE52875F00AA424A7F8E4B9
:10007E00F6E52875F013A4244AF8860308E6FA0874
:10008E00E64A4B700302014DE52875F013A4244A8D
:10009E00020143E52875F00AA4249FF9C3E79403EF
:1000AE0019E79400500302014DE52875F013A424BE
:1000BE004DF8860308E6FA08E64A4B605CE52875BB
:1000CE00F00AA424A7F8E6B40104E4F68071E5284A
:1000DE0075F00AA424A6F8E6B40126E52875F013F7
:1000EE00A42444F8860308E6FA08E64A4B6012E5B3
:1000FE002875F013A42444F808E6FA08E6F9120A63
:10010E0029E52875F00AA424A4F8E4F6E52875F08C
:10011E000AA424A6F876018026E52875F013A424F7
:10012E0044F8860308E6FA08E64A4B6012E528759D
:10013E00F013A42444F808E6FA08E6F9120A29E5B1
:10014E002875F00AA424A2F8A627E52875F00AA4BB
:10015E00249EF8E4F608F6020294E52875F00AA447
:10016E00249EF80806E618700106E52875F00AA424
:10017E00249FF9E764031947600302024FE52875CF
:10018E00F00AA424A0F8E4F608F6E52875F013A406
:10019E00244DF8860308E6FA08E64A4B700302027D
:1001AE0031E52875F00AA424A6F8E664017051E53D
:1001BE002875F00AA424A3F8E6C394325042E52829
:1001CE0075F00AA424A7F87601E52875F00AA42490
:1001DE00A6F8E4F6E52875F00AA424A5F8E4F6E5F9
:1001EE002875F013A4244DF8860308E6FA08E64AAB
:1001FE004B7003020294E52875F013A4244D807C05
:10020E00E52875F00AA424A7F8E4F6E52875F00AA7
:10021E00A424A5F87601E52875F00AA424A3F8E431
:10022E00F68063E52875F013A42441F8860308E6EA
:10023E00FA08E64A4B604FE52875F013A424418076
:10024E003BE52875F00AA4249FF9E7642C70041985
:10025E00E764017031E52875F00AA424A7F8E4F6E6
:10026E00E52875F013A42447F8860308E6FA08E695
:10027E004A4B6012E52875F013A42447F808E6FAF5
:10028E0008E6F9120A29E52875F013A4244DF8861C
:10029E000308E6FA08E64A4B7003020347E52875A1
:1002AE00F00AA424A5F8E664017040E52875F00A6A
:1002BE00A424A3F8E6C394324031E52875F00AA4CD
:1002CE0024A5F8E4F6E52875F013A42441F8860376
:1002DE0008E6FA08E64A4B6012E52875F013A424E6
:1002EE0041F808E6FA08E6F9120A29E52875F00A37
:1002FE00A424A6F8E664017040E52875F00AA4244B
:10030E00A4F8E6C394324031E52875F00AA424A679
:10031E00F8E4F6E52875F013A42444F8860308E6FD
:10032E00FA08E64A4B6012E52875F013A42444F847
:0A033E0008E6FA08E6F9120A29227F
:020876008F23CE
:10087800E4F524752501F526F524AF24E525A80718
:10088800088002C333D8FC5523F526AD24FF120097
:0A0898000E0524E524C3940540E09A
:0108A2002233
:080A1300E4FF12082E02087630
:070A220053B13F43B2C022B3
:10073B00020003E493A3F8E493A34003F68001F2D1
:10074B0008DFF48029E493A3F85407240CC8C333BF
:10075B00C4540F4420C8834004F456800146F6DF8E
:10076B00E4800B0102040810204080900456E47EC4
:10077B00019360BCA3FF543F30E509541FFEE49383
:10078B00A360010ECF54C025E060A840B8E493A34A
:10079B00FAE493A3F8E493A3C8C582C8CAC583CA75
:1007AB00F0A3C8C582C8CAC583CADFE9DEE780BE2D
:0105280000D2
:060A29008A838982E47358
:00000001FF
