:100D4D0002080000020A0000020C0000020E000062
:100D5D000210000002120000021400000216000032
:080D6D0002180000021A000048
:10173E005389F0438902538EF7758C7B758A7BD261
:06174E00A9D2AFD28C22EB
:10176A0053890F438910538E7F758DF5758B95D2EA
:04177A00ABD28E223E
:03001B0002186860
:0A186800758DF5758B95752601321C
:03000B000210DF01
:0B10DF00C0E0C0D075D000C006C00704
:1010EA000509E50970020508050BE50B7002050AFA
:1010FA00050DE50D7002050C050FE50F7002050ED2
:10110A000511E51170020510051BE51B7002051A91
:10111A00C3E5099464E50894004009750800750957
:10112A0000752B01C374109513FF74279512FEC323
:10113A00E50B9FE50A9E400F751223751328750A61
:10114A0000750B00752D01C374109515FF74279552
:10115A0014FEC3E50D9FE50C9E400F75142375150B
:10116A0028750C00750D00752E01C374109517FFB4
:10117A0074279516FEC3E50F9FE50E9E400F751660
:10118A00267517AC750E00750F00752C01C3741007
:10119A009519FF74279518FEC3E5119FE5109E4027
:1011AA000F7518267519AC75100075110075280190
:0911BA00D007D006D0D0D0E032FD
:1017E80080402010040201080000000000000000F2
:100D7500012900012B00012D00012C000128000193
:100D85002E00012A00012600012705570103000056
:100D9500000000000000000000000000000000004E
:100DA5000000000000011C00011D00041E000000E1
:070DB5000004220000000011
:0F17F80053B33F43B4C053ACFE43AD01D2B02254
:0718A80043B10F53B2F0221F
:100B480085412F78307C007D007BFF7A1779F07E15
:100B5800007F04120799E4A28133F530A280E433C0
:100B6800F531A284E433F532A283E433F5339001FE
:070B780018E07003020C41BC
:100B7F00900105E06003020D4C90010AE060030252
:100B8F000D4C90010FE06003020D4C900114E060DA
:100B9F0003020D4CE4FF741E2FF8E6FE74302FF89D
:100BAF00E6FD6E6008EDB40104EF04F51CE6FE747B
:100BBF001E2FF8A6060FBF04DDE51D651C602585F9
:100BCF001C1DE4FFEF2401FDE433FCE51CB5050E0D
:100BDF00E4B5040A53410FEF9017E89342410FBF5A
:100BEF0004E2802D742F251CF8E66013E51C901786
:100BFF00E793FE55416003020D41EE42418012E53D
:100C0F001C9017E793FE55417003020D41EEF4520D
:100C1F00419001057401F090010AF090010FF090DE
:0F0C2F000114F0E4900117F0900119F0752705FA
:100C3E00020D41E4FFEF75F005A42407F582E434BC
:100C4E0001F583E064016003020D0FEF75F005A45A
:100C5E002403F582E43401F583E475F001120826CD
:100C6E00EF9017E89355417003020D0FEF75F005E5
:100C7E00A42406F582E43401F583E07023EF75F0C9
:100C8E0005A42403F582E43401F583E4F0A3F0EF28
:100C9E0075F005A42406F582E43401F5837401F0A1
:100CAE00EF75F005A42403F582E43401F583E0FC2E
:100CBE00A3E0C39407EC94004047EF75F005A4241D
:100CCE0003F582E43401F583E4F0A3F0EF75F0054B
:100CDE00A42406F582E43401F583E4F0EF9017E8DE
:100CEE0093F45241EF75F005A42405F582E4340126
:100CFE00F5837401F0E4900117F0900119F0752757
:100D0E0005EF75F005A42405F582E43401F583E0C2
:100D1E00701874302FF8E66009EF9017E89342418F
:100D2E008008EF9017E893F452410FEF64046003CC
:0E0D3E00020C43E541652F6005AF411215FA26
:010D4C002284
:100FF000E4F52F85413078317C00FD7BFF7A17794D
:10100000F4FE7F04120799900117E004F0E06527D1
:10101000600302109EA28133F531A280E433F532E1
:10102000A284E433F533A283E433F534E4F52FE509
:101030002F75F005A42405F582E43401F583E06002
:101040004E7431252FF8E6FF7E00C37407952FFDFF
:10105000EFA805088005C333CE33CED8F9FFE52FBE
:101060009017E89355416F7001EE60127422252F9E
:10107000F87601E52F9017EC93F452418011E52F9B
:1010800075F005A42405F582E43401F583E4F00548
:101090002FE52FB40499E54165306042803BE52798
:1010A0002401FFE433FE900117E0C39FEE6480F853
:1010B0007480984029E4F0F52F7422252FF8E6B4C7
:1010C000010AE52F9017EC934241E4F6052FE52F36
:0E10D000B404E6E54165306005AF411215FA43
:0110DE0022EF
:1016E600E52B6006E4F52B120003E52E6006E4F513
:0F16F6002E120B48E52D6006E4F52D120FF022A1
:10159A00E52A602E900118E090011AF0900107E008
:1015AA0090011BF090010CE090011CF0900111E0F9
:1015BA0090011DF0900116E090011EF012000EE459
:0315CA00F52A22DD
:0B185D00E5266006E4F5261208802254
:1013180012164590011AE0900118F090011BE09018
:101328000107F090011CE090010CF090011DE09085
:101338000111F090011EE0900116F0900118E0F400
:10134800601C900107E0F4601590010CE0F4600E59
:10135800900111E0F46007900116E0B4FF15E490E5
:101368000118F0900107F090010CF0900111F09035
:0F1378000116F0900118E06003D28622C286228F
:101705001213181217F87F0F1215FA1218AF1218C4
:0D1715009F1218A812185112176A02173EF1
:1015FA00E4FEC2AFEFC4131313540124FF92B0EFF9
:10160A0025E0FFC29600D2960EBE08E8C29700D225
:05161A0097C2B0D2AF41
:01161F0022A8
:030DBC0001410FE3
:091872002093037F01227F002274
:09187B002092037F01227F00226C
:091884002091037F01227F002264
:09188D002090037F01227F00225C
:091896002094037F01227F00224F
:0F180700E541440460085341FBAF411215FA223A
:0F181600E541440260085341FDAF411215FA222B
:0F182500E541440160085341FEAF411215FA221C
:0F183400E541440860085341F7AF411215FA220D
:10001E0030810553417F800C900118E060035341FD
:10002E000F434180434104AF411215FA900119E08C
:10003E00B40107E4F075270A8003752705900105C2
:10004E007401F090010AF090010FF0900114F0E4A9
:05005E00900117F022E3
:101495003080055341BF800C900118E06003534133
:1014A5000F434140434102AF411215FA900119E043
:1014B500B40107E4F075270A800375270590010537
:1014C5007401F090010AF090010FF0900114F0E41E
:0514D500900117F02258
:1014DA003084055341DF800C900118E060035341CA
:1014EA000F434120434101AF411215FA900119E01F
:1014FA00B40107E4F075270A8003752705900105F2
:10150A007401F090010AF090010FF0900114F0E4D8
:05151A00900117F02212
:10151F003083055341EF800C900118E06003534175
:10152F000F434110434108AF411215FA900119E0E2
:10153F00B40107E4F075270A8003752705900105AC
:10154F007401F090010AF090010FF0900114F0E493
:05155F00900117F022CD
:1017A40043410475270A9001197401F0AF410215F1
:0117B400FA3A
:1017B50043410275270A9001197401F0AF410215E2
:0117C500FA29
:1017C60043410175270A9001197401F0AF410215D2
:0117D600FA18
:1017D70043410875270A9001197401F0AF410215BA
:0117E700FA07
:10166600900107E0B40104E4F080069001077401DC
:10167600F09001057401F0E4900117F0752A01223B
:1016860090010CE0B40104E4F0800690010C7401B2
:10169600F090010A7401F0E4900117F0752A012216
:1016A600900111E0B40104E4F08006900111740188
:1016B600F090010F7401F0E4900117F0752A0122F1
:1016C600900116E0B40104E4F0800690011674015E
:1016D600F09001147401F0E4900117F0752A0122CC
:10156400900118E0700604F0D2868007E490011818
:10157400F0C28653410FAF411215FA900105740170
:10158400F090010AF090010FF0900114F0E4900142
:0615940017F0752A012288
:100EE2007532FF7533187534077535FF7536007521
:100EF200371E753800753900753A00753BFF753C31
:100F020017753DA4753EFF753F167540667BFF7AE7
:100F12001879721211C37532FF753318753416754C
:100F220035FF753614753795753800753900753A81
:100F320000753BFF753C17753DB5753EFF753F1655
:100F42007540867BFF7A18797B1211C37532FF7563
:100F520033187534257535FF7536147537DA7538DB
:100F620000753900753A00753BFF753C17753DC633
:100F7200753EFF753F167540A67BFF7A187984127D
:100F820011C37532FF7533187534347535FF7536F4
:100F92001575371F753800753900753A00753BFFB6
:100FA200753C17753DD7753EFF753F167540C67B7C
:100FB200FF7A18798D1211C37532007533007534BA
:100FC20000753500753600753700753800753900C3
:100FD200753A00753B00753C00753D00753EFF7526
:0E0FE2003F157540647BFF7A1879960211C3A3
:09189F0043B31F53B4E0020EE252
:0300000002128C5D
:0C128C00787FE4F6D8FD7581420212D391
:0E1843001217051216E612185D12159A80F59E
:100DBF006060000000000000000000000000000064
:100DCF000000000000000000000000000000000014
:100DDF000000000000000000000000000000000004
:100DEF0000000000000000000000000000000000F4
:100DFF0000000000000000000000000000000000E4
:100E0F0000000000000000000000000000000000D3
:100E1F0000000000603200600000000000000000D1
:100E2F0000000000000000000000000000000000B3
:100E3F0000000000000000000000000000000000A3
:0A0E4F000000000000000000000099
:1013F200E4F52FF530F530E53075F013A42400F54F
:1014020082E43400F583E0FBA3E0FAA3E0F9EA49C1
:101412004B602DE53075F013A42400F582E434000E
:10142200F583A3E0FAA3E0F912087ABF0112E530CE
:1014320075F013A42412F582E43400F583E0422F00
:0B1442000530E530C3940540AEAF2F2D
:01144D00227C
:1011C3007F0190005FE0FEC3940540021F22900060
:1011D3005FE0FD75F013A42400F582E43400F58389
:1011E300EBF0A3EAF0A3E9F0ED75F013A42403F503
:1011F30082E43400F583E532F0A3E533F0A3E5346C
:10120300F0ED75F013A42406F582E43400F583E5CC
:1012130035F0A3E536F0A3E537F0ED75F013A4241C
:1012230009F582E43400F583E538F0A3E539F0A34A
:10123300E53AF0ED75F013A4240CF582E43400F5DF
:1012430083E53BF0A3E53CF0A3E53DF0ED75F0133A
:10125300A4240FF582E43400F583E53EF0A3E53FD3
:10126300F0A3E540F0EFA805088002C333D8FCFFE4
:10127300EE75F013A42412F582E43400F583EFF045
:0812830090005FE004F07F0120
:01128B002240
:100066008F338D34E53475F00AA42465F582E434C3
:1000760000F583E004F0E53475F00AA42466F58201
:10008600E43400F583E004F0E5336017E53475F0F9
:100096000AA42464F582E43400F583E06533700332
:1000A600020264E53475F00AA42462F582E43400A1
:1000B600F583E0FEA3E0C39402EE94005019E53404
:1000C60075F00AA42462F582E43400F583E475F041
:1000D60001120826020416E53475F00AA42460F518
:1000E60082E43400F583E0FEA3E0C3942CEE940191
:1000F6004040E53475F00AA42469F582E43400F53D
:1001060083E4F0E53475F013A4240CF582E434009E
:10011600F583E0FBA3E0FAA3E0F9EA494B7003029A
:10012600023CE53475F013A4240CF582E434000295
:100136000231E53475F00AA42460F582E43400F552
:1001460083E0FEA3E0C39402EE9400500302023C57
:10015600E53475F013A4240FF582E43400F583E04A
:10016600FBA3E0FAA3E0F9EA494B7003020208E5B3
:100176003475F00AA42469F582E43400F583E0B40A
:100186000114E53475F00AA42469F582E43400F517
:1001960083E4F002023CE53475F00AA42468F58293
:1001A600E43400F583E0B40134E53475F013A42497
:1001B60006F582E43400F583E0FBA3E0FAA3E0F958
:1001C600EA494B6018E53475F013A42406F582E479
:1001D6003400F583A3E0FAA3E0F912087AE5347552
:1001E600F00AA42466F582E43400F583E4F0E534ED
:1001F60075F00AA42468F582E43400F5837401F0EE
:100206008034E53475F013A42406F582E43400F551
:1002160083E0FBA3E0FAA3E0F9EA494B6018E53472
:1002260075F013A42406F582E43400F583A3E0FAFE
:10023600A3E0F912087AE53475F00AA42464F5827D
:10024600E43400F583E533F0E53475F00AA4246060
:10025600F582E43400F583E4F0A3F0020416E534F5
:1002660075F00AA42460F582E43400F583E475F0A1
:1002760001120826E53475F00AA42460F582E434F8
:1002860000F583E0FEA3E064024E60030203B5E5D9
:100296003475F00AA42462F582E43400F583E4F0B0
:1002A600A3F0E53475F013A4240FF582E43400F5C9
:1002B60083E0FBA3E0FAA3E0F9EA494B70030203EB
:1002C6008AE53475F00AA42468F582E43400F583DF
:1002D600E064017078E53475F00AA42465F582E4DB
:1002E6003400F583E0C3941E5063E53475F00AA428
:1002F6002469F582E43400F5837401F0E53475F081
:100306000AA42468F582E43400F583E4F0E5347544
:10031600F00AA42467F582E43400F583E4F0E534BA
:1003260075F013A4240FF582E43400F583E0FBA3F3
:10033600E0FAA3E0F9EA494B7003020416E53475C6
:10034600F013A4240FF582E4340002040BE534759F
:10035600F00AA42469F582E43400F583E4F0E53478
:1003660075F00AA42467F582E43400F5837401F07D
:10037600E53475F00AA42465F582E43400F583E4D7
:10038600F0020416E53475F013A42403F582E43470
:1003960000F583E0FBA3E0FAA3E0F9EA494B6070BD
:1003A600E53475F013A42403F582E434008056E5A1
:1003B6003475F00AA42460F582E43400F583E0FE87
:1003C600A3E0642C7003EE64017045E53475F00A11
:1003D600A42469F582E43400F583E4F0E53475F08D
:1003E60013A42409F582E43400F583E0FBA3E0FAC4
:1003F600A3E0F9EA494B6018E53475F013A4240923
:10040600F582E43400F583A3E0FAA3E0F912087A52
:10041600E53475F013A4240FF582E43400F583E087
:10042600FBA3E0FAA3E0F9EA494B7003020511E5E4
:100436003475F00AA42467F582E43400F583E06499
:1004460001705AE53475F00AA42465F582E4340097
:10045600F583E0C3941E4045E53475F00AA424678D
:10046600F582E43400F583E4F0E53475F013A42452
:1004760003F582E43400F583E0FBA3E0FAA3E0F998
:10048600EA494B6018E53475F013A42403F582E4B9
:100496003400F583A3E0FAA3E0F912087AE534758F
:1004A600F00AA42468F582E43400F583E064017060
:1004B6005AE53475F00AA42466F582E43400F5831F
:1004C600E0C3941E4045E53475F00AA42468F5821D
:1004D600E43400F583E4F0E53475F013A42406F55E
:1004E60082E43400F583E0FBA3E0FAA3E0F9EA49ED
:1004F6004B6018E53475F013A42406F582E4340045
:0C050600F583A3E0FAA3E0F912087A22C2
:0215CD008F2F5E
:1015CF00E4F530753101F532F530AF30E531A8076C
:1015DF00088002C333D8FC552FF532AD30FF12000F
:0A15EF00660530E530C3940540E0C6
:0115F90022CF
:08000300E4FF1213F20215CD17
:0718AF0053B13F43B2C02218
:0D0E59004A011AFF00000000000000000028
:10177E0075C7AA75C755439F0175C7AA75C7554347
:03178E00A5012290
:1017540075AF2275A738E4F5A675AEFF75C7AA75EF
:06176400C75543A4012259
:1017910075C7AA75C75553A5FE75C7AA75C7555311
:0317A1009FFE2286
:10162000E4FF75AF2175A7388FA6741A2FF582E4F1
:101630003401F583E0F5AE75C7AA75C75543A4011B
:041640000FBF0ADEF0
:011644002283
:10164500E4FDED2400FFE434388F82F583E493FF55
:10165500741A2DF582E43401F583EFF00DBD0AE22D
:011665002262
:0C000E0012177E121754121620021791D0
:100E66006064009200000000000000000000000026
:100E7600000000000000000000000000000000006C
:100E8600000000000000000000000000000000005C
:100E9600000000000000000000000000000000004C
:100EA600000000000000000000000000000000003C
:100EB600000000000000000000000000000000002C
:100EC60000000000000000004D00F60000000000D9
:0B0ED6000000000000000000014200CE
:04138700AB07AA0600
:10138B00900093E07019C3EB94FAEA940040573045
:10139B009554A3EAF0A3EBF09000937401F0227C38
:1013AB00007D05AF03AE021207BFD3900095E09FFF
:1013BB00900094E09E4016E54225E02496F582E4E9
:1013CB003400F583EAF0A3EBF005428007E49000CC
:1013DB0093F0F542E542C39430400BE4F5429000A4
:0613EB009204F0E4A3F0FF
:0113F10022D9
:10088000E4F532F531F530F52FF533F534F535F57E
:1008900036F537F538F539F53AF53BF53CF53DF5E4
:1008A0003E900092E064016003020B39F090010079
:1008B000E0702D900096E0FFA3E09000F8CFF0A349
:1008C000EFF0900098E0FFA3E09000FACFF0A3EFE4
:1008D000F0900094E0FFA3E09000F6CFF0A3EFF0DB
:1008E0009000FAE0FEA3E0FF9000F9E02FF53490CD
:1008F00000F8E03EF533FEAF347C007D051207D1F1
:100900008E378F389000F6E0FEA3E0FF7C007D0577
:100910001207D18E398F3AE4FBEBC39430400302C7
:100920000A6DEB25E02498F582E43400F583E0FEBF
:10093000A3E0FFEB25E02496F582E43400F583E0A4
:10094000FCA3E0FD2FF536EC3EF535E5342538FF08
:10095000E5333537FED3E5369FE5359E5014C3E5C4
:10096000349538FFE5339537FEC3E5369FE5359E70
:10097000500F900102E004F07006900101E004F0D5
:1009800022EB25E02498F582E43400F583E0FEA311
:10099000E0FFD3ED9FEC9E4050AF32AE31AD30ACB6
:1009A0002F780112085BEF4401F532EEF531EDF5D9
:1009B00030ECF52FEB25E02498F582E43400F58344
:1009C000E0FEA3E0253CF53CEE353BF53BEB25E0B6
:1009D0002496F582E43400F583E0FEA3E0253EF59D
:1009E0003EEE353DF53D020A68EB25E02498F582A0
:1009F000E43400F583E0FEA3E0FFEB25E02496F568
:100A000082E43400F583E0FCA3E0C39FEC9E5049F0
:100A1000AF32AE31AD30AC2F780112085B8F328E21
:100A2000318D308C2FEB25E02498F582E43400F5ED
:100A300083E0FEA3E0253EF53EEE353DF53DEB259A
:100A4000E02496F582E43400F583E0FEA3E0253C43
:100A5000F53CEE353BF53B800F900102E004F07071
:100A600006900101E004F0220B0B0209199000949A
:100A7000E0FEA3E0FF2538FDE5373EFC9000F6E000
:100A8000FAA3E0FBC39DEA9C502BC3EF9538FFEE21
:100A90009537FED3EB9FEA9E401B9000FCE0FCA341
:100AA000E0FDA3E0FEA3E0FFAB32AA31A930A82FFE
:100AB00012084A6078900094E0FFA3E09000F6CF1F
:100AC000F0A3EFF0AF32AE31AD30AC2F9000FC129E
:100AD000086E9001007401F0E4A3F0A3F0AE3BAF08
:100AE0003CFC7D181207D1AC06AD07E412060FE4FA
:100AF000FBFAF9783F1205191206489000FAEEF059
:100B0000A3EFF0AE3DAF3E7C007D181207D1AC06DE
:100B1000AD07E412060FE4FBFAF9783F120519124B
:100B200006489000F8EEF0A3EFF0B28722900100A3
:100B3000E004F0E4A3F0A3F022900102E004F070DE
:070B400006900101E004F042
:010B4700228B
:1017220053C8FE53C90F43C9D043C908439210435B
:0C17320093035393FE53F1F043F108229F
:0718B60053B3DF53B4DF223E
:0C1851001218B6121722439B84D2CA2240
:0300630002144E36
:10144E00C0E0C0F0C083C082C0D075D000C000C064
:0B145E0002C003C004C005C006C007A8
:10146900E59230E00E5392FEAFE5EFFEADE4EDFFFD
:03147900121387C4
:10147C00D007D006D005D004D003D002D000D0D0F5
:09148C00D082D083D0F0D0E03210
:100512000206B4E86480F8E933E83360110460F05D
:10052200ED33EC337009E8FCE9FDEAFEEBFF22044F
:1005320060DED3EB9FEA9EE99DE8C2E78CF0C2F74A
:1005420095F0400CE8CCF8E9CDF9EACEFAEBCFFB16
:1005520012067F85D0F05804700320D5B3E80470EA
:10056200075002B2D50206BE92D5EC0460F7E4CC85
:10057200C0E0C398F8603B94186008400DD0E0FBDF
:10058200020696E4FBFAC9FC8028E830E406E4C9D6
:10059200FBE4CAFCE830E305E4C9CACBFCE8540733
:1005A2006010F8C3E913F9EA13FAEB13FBEC13FC3E
:1005B200D8F130F52FC3E49CFCEF9BFFEE9AFEEDE1
:1005C20099FDD0E0FBEF4E4D4C701222DB03020688
:1005D200BBEC2CFCEF33FFEE33FEED33FDED30E7E9
:1005E200EB020696EF2BFFEE3AFEED39FDD0E0FB73
:1005F20050130BBB00030206BEED13FDEE13FEEF1C
:0806020013FFEC13FC02069645
:10060A0075F020800E75F010800575F0087D007E6B
:10061A00007F003392D530D50312083CEC334010EA
:10062A00EF33FFEE33FEED33FDEC33FCD5F0ED2274
:0E063A00E5F0247EA2D513CC92E7CDCEFF22B0
:10064800EDD2E7CD33EC3392D524814006E4FFFEAA
:10065800FDFC22FCE4CFCECDCC24E0501174FF8009
:10066800EDC3CC13CCCD13CDCE13CECF13CF0470A6
:07067800F030D5DE02083C62
:10067F00E9D2E7C933E833F892D5EDD2E7CD33ECC1
:07068F0033FC5002B2D5223A
:10069600EC30E7100FBF000C0EBE00080DBD0004C5
:1006A6000BEB6014A2D5EB13FCED92E7FD2274FF71
:1006B600FCFDFEFF22E480F8A2D574FF13FC7D80CA
:0306C600E480EFDE
:10129800021843E493A3F8E493A34003F68001F211
:1012A80008DFF48029E493A3F85407240CC8C33357
:1012B800C4540F4420C8834004F456800146F6DF26
:1012C800E4800B0102040810204080900D4DE47E5C
:1012D800019360BCA3FF543F30E509541FFEE4931B
:1012E800A360010ECF54C025E060A840B8E493A3E2
:1012F800FAE493A3F8E493A3C8C582C8CAC583CA0D
:10130800F0A3C8C582C8CAC583CADFE9DEE780BEC4
:010EE1000010
:1006C900E709F608DFFA8046E709F208DFFA803E13
:1006D90088828C83E709F0A3DFFA8032E309F60800
:1006E900DFFA8078E309F208DFFA807088828C8368
:1006F900E309F0A3DFFA806489828A83E0A3F6081C
:10070900DFFA805889828A83E0A3F208DFFA804CF5
:1007190080D280FA80C680D4806980F280338010CC
:1007290080A680EA809A80A880DA80E280CA803335
:1007390089828A83ECFAE493A3C8C582C8CCC583AD
:10074900CCF0A3C8C582C8CCC583CCDFE9DEE7807D
:100759000D89828A83E493A3F608DFF9ECFAA9F0FC
:10076900EDFB2289828A83ECFAE0A3C8C582C8CC52
:10077900C583CCF0A3C8C582C8CCC583CCDFEADE6B
:10078900E880DB89828A83E493A3F208DFF980CCCD
:1007990088F0EF60010E4E60C388F0ED2402B404C6
:1007A9000050B9F582EB2402B4040050AF2323456D
:0607B90082239007197372
:1007BF00EF8DF0A4A8F0CF8CF0A428CE8DF0A42E4E
:0207CF00FE2208
:1007D100BC000BBE0029EF8DF084FFADF022E4CC0C
:1007E100F875F008EF2FFFEE33FEEC33FCEE9DECD5
:1007F100984005FCEE9DFE0FD5F0E9E4CEFD22ED1B
:10080100F8F5F0EE8420D21CFEADF075F008EF2F64
:10081100FFED33FD4007985006D5F0F222C398FD55
:050821000FD5F0EA22F2
:10082600C5F0F8A3E028F0C5F0F8E582158270025D
:060836001583E038F022FA
:0E083C00C3E49FFFE49EFEE49DFDE49CFC22CD
:10084A00EB9FF5F0EA9E42F0E99D42F0E89C45F004
:01085A00227B
:10085B00E8600FEFC333FFEE33FEED33FDEC33FCFB
:03086B00D8F1229F
:0C086E00ECF0A3EDF0A3EEF0A3EFF022FD
:06087A008A838982E47309
:00000001FF
