:1008AE0002080000020A0000020C0000020E000006
:1008BE0002100000021200000214000002160000D6
:0808CE0002180000021A0000EC
:101019005389F0438902538EF7758C7B758A7BD28D
:06102900A9D2AFD28C2217
:03000B000209B631
:0B09B600C0E0C0D075D000C006C00734
:1009C1000509E50970020508050BE50B7002050A2A
:1009D100050DE50D7002050C050FE50F7002050E02
:1009E1000511E51170020510051BE51B7002051AC2
:1009F100C3E5099464E50894004009750800750988
:100A010000752F01C374109513FF74279512FEC34F
:100A1100E50B9FE50A9E400F751223751328750A91
:100A210000750B00753101C374109515FF7427957E
:100A310014FEC3E50D9FE50C9E400F75142375153B
:100A410028750C00750D00753201C374109517FFE0
:100A510074279516FEC3E50F9FE50E9E400F751690
:100A6100267517AC750E00750F00753001C3741033
:100A71009519FF74279518FEC3E5119FE5109E4057
:100A81000F7518267519AC751000751100752C01BC
:100A9100C3E51B9488E51A94134008751A00751B69
:030AA10000B28719
:090AA400D007D006D0D0D0E0321A
:10107300804020100402010800000000000000006E
:1008D600012D00012F00013100013000012C000123
:1008E6003200012E00012B05570000000000000019
:1008F60000000000000000000000000000000000F2
:10090600000001210001220004230000000004274A
:0409160000000000DD
:0F10830053B33F43B4C053ACFE43AD01D2B022D0
:0711170043B10F53B2F022B7
:10034800851C3378347C007D007BFF7A10797B7EB6
:10035800007F0412075EE4A28133F534A280E433FF
:10036800F535A283E433F536A282E433F5379000FD
:0703780015E07003020441CF
:10037F00900002E0600302054C900007E06003026A
:10038F00054C90000CE0600302054C900011E060FA
:10039F000302054CE4FF74232FF8E6FE74342FF8A4
:1003AF00E6FD6E6008EDB40104EF04F521E6FE747E
:1003BF00232FF8A6060FBF04DDE5226521602585F2
:1003CF002122E4FFEF2401FDE433FCE521B5050E06
:1003DF00E4B5040A531C0FEF90107393421C0FBF28
:1003EF0004E2802D74332521F8E66013E521901087
:1003FF007293FE551C6003020541EE421C8012E50C
:10040F002190107293FE551C7003020541EEF452B9
:10041F001C9000027401F0900007F090000CF09017
:0F042F000011F0E4900014F0900016F0752B050A
:10043E00020541E4FFEF75F005A42404F582E434CF
:10044E0000F583E06401600302050FEF75F005A46B
:10045E002400F582E43400F583E475F0011207847C
:10046E00EF90107393551C700302050FEF75F00596
:10047E00A42403F582E43400F583E07023EF75F0D5
:10048E0005A42400F582E43400F583E4F0A3F0EF34
:10049E0075F005A42403F582E43400F5837401F0AD
:1004AE00EF75F005A42400F582E43400F583E0FC3A
:1004BE00A3E0C39407EC94004047EF75F005A42425
:1004CE0000F582E43400F583E4F0A3F0EF75F00557
:1004DE00A42403F582E43400F583E4F0EF90107366
:1004EE0093F4521CEF75F005A42402F582E4340057
:1004FE00F5837401F0E4900014F0900016F0752B63
:10050E0005EF75F005A42402F582E43400F583E0CE
:10051E00701874342FF8E66009EF90107393421C34
:10052E008008EF90107393F4521C0FEF6404600375
:0E053E00020443E51C65336005AF1C120F3D3F
:01054C00228C
:100AAD00E4F533851C3478357C00FD7BFF7A1079B5
:100ABD007FFE7F0412075E900014E004F0E0652BCA
:100ACD006003020B5BA28133F535A280E433F5366A
:100ADD00A283E433F537A282E433F538E4F533E548
:100AED003375F005A42402F582E43400F583E0604B
:100AFD004E74352533F8E6FF7E00C374079533FD3C
:100B0D00EFA805088005C333CE33CED8F9FFE53302
:100B1D0090107393551C6F7001EE6012742725337E
:100B2D00F87601E53390107793F4521C8011E5337C
:100B3D0075F005A42402F582E43400F583E4F00594
:100B4D0033E533B40499E51C65346042803BE52BF5
:100B5D002401FFE433FE900014E0C39FEE6480F89F
:100B6D007480984029E4F0F53374272533F8E6B402
:100B7D00010AE53390107793421CE4F60533E53313
:0E0B8D00B404E6E51C65346005AF1C120F3D94
:010B9B002237
:100FE300E52F6006E4F52F120003E5326006E4F511
:0F0FF30032120348E5316006E4F531120AAD22EF
:100E9A00E52E603FE4F52E900015E0FD7F817E3857
:100EAA0012054D900004E0FD7F827E3812054D90B8
:100EBA000009E0FD7F837E3812054D90000EE0FDAB
:100ECA007F847E3812054D900013E0FD7F857E38C1
:040EDA0012054D228E
:100CC7007F817E3812110F900015EFF07F827E38FA
:100CD70012110F900004EFF07F837E3812110F90EE
:100CE7000009EFF07F847E3812110F90000EEFF0AD
:100CF7007F857E3812110F900013EFF0900015E0FA
:100D0700F4601C900004E0F46015900009E0F460C2
:100D17000E90000EE0F46007900013E0B4FF17E4B4
:100D2700900015F0900004F0900009F090000EF08C
:070D3700900013F0D28622A8
:10100200120CC71210837F0F120F3D12111E121104
:07101200061211170210196C
:100F3D00E4FEC2AFEFC4131313540124FF92B0EFBC
:100F4D0025E0FFC29600D2960EBE08E8C29700D2E9
:050F5D0097C2B0D2AF05
:010F6200226C
:03091A00011C0FAE
:0910D9002093037F01227F002215
:0910E2002092037F01227F00220D
:0910EB002091037F01227F002205
:0910F4002090037F01227F0022FD
:0910FD002094037F01227F0022F0
:0F109200E51C44046008531CFBAF1C120F3D22E9
:0F10A100E51C44026008531CFDAF1C120F3D22DA
:0F10B000E51C44016008531CFEAF1C120F3D22CB
:0F10BF00E51C44086008531CF7AF1C120F3D22BC
:100D8600308105531C7F800C900015E06003531CD6
:100D96000F431C80431C04AF1C120F3D900016E04D
:100DA600B40107E4F0752B0A8003752B0590000249
:100DB6007401F0900007F090000CF0900011F0E440
:050DC600900014F02272
:100DCB00308005531CBF800C900015E06003531C52
:100DDB000F431C40431C02AF1C120F3D900016E04A
:100DEB00B40107E4F0752B0A8003752B0590000204
:100DFB007401F0900007F090000CF0900011F0E4FB
:050E0B00900014F0222C
:100E1000308305531CDF800C900015E06003531CE9
:100E20000F431C20431C01AF1C120F3D900016E025
:100E3000B40107E4F0752B0A8003752B05900002BE
:100E40007401F0900007F090000CF0900011F0E4B5
:050E5000900014F022E7
:100E5500308205531CEF800C900015E06003531C95
:100E65000F431C10431C08AF1C120F3D900016E0E9
:100E7500B40107E4F0752B0A8003752B0590000279
:100E85007401F0900007F090000CF0900011F0E470
:050E9500900014F022A2
:10102F00431C04752B0A9000167401F0AF1C020FBD
:01103F003D73
:10104000431C02752B0A9000167401F0AF1C020FAE
:011050003D62
:10105100431C01752B0A9000167401F0AF1C020F9E
:011061003D51
:10106200431C08752B0A9000167401F0AF1C020F86
:011072003D40
:100F6300900004E0B40104E4F080069000047401EE
:100F7300F09000027401F0E4900014F0752E012249
:100F8300900009E0B40104E4F080069000097401C4
:100F9300F09000077401F0E4900014F0752E012224
:100FA30090000EE0B40104E4F0800690000E74019A
:100FB300F090000C7401F0E4900014F0752E0122FF
:100FC300900013E0B40104E4F08006900013740170
:100FD300F09000117401F0E4900014F0752E0122DA
:100EDE00900015E0700404F08005E4900015F053C6
:100EEE001C0FAF1C120F3D9000027401F090000712
:100EFE00F090000CF0900011F0E4900014F0752EBC
:020F0E000122BE
:1007A0007536FF7537107538927539FF753A0D75C6
:1007B0003B86753C00753D00753E00753FFF7540FA
:1007C0001075412F7542FF75430F7544637BFF7AA7
:1007D0001079D9120B9C7536FF7537107538A175D5
:1007E00039FF753A0D753BCB753C00753D00753E84
:1007F00000753FFF7540107541407542FF75430F0E
:100800007544837BFF7A1079E2120B9C7536FF7575
:1008100037107538B07539FF753A0E753B10753C59
:1008200000753D00753E00753FFF754010754151E4
:100830007542FF75430F7544A37BFF7A1079EB1265
:100840000B9C7536FF7537107538BF7539FF753AD3
:100850000E753B55753C00753D00753E00753FFFBC
:100860007540107541627542FF75430F7544C37B37
:10087000FF7A1079F4120B9C7536007537007538C5
:1008800000753900753A00753B00753C00753D00F8
:10089000753E00753F007540007541007542FF755B
:0E08A000430E7544DE7BFF7A1079FD020B9C3F
:0911060043B31F53B4E00207A03B
:03000000020C3BB4
:0C0C3B00787FE4F6D8FD7581D6020C82AB
:0B10CE00121002120FE3120E9A80F8BD
:10091D002060450000000000000000000000000005
:10092D0000000000000000000000000000000000BA
:10093D0000000000000000000000000000000000AA
:10094D00000000000000000000000000000000009A
:10095D00000000000000000000000000000000008A
:10096D00000000000000000000000000000000007A
:10097D000000002032A50000000000000000000073
:10098D00000000000000000000000000000000005A
:10099D00000000000000000000000000000000004A
:0809AD00000000000000000042
:100D3E00E4F533F534F534E53475F013A42445F8B1
:100D4E00860308E6FA08E64A4B6021E53475F0138F
:100D5E00A42445F808E6FA08E6F912079ABF010C32
:100D6E00E53475F013A42457F8E642330534E53420
:070D7E00C3940540C2AF332E
:010D8500224B
:100B9C007F0178A4E6FEC3940540021F2278A4E6E8
:100BAC00FD75F013A42445F8A60308A60208A601B7
:100BBC00AA37A938ED75F013A42448F8A63608A670
:100BCC000208A601AA3AA93BED75F013A4244BF830
:100BDC00A63908A60208A601AA3DA93EED75F01398
:100BEC00A4244EF8A63C08A60208A601AA40A941D6
:100BFC00ED75F013A42451F8A63F08A60208A6012F
:100C0C00AA43A944ED75F013A42454F8A64208A6EF
:100C1C000208A601EFA805088002C333D8FCFFEE3A
:0E0C2C0075F013A42457F8A60778A4067F01DC
:010C3A002297
:10000E008F378D38E53875F00AA424AAF806E5383E
:10001E0075F00AA424ABF806E5376011E53875F0E3
:10002E000AA424A9F8E537667003020168E538755D
:10003E00F00AA424A8F9C3E7940219E79400501318
:10004E00E53875F00AA424A7F80806E6187001062C
:10005E00020294E53875F00AA424A6F9C3E7942C9D
:10006E0019E79401402DE53875F00AA424AEF8E4A2
:10007E00F6E53875F013A42451F8860308E6FA085D
:10008E00E64A4B700302014DE53875F013A4245176
:10009E00020143E53875F00AA424A6F9C3E79402D9
:1000AE0019E79400500302014DE53875F013A424AE
:1000BE0054F8860308E6FA08E64A4B605CE53875A4
:1000CE00F00AA424AEF8E6B40104E4F68071E53833
:1000DE0075F00AA424ADF8E6B40126E53875F013E0
:1000EE00A4244BF8860308E6FA08E64A4B6012E5AC
:1000FE003875F013A4244BF808E6FA08E6F912074F
:10010E009AE53875F00AA424ABF8E4F6E53875F0F4
:10011E000AA424ADF876018026E53875F013A424E0
:10012E004BF8860308E6FA08E64A4B6012E5387586
:10013E00F013A4244BF808E6FA08E6F912079AE53C
:10014E003875F00AA424A9F8A637E53875F00AA484
:10015E0024A5F8E4F608F6020294E53875F00AA430
:10016E0024A5F80806E618700106E53875F00AA40D
:10017E0024A6F9E764021947600302024FE53875B9
:10018E00F00AA424A7F8E4F608F6E53875F013A4EF
:10019E002454F8860308E6FA08E64A4B7003020276
:1001AE0031E53875F00AA424ADF8E664017051E526
:1001BE003875F00AA424AAF8E6C3941E5042E53816
:1001CE0075F00AA424AEF87601E53875F00AA42479
:1001DE00ADF8E4F6E53875F00AA424ACF8E4F6E5DB
:1001EE003875F013A42454F8860308E6FA08E64A94
:1001FE004B7003020294E53875F013A42454807CEE
:10020E00E53875F00AA424AEF8E4F6E53875F00A80
:10021E00A424ACF87601E53875F00AA424AAF8E413
:10022E00F68063E53875F013A42448F8860308E6D3
:10023E00FA08E64A4B604FE53875F013A42448805F
:10024E003BE53875F00AA424A6F9E7642C7004196E
:10025E00E764017031E53875F00AA424AEF8E4F6CF
:10026E00E53875F013A4244EF8860308E6FA08E67E
:10027E004A4B6012E53875F013A4244EF808E6FADE
:10028E0008E6F912079AE53875F013A42454F88697
:10029E000308E6FA08E64A4B7003020347E5387591
:1002AE00F00AA424ACF8E664017040E53875F00A53
:1002BE00A424AAF8E6C3941E4031E53875F00AA4CA
:1002CE0024ACF8E4F6E53875F013A42448F8860358
:1002DE0008E6FA08E64A4B6012E53875F013A424D6
:1002EE0048F808E6FA08E6F912079AE53875F00AB2
:1002FE00A424ADF8E664017040E53875F00AA42434
:10030E00ABF8E6C3941E4031E53875F00AA424AD6F
:10031E00F8E4F6E53875F013A4244BF8860308E6E6
:10032E00FA08E64A4B6012E53875F013A4244BF830
:0A033E0008E6FA08E6F912079A2211
:020F10008F331D
:100F1200E4F534753501F536F534AF34E535A80717
:100F2200088002C333D8FC5533F536AD34FF1200C6
:0A0F32000E0534E534C3940540E0D9
:010F3C002292
:08000300E4FF120D3E020F1094
:07111E0053B13F43B2C022B0
:04110F008F828E83BA
:03111300E493FF63
:0111160022B6
:06054D008E338F348D3562
:10055300E4F536A907E9C394805004E4F9800279ED
:10056300807D807C00E97A002400FFEA3533F5378B
:100573008F38ED7003EC6401601E85388285378304
:10058300E4938D828C83F005360DBD00010C053894
:10059300E53870DE053780DAAB34A903E9C394800C
:1005A300E9500A2480FFE433FCAD0780037C00FD9F
:1005B3008D828C83E535F08BA6E533FFF5A775AE09
:1005C300FFA2AF9200C2AF75C7AA75C755439F017B
:1005D300A20092AFA2AF9200C2AF75C7AA75C7556A
:1005E30043A501A20092AF75AF22A2AF9200C2AFA2
:1005F30075C7AA75C75543A401A20092AFA903E921
:10060300C394805004E4F9800279807C007D808962
:10061300A68FA7A2AF9200C2AF75C7AA75C75543ED
:100623009F01A20092AFA2AF9200C2AF75C7AA7595
:10063300C75543A501A20092AF75AF21EDF44C60FD
:10064300238D828C83E0F5AEA2AF9200C2AF75C753
:10065300AA75C75543A401A20092AF05A60DBD001C
:10066300010C80D8A2AF9200C2AF75C7AA75C75557
:1006730053A5FEA20092AFA2AF9200C2AF75C7AA64
:0A06830075C755539FFEA20092AF09
:01068D00224A
:100C47000210CEE493A3F8E493A34003F68001F2E5
:100C570008DFF48029E493A3F85407240CC8C333AE
:100C6700C4540F4420C8834004F456800146F6DF7D
:100C7700E4800B01020408102040809008AEE47E57
:100C8700019360BCA3FF543F30E509541FFEE49372
:100C9700A360010ECF54C025E060A840B8E493A339
:100CA700FAE493A3F8E493A3C8C582C8CAC583CA64
:100CB700F0A3C8C582C8CAC583CADFE9DEE780BE1C
:0109B5000041
:10068E00E709F608DFFA8046E709F208DFFA803E4E
:10069E0088828C83E709F0A3DFFA8032E309F6083B
:1006AE00DFFA8078E309F208DFFA807088828C83A3
:1006BE00E309F0A3DFFA806489828A83E0A3F60857
:1006CE00DFFA805889828A83E0A3F208DFFA804C31
:1006DE0080D280FA80C680D4806980F28033801008
:1006EE0080A680EA809A80A880DA80E280CA803371
:1006FE0089828A83ECFAE493A3C8C582C8CCC583E9
:10070E00CCF0A3C8C582C8CCC583CCDFE9DEE780B8
:10071E000D89828A83E493A3F608DFF9ECFAA9F037
:10072E00EDFB2289828A83ECFAE0A3C8C582C8CC8D
:10073E00C583CCF0A3C8C582C8CCC583CCDFEADEA6
:10074E00E880DB89828A83E493A3F208DFF980CC08
:10075E0088F0EF60010E4E60C388F0ED2402B40401
:10076E000050B9F582EB2402B4040050AF232345A8
:06077E0082239006DE73E9
:10078400C5F0F8A3E028F0C5F0F8E5821582700200
:060794001583E038F0229D
:06079A008A838982E473EA
:00000001FF
