:1007410002390000023B0000023D0000023F0000B0
:100B98005389F0438902538EF7758C7B758A7BD213
:060BA800A9D2AFD28C229D
:03000B000209E205
:0B09E200C0E0C0D075D000C006C00708
:1009ED00053AE53A70020539053CE53C7002053BD8
:1009FD00053EE53E7002053DC3E53A9464E5399444
:100A0D0000400C753900753A00750D01750B01C369
:100A1D0074989540FF743A953FFEC3E53C9FE53BC6
:100A2D009E4009753F327540C8750801C3E53E9477
:0F0A3D0088E53D94134008753D00753E00B28773
:090A4C00D007D006D0D0D0E03272
:0C0C0D00804020100402010800000000DC
:10075100010D00010800010C00010B00190E000041
:100761000000000000000000000000000000000088
:0B077100000000000000000209000072
:0F0BFE0053B33F43B4C053ACFE43AD01D2B0225A
:070C570043B10F53B2F0227C
:10081800E4AD41A2813375F080A4FFE54154806FB7
:100828007002E5F06012E510700E53417FA281332B
:10083800C433333354804241A280E43375F040A47A
:10084800FFE54154406F7002E5F06011E516700D48
:100858005341BFA28033C4333354C04241A283E41E
:100868003375F020A4FFE54154206F7002E5F06075
:1008780010E51C700C5341DFA28333C43354E042AB
:1008880041A282E43375F010A4FFE54154106F7063
:1008980002E5F0600FE522700B5341EFA28233C4EA
:0E08A80054F04241ED65416005AF41120ACAAD
:0108B600221F
:1003480078277C007D007BFF7A0C790D7E007F0486
:10035800120715782B7C007D007BFF7A0C79117EC3
:10036800007F04120715782F7C007D007BFF7A0C34
:1003780079157E007F04120715E4FDA28133F52F5D
:10038800A280E433F530A283E433F531A282E4336A
:10039800F532050AE50A70020509AC41E526600355
:1003A80002052CED75F006A42413F8E66401600339
:1003B800020467ED75F006A4240EF80806E6187026
:1003C800010674272DF8E655416064ED75F006A422
:1003D8002411F8E67016ED75F006A4240EF8E4F67C
:1003E80008F6ED75F006A42411F87601ED75F0060F
:1003F800A4240EF8E6FE08E6C39464EE9400405F79
:10040800ED75F006A4240EF8E4F608F6ED75F0068E
:10041800A42411F8E4F674272DF8E6F45241ED759A
:10042800F006A42410F87601E4F509F50A8030ED09
:1004380075F006A4240EF8E4F608F6742F2DF8E6F5
:10044800701DED75F006A42410F8E6B40111742BA4
:100458002DF8E64241ED75F006A42410F8E4F60DF7
:10046800ED640460030203ABE50A64324509702DAC
:10047800FDED75F006A42410F8E664017019742BDC
:100488002DF8E6FF5541600FED75F006A42412F82B
:10049800E67004EFF452410DBD04D6803EE50A64CF
:1004A8003C45097036FDED75F006A42410F8E664A5
:1004B800017024742B2DF8E6FF5541701AED75F084
:1004C80006A42412F8E6700FD286EF4241ED75F0CB
:1004D80006A42412F876010DBD04CBE4FD742F2D7B
:1004E800F8E6FF7E00C374079DFBEFA803088005AC
:1004F800C333CE33CED8F9FF74272DF8E655417AA9
:1005080000B5071CEAB50618ED75F006A42412F824
:10051800E6B4010CE4F6ED75F006A42410F8E4F650
:0E0528000DBD04B9EC65416005AF41120ACA71
:0105360022A2
:100B1300E50D6006E4F50D120C4FE50B60061203BC
:0F0B230048E4F50BE5086006120818E4F508220F
:100AF000120BFE7F0F120ACA120C5E120C46120C69
:100B000057120B98751301751901751F0175250191
:030B1000C2862278
:100ACA00E4FEC2AFEFC4131313540124FF92B0EF34
:100ADA0025E0FFC29600D2960EBE08E8C29700D261
:050AEA0097C2B0D2AF7D
:010AEF0022E4
:03077C0001410F29
:090C19002093037F01227F0022D9
:090C22002092037F01227F0022D1
:090C2B002091037F01227F0022C9
:090C34002090037F01227F0022C1
:090C3D002094037F01227F0022B4
:100BAE00E5414404600D5341FBE4F509F50AAF41FC
:040BBE00120ACA222B
:100BC200E5414402600D5341FDE4F509F50AAF41E8
:040BD200120ACA2217
:100BD600E5414401600D5341FEE4F509F50AAF41D4
:040BE600120ACA2203
:100BEA00E5414408600D5341F7E4F509F50AAF41C0
:040BFA00120ACA22EF
:010C6500226C
:100B3200E54120E21830810853417F43410480039C
:0E0B4200434184E4F509F50AAF41120ACA22C4
:100B50003080085341BF4341028003434142E4F5E2
:080B600009F50AAF41020ACABF
:100B68003083085341DF4341018003434121E4F5C9
:080B780009F50AAF41020ACAA7
:100B80003082085341EF4341088003434118E4F5A4
:080B900009F50AAF41020ACA8F
:10053700752AFF752B0B752CAE752DFF752E0B7558
:100547002F32753000753100753200753300753400
:10055700007535007536007537007538007BFF7AF2
:100567000C79191208B7752AFF752B0B752CC275F4
:100577002DFF752E0B752F507530007531007532B4
:100587000075330075340075350075360075370012
:100597007538007BFF7A0C79221208B7752AFF7528
:1005A7002B0B752CD6752DFF752E0B752F68753097
:1005B70000753100753200753300753400753500EC
:1005C7007536007537007538007BFF7A0C792B126A
:1005D70008B7752AFF752B0B752CEA752DFF752E3D
:1005E7000B752F807530007531007532007533003B
:1005F7007534007535007536007537007538007B22
:10060700FF7A0C79341208B7752AFF752B0C752CF5
:1006170065752D00752E00752F007530007531003A
:100627007532007533007534007535007536007501
:0E06370037007538007BFF7A0C793D0208B75A
:090C460043B31F53B4E00205376B
:030000000209569C
:0C095600787FE4F6D8FD7581D302099D7E
:08000300120AF0120B1380FB3E
:10077F0020604200000000000000000000000000A8
:10078F00000000000000000000000000000000005A
:10079F00000000000000000000000000000000004A
:1007AF00000000000000000000000000000000003A
:1007BF00000000000000000000000000000000002A
:1007CF00000000000000000000000000000000001A
:1007DF000000002032A20000000000000000000016
:1007EF0000000000000000000000000000000000FA
:1007FF0000000000000000000000000000000000EA
:08080F000000000000000000E1
:100A5500E4F527F528F528E52875F013A42442F8D0
:100A6500860308E6FA08E64A4B6021E52875F01387
:100A7500A42442F808E6FA08E6F912073BBF010C80
:100A8500E52875F013A42454F8E642270528E5283F
:070A9500C3940540C2AF2726
:010A9C002237
:1008B7007F0178A1E6FEC3940540021F2278A1E6D6
:1008C700FD75F013A42442F8A60308A60208A601A2
:1008D700AA2BA92CED75F013A42445F8A62A08A67F
:1008E7000208A601AA2EA92FED75F013A42448F833
:1008F700A62D08A60208A601AA31A932ED75F013A4
:10090700A4244BF8A63008A60208A601AA34A935E4
:10091700ED75F013A4244EF8A63308A60208A60125
:10092700AA37A938ED75F013A42451F8A63608A6FE
:100937000208A601EFA805088002C333D8FCFFEE22
:0E09470075F013A42454F8A60778A1067F01CA
:01095500227F
:10000E008F2B8D2CE52C75F00AA424A7F806E52C71
:10001E0075F00AA424A8F806E52B6011E52C75F0FE
:10002E000AA424A6F8E52B667003020168E52C7578
:10003E00F00AA424A5F9C3E7940319E7940050131A
:10004E00E52C75F00AA424A4F80806E6187001063B
:10005E00020294E52C75F00AA424A3F9C3E7942CAC
:10006E0019E79401402DE52C75F00AA424ABF8E4B1
:10007E00F6E52C75F013A4244EF8860308E6FA086C
:10008E00E64A4B700302014DE52C75F013A4244E85
:10009E00020143E52C75F00AA424A3F9C3E79403E7
:1000AE0019E79400500302014DE52C75F013A424BA
:1000BE0051F8860308E6FA08E64A4B605CE52C75B3
:1000CE00F00AA424ABF8E6B40104E4F68071E52C42
:1000DE0075F00AA424AAF8E6B40126E52C75F013EF
:1000EE00A42448F8860308E6FA08E64A4B6012E5AF
:1000FE002C75F013A42448F808E6FA08E6F912075E
:10010E003BE52C75F00AA424A8F8E4F6E52C75F06E
:10011E000AA424AAF876018026E52C75F013A424EF
:10012E0048F8860308E6FA08E64A4B6012E52C7595
:10013E00F013A42448F808E6FA08E6F912073BE59E
:10014E002C75F00AA424A6F8A62BE52C75F00AA4AB
:10015E0024A2F8E4F608F6020294E52C75F00AA43F
:10016E0024A2F80806E618700106E52C75F00AA41C
:10017E0024A3F9E764031947600302024FE52C75C7
:10018E00F00AA424A4F8E4F608F6E52C75F013A4FE
:10019E002451F8860308E6FA08E64A4B7003020279
:1001AE0031E52C75F00AA424AAF8E664017051E535
:1001BE002C75F00AA424A7F8E6C394325042E52C1D
:1001CE0075F00AA424ABF87601E52C75F00AA42488
:1001DE00AAF8E4F6E52C75F00AA424A9F8E4F6E5ED
:1001EE002C75F013A42451F8860308E6FA08E64AA3
:1001FE004B7003020294E52C75F013A42451807CFD
:10020E00E52C75F00AA424ABF8E4F6E52C75F00A9B
:10021E00A424A9F87601E52C75F00AA424A7F8E425
:10022E00F68063E52C75F013A42445F8860308E6E2
:10023E00FA08E64A4B604FE52C75F013A42445806E
:10024E003BE52C75F00AA424A3F9E7642C7004197D
:10025E00E764017031E52C75F00AA424ABF8E4F6DE
:10026E00E52C75F013A4244BF8860308E6FA08E68D
:10027E004A4B6012E52C75F013A4244BF808E6FAED
:10028E0008E6F912073BE52C75F013A42451F88605
:10029E000308E6FA08E64A4B7003020347E52C759D
:1002AE00F00AA424A9F8E664017040E52C75F00A62
:1002BE00A424A7F8E6C394324031E52C75F00AA4C5
:1002CE0024A9F8E4F6E52C75F013A42445F886036A
:1002DE0008E6FA08E64A4B6012E52C75F013A424E2
:1002EE0045F808E6FA08E6F912073BE52C75F00A20
:1002FE00A424AAF8E664017040E52C75F00AA42443
:10030E00A8F8E6C394324031E52C75F00AA424AA6D
:10031E00F8E4F6E52C75F013A42448F8860308E6F5
:10032E00FA08E64A4B6012E52C75F013A42448F83F
:0A033E0008E6FA08E6F912073B2270
:020A9D008F27A1
:100A9F00E4F528752901F52AF528AF28E529A807D7
:100AAF00088002C333D8FC5527F52AAD28FF120062
:0A0ABF000E0528E528C3940540E069
:010AC900220A
:080C4F00E4FF120A55020A9DA0
:070C5E0053B13F43B2C02275
:10096200020003E493A3F8E493A34003F68001F2A8
:1009720008DFF48029E493A3F85407240CC8C33396
:10098200C4540F4420C8834004F456800146F6DF65
:10099200E4800B0102040810204080900741E47EAD
:1009A200019360BCA3FF543F30E509541FFEE4935A
:1009B200A360010ECF54C025E060A840B8E493A321
:1009C200FAE493A3F8E493A3C8C582C8CAC583CA4C
:1009D200F0A3C8C582C8CAC583CADFE9DEE780BE04
:0108170000E0
:10064500E709F608DFFA8046E709F208DFFA803E97
:1006550088828C83E709F0A3DFFA8032E309F60884
:10066500DFFA8078E309F208DFFA807088828C83EC
:10067500E309F0A3DFFA806489828A83E0A3F608A0
:10068500DFFA805889828A83E0A3F208DFFA804C7A
:1006950080D280FA80C680D4806980F28033801051
:1006A50080A680EA809A80A880DA80E280CA8033BA
:1006B50089828A83ECFAE493A3C8C582C8CCC58332
:1006C500CCF0A3C8C582C8CCC583CCDFE9DEE78002
:1006D5000D89828A83E493A3F608DFF9ECFAA9F081
:1006E500EDFB2289828A83ECFAE0A3C8C582C8CCD7
:1006F500C583CCF0A3C8C582C8CCC583CCDFEADEF0
:10070500E880DB89828A83E493A3F208DFF980CC51
:1007150088F0EF60010E4E60C388F0ED2402B4044A
:100725000050B9F582EB2402B4040050AF232345F1
:060735008223900695737B
:06073B008A838982E47349
:00000001FF
