:10075F0002080000020A0000020C0000020E000056
:10076F000210000002120000021400000216000026
:08077F0002180000021A00003C
:100D22005389F0438902538EF7758C7B758A7BD287
:060D3200A9D2AFD28C2211
:03000B0002086088
:0B086000C0E0C0D075D000C006C0078B
:10086B000509E50970020508050BE50B7002050A81
:10087B00050DE50D7002050C050FE50F7002050E59
:10088B000511E51170020510051BE51B7002051A19
:10089B00C3E5099464E508940040097508007509DF
:1008AB0000753A01C374109513FF74279512FEC39C
:1008BB00E50B9FE50A9E400F751223751328750AE9
:1008CB0000750B00753C01C374109515FF742795CB
:1008DB0014FEC3E50D9FE50C9E400F751423751593
:1008EB0028750C00750D00753D01C374109517FF2D
:1008FB0074279516FEC3E50F9FE50E9E400F7516E8
:10090B00267517AC750E00750F00753B01C374107F
:10091B009519FF74279518FEC3E5119FE5109E40AE
:10092B000F7518267519AC75100075110075380107
:10093B00C3E51B9488E51A94134008751A00751BC0
:03094B0000B28770
:09094E00D007D006D0D0D0E03271
:100D380080402010040201080000000000000000AC
:10078700013900013A00013C00013B00013800013A
:100797003D005600000000000000000000000000BF
:1007A7000000000000000000000000012E00012FE3
:0D07B70000043000000000043400000000C9
:0F0D480053B33F43B4C053ACFE43AD01D2B0220E
:070DF10043B10F53B2F022E1
:10034800853E1C781D7C007D007BFF7A0D79407E00
:10035800007F0412060FE4A28133F51DA280E43366
:10036800F51EA283E433F51FA282E433F520900042
:0703780015E0700302043AD6
:10037F00900002E0600302053E900007E060030278
:10038F00053E90000CE0600302053E900011E06016
:10039F000302053EE4FF74302FF8E6FE741D2FF8BC
:1003AF00E6FD6E6008EDB40104EF04F52EE6FE7471
:1003BF00302FF8A6060FBF04DDE52F652E602585CB
:1003CF002E2FE4FFEF2401FDE433FCE52EB5050EDF
:1003DF00E4B5040A533E0FEF900D3893423E0FBF22
:1003EF0004E2802D741C252EF8E66013E52E900D87
:1003FF003793FE553E6003020533EE423E8012E511
:10040F002E900D3793FE553E7003020533EEF452D6
:10041F003E9000027401F0900007F090000CF090F5
:08042F000011F0E4900014F04C
:10043700020533E4FFEF75F005A42404F582E434E4
:1004470000F583E064016003020501EF75F005A480
:100457002400F582E43400F583E475F001120635D3
:10046700EF900D3893553E7003020501EF75F005C7
:10047700A42403F582E43400F583E07023EF75F0DC
:1004870005A42400F582E43400F583E4F0A3F0EF3B
:1004970075F005A42403F582E43400F5837401F0B4
:1004A700EF75F005A42400F582E43400F583E0FC41
:1004B700A3E0C39407EC94004040EF75F005A42433
:1004C70000F582E43400F583E4F0A3F0EF75F0055E
:1004D700A42403F582E43400F583E4F0EF900D38AB
:1004E70093F4523EEF75F005A42402F582E434003C
:1004F700F5837401F0E4900014F0EF75F005A4247F
:1005070002F582E43400F583E07018741D2FF8E6D5
:100517006009EF900D3893423E8008EF900D3893B5
:10052700F4523E0FEF6404600302043CE53E651C91
:070537006005AF3E120CDD70
:01053E00229A
:10095700E4F51C853E1D781E7C00FD7BFF7A0D7932
:1009670044FE7F0412060F900014E004F0E0640ACE
:100977006003020A05A28133F51EA280E433F51F46
:10098700A283E433F520A282E433F521E4F51CE5E4
:100997001C75F005A42402F582E43400F583E060B9
:1009A7004E741E251CF8E6FF7E00C37407951CFDD8
:1009B700EFA805088005C333CE33CED8F9FFE51C71
:1009C700900D3893553E6F7001EE60127434251CFC
:1009D700F87601E51C900D3C93F4523E8011E51C1E
:1009E70075F005A42402F582E43400F583E4F005EC
:1009F7001CE51CB40499E53E651D6036802D90000A
:100A070014E0C3940B402BE4F0F51C7434251CF858
:100A1700E6B4010AE51C900D3C93423EE4F6051C42
:100A2700E51CB404E6E53E651D6007B286AF3E12DD
:020A37000CDDD4
:010A3900229A
:100D0300E53A6006E4F53A120DE9E53D6006E4F5DF
:0F0D13003D120348E53C6006E4F53C1209572207
:100C8200120D487F0F120CDD120DF8120DC0120D5D
:100C9200F1120D229000047401F0900009F0E4902A
:0E0CA200000EF0900013F0900015F0C28622B4
:100CDD00E4FEC2AFEFC4131313540124FF92B0EF1F
:100CED0025E0FFC29600D2960EBE08E8C29700D24C
:050CFD0097C2B0D2AF68
:010D020022CE
:0307C400013E0FE4
:090D93002093037F01227F00225E
:090D9C002092037F01227F002256
:090DA5002091037F01227F00224E
:090DAE002090037F01227F002246
:090DB7002094037F01227F002239
:0F0D5700E53E44046008533EFBAF3E120CDD2224
:0F0D6600E53E44026008533EFDAF3E120CDD2215
:0F0D7500E53E44016008533EFEAF3E120CDD2206
:0F0D8400E53E44086008533EF7AF3E120CDD22F7
:010DFF0022D1
:100BAD00E53E20E21C308105533E7F800C90001500
:100BBD00E06003533E0F433E80433E04AF3E120CB4
:100BCD00DD9000027401F0900007F090000CF090A1
:090BDD000011F0E4900014F02274
:100BE600308005533EBF800C900015E06003533EF5
:100BF6000F433E40433E02AF3E120CDD90000274AE
:100C060001F0900007F090000CF0900011F0E490D5
:040C16000014F022B4
:100C1A00308305533EDF800C900015E06003533E9D
:100C2A000F433E20433E01AF3E120CDD900002749A
:100C3A0001F0900007F090000CF0900011F0E490A1
:040C4A000014F02280
:100C4E00308205533EEF800C900015E06003533E5A
:100C5E000F433E10433E08AF3E120CDD900002746F
:100C6E0001F0900007F090000CF0900011F0E4906D
:040C7E000014F0224C
:08000300433E04AF3E020CDD98
:080DC900433E02AF3E020CDDC7
:080DD100433E01AF3E020CDDC0
:080DD900433E08AF3E020CDDB1
:10065100751FFF75200D7521577522FF75230B75C9
:1006610024AD7525007526007527007528FF7529AD
:1006710000752A03752B00752C00752D007BFF7A00
:100681000D7993120A3A751FFF75200D7521667554
:1006910022FF75230B7524E6752500752600752745
:1006A100007528FF75290D752AC9752B00752C0059
:1006B100752D007BFF7A0D799C120A3A751FFF7523
:1006C100200D7521757522FF75230C75241A75256A
:1006D100007526007527007528FF75290D752AD12B
:1006E100752B00752C00752D007BFF7A0D79A512F5
:1006F1000A3A751FFF75200D7521847522FF752338
:100701000C75244E7525007526007527007528FF88
:1007110075290D752AD9752B00752C00752D007B57
:10072100FF7A0D79AE120A3A751FFF75200D7521FA
:10073100FF752200752300752400752500752600BC
:10074100752700752800752900752A00752B00751D
:0E0751002C00752D007BFF7A0D79B7020A3A55
:090DC00043B31F53B4E0020651D5
:03000000020AD918
:0C0AD900787FE4F6D8FD7581D0020B2078
:080DE100120C82120D0380FBCD
:1007C70020603F0000000000000000000000000063
:1007D7000000000000000000000000000000000012
:1007E7000000000000000000000000000000000002
:1007F70000000000000000000000000000000000F2
:1008070000000000000000000000000000000000E1
:1008170000000000000000000000000000000000D1
:1008270000000020329F00000000000000000000D0
:1008370000000000000000000000000000000000B1
:1008470000000000000000000000000000000000A1
:08085700000000000000000099
:100B6500E4F51CF51DF51DE51D75F013A4243FF8EE
:100B7500860308E6FA08E64A4B6021E51D75F01381
:100B8500A4243FF808E6FA08E6F912064BBF010C63
:100B9500E51D75F013A42451F8E6421C051DE51D5D
:070BA500C3940540C2AF1C20
:010BAC002226
:100A3A007F01789EE6FEC3940540021F22789EE657
:100A4A00FD75F013A4243FF8A60308A60208A60120
:100A5A00AA20A921ED75F013A42442F8A61F08A61E
:100A6A000208A601AA23A924ED75F013A42445F8C7
:100A7A00A62208A60208A601AA26A927ED75F01340
:100A8A00A42448F8A62508A60208A601AA29A92A84
:100A9A00ED75F013A4244BF8A62808A60208A601AF
:100AAA00AA2CA92DED75F013A4244EF8A62B08A69E
:100ABA000208A601EFA805088002C333D8FCFFEE9E
:0E0ACA0075F013A42451F8A607789E067F014C
:010AD80022FB
:10000E008F208D21E52175F00AA424A4F806E521A0
:10001E0075F00AA424A5F806E5206011E52175F017
:10002E000AA424A3F8E520667003020168E5217591
:10003E00F00AA424A2F9C3E7940319E7940050131D
:10004E00E52175F00AA424A1F80806E61870010649
:10005E00020294E52175F00AA424A0F9C3E7942CBA
:10006E0019E79401402DE52175F00AA424A8F8E4BF
:10007E00F6E52175F013A4244BF8860308E6FA087A
:10008E00E64A4B700302014DE52175F013A4244B93
:10009E00020143E52175F00AA424A0F9C3E79403F5
:1000AE0019E79400500302014DE52175F013A424C5
:1000BE004EF8860308E6FA08E64A4B605CE52175C1
:1000CE00F00AA424A8F8E6B40104E4F68071E52150
:1000DE0075F00AA424A7F8E6B40126E52175F013FD
:1000EE00A42445F8860308E6FA08E64A4B6012E5B2
:1000FE002175F013A42445F808E6FA08E6F912066D
:10010E004BE52175F00AA424A5F8E4F6E52175F077
:10011E000AA424A7F876018026E52175F013A424FD
:10012E0045F8860308E6FA08E64A4B6012E52175A3
:10013E00F013A42445F808E6FA08E6F912064BE592
:10014E002175F00AA424A3F8A620E52175F00AA4CF
:10015E00249FF8E4F608F6020294E52175F00AA44D
:10016E00249FF80806E618700106E52175F00AA42A
:10017E0024A0F9E764031947600302024FE52175D5
:10018E00F00AA424A1F8E4F608F6E52175F013A40C
:10019E00244EF8860308E6FA08E64A4B700302027C
:1001AE0031E52175F00AA424A7F8E664017051E543
:1001BE002175F00AA424A4F8E6C394325042E52136
:1001CE0075F00AA424A8F87601E52175F00AA42496
:1001DE00A7F8E4F6E52175F00AA424A6F8E4F6E5FE
:1001EE002175F013A4244EF8860308E6FA08E64AB1
:1001FE004B7003020294E52175F013A4244E807C0B
:10020E00E52175F00AA424A8F8E4F6E52175F00AB4
:10021E00A424A6F87601E52175F00AA424A4F8E436
:10022E00F68063E52175F013A42442F8860308E6F0
:10023E00FA08E64A4B604FE52175F013A42442807C
:10024E003BE52175F00AA424A0F9E7642C7004198B
:10025E00E764017031E52175F00AA424A8F8E4F6EC
:10026E00E52175F013A42448F8860308E6FA08E69B
:10027E004A4B6012E52175F013A42448F808E6FAFB
:10028E0008E6F912064BE52175F013A4244EF88604
:10029E000308E6FA08E64A4B7003020347E52175A8
:1002AE00F00AA424A6F8E664017040E52175F00A70
:1002BE00A424A4F8E6C394324031E52175F00AA4D3
:1002CE0024A6F8E4F6E52175F013A42442F886037B
:1002DE0008E6FA08E64A4B6012E52175F013A424ED
:1002EE0042F808E6FA08E6F912064BE52175F00A1F
:1002FE00A424A7F8E664017040E52175F00AA42451
:10030E00A5F8E6C394324031E52175F00AA424A77E
:10031E00F8E4F6E52175F013A42445F8860308E603
:10032E00FA08E64A4B6012E52175F013A42445F84D
:0A033E0008E6FA08E6F912064B2261
:020CB0008F1C97
:100CB200E4F51D751E01F51FF51DAF1DE51EA80704
:100CC200088002C333D8FC551CF51FAD1DFF12006E
:0A0CD2000E051DE51DC3940540E06A
:010CDC0022F5
:080DE900E4FF120B65020CB0DF
:070DF80053B13F43B2C022DA
:100AE500020DE1E493A3F8E493A34003F68001F239
:100AF50008DFF48029E493A3F85407240CC8C33312
:100B0500C4540F4420C8834004F456800146F6DFE0
:100B1500E4800B010204081020408090075FE47E0A
:100B2500019360BCA3FF543F30E509541FFEE493D5
:100B3500A360010ECF54C025E060A840B8E493A39C
:100B4500FAE493A3F8E493A3C8C582C8CAC583CAC7
:100B5500F0A3C8C582C8CAC583CADFE9DEE780BE7F
:01085F000098
:10053F00E709F608DFFA8046E709F208DFFA803E9E
:10054F0088828C83E709F0A3DFFA8032E309F6088B
:10055F00DFFA8078E309F208DFFA807088828C83F3
:10056F00E309F0A3DFFA806489828A83E0A3F608A7
:10057F00DFFA805889828A83E0A3F208DFFA804C81
:10058F0080D280FA80C680D4806980F28033801058
:10059F0080A680EA809A80A880DA80E280CA8033C1
:1005AF0089828A83ECFAE493A3C8C582C8CCC58339
:1005BF00CCF0A3C8C582C8CCC583CCDFE9DEE78009
:1005CF000D89828A83E493A3F608DFF9ECFAA9F088
:1005DF00EDFB2289828A83ECFAE0A3C8C582C8CCDE
:1005EF00C583CCF0A3C8C582C8CCC583CCDFEADEF7
:1005FF00E880DB89828A83E493A3F208DFF980CC59
:10060F0088F0EF60010E4E60C388F0ED2402B40451
:10061F000050B9F582EB2402B4040050AF232345F8
:06062F00822390058F7389
:10063500C5F0F8A3E028F0C5F0F8E5821582700250
:060645001583E038F022ED
:06064B008A838982E4733A
:00000001FF
