:100D8C00023100000233000002350000023700007F
:080D9C0002390000023B0000D7
:101B26005389F0438902538EF7758C7B758A7BD275
:061B3600A9D2AFD28C22FF
:101B520053890F438910538E7F758DF5758B95D2FE
:041B6200ABD28E2252
:03001B00021C299B
:0A1C2900758DF5758B957517013266
:03000B000213F3EA
:0B13F300C0E0C0D075D000C006C007ED
:1013FE000532E532700205310534E53470020533ED
:10140E000536E53670020535053CE53C7002053BB8
:10141E00C3E5329464E531940040097531007532AC
:10142E0000751C01C374109538FF74279537FEC3E1
:10143E00E5349FE5339E400F753723753828753395
:10144E0000753400751D01C37410953AFF7427950D
:10145E0039FEC3E5369FE5359E400F753923753A43
:0A146E0028753500753600751E0163
:09147800D007D006D0D0D0E0323C
:101B7A00804020100402010800000000000000005C
:041B8A000000000057
:100DA400011C00011D00011E00011A0001170001B1
:100DB4001B0001190001180560290104000000004E
:100DC400000000000000000000000000000000001F
:100DD400000000000000000000000000000000000F
:100DE4000000000000010800010900040A000000DE
:100DF40000040E00000000011200011300011400A1
:040E040002150000D3
:0F00540053B33F43B4C053ACFE43AD01D2B0220F
:071C720043B10F53B2F02251
:100B8700853D1F78207C007D007BFF7A1B79827E64
:100B9700007F04120799E4A28133F520A280E43391
:100BA700F521A284E433F522A283E433F5239001EF
:070BB7002AE07003020C802C
:100BBE00900106E06003020D8B90010FE0600302CE
:100BCE000D8B900118E06003020D8B900121E06007
:100BDE0003020D8BE4FF740A2FF8E6FE74202FF843
:100BEE00E6FD6E6008EDB40104EF04F508E6FE7450
:100BFE000A2FF8A6060FBF04DDE5096508602585F6
:100C0E000809E4FFEF2401FDE433FCE508B5050E09
:100C1E00E4B5040A533D0FEF901B7A93423D0FBF8C
:100C2E0004E2802D741F2508F8E66013E508901B7A
:100C3E007993FE553D6003020D80EE423D8012E534
:100C4E0008901B7993FE553D7003020D80EEF45211
:100C5E003D9001067401F090010FF0900118F09094
:0F0C6E000121F0E4900128F090012BF07518059A
:100C7D00020D80E4FFEF75F009A42408F582E43439
:100C8D0001F583E064016003020D4EEF75F009A4D8
:100C9D002404F582E43401F583E475F0011208268D
:100CAD00EF901B7A93553D7003020D4EEF75F009D1
:100CBD00A42407F582E43401F583E07023EF75F089
:100CCD0009A42404F582E43401F583E4F0A3F0EFE4
:100CDD0075F009A42407F582E43401F5837401F05D
:100CED00EF75F009A42404F582E43401F583E0FCEA
:100CFD00A3E0C39407EC94004047EF75F009A424DA
:100D0D0004F582E43401F583E4F0A3F0EF75F00906
:100D1D00A42407F582E43401F583E4F0EF901B7A07
:100D2D0093F4523DEF75F009A42406F582E43401E5
:100D3D00F5837401F0E4900128F090012BF0751803
:100D4D0005EF75F009A42406F582E43401F583E07E
:100D5D00701874202FF8E66009EF901B7A93423DCE
:100D6D008008EF901B7A93F4523D0FEF64046003FB
:0E0D7D00020C82E53D651F6005AF3D1218B007
:010D8B002245
:10118B00E4F51F853D2078217C00FD7BFF7A1B79E0
:10119B0086FE7F04120799900128E004F0E06518A1
:1011AB006003021239A28133F521A280E433F522C8
:1011BB00A284E433F523A283E433F524E4F51FE59D
:1011CB001F75F009A42406F582E43401F583E06071
:1011DB004E7421251FF8E6FF7E00C37407951FFD93
:1011EB00EFA805088005C333CE33CED8F9FFE51F32
:1011FB00901B7A93553D6F7001EE6012740E251F94
:10120B00F87601E51F901B7E93F4523D8011E51F8C
:10121B0075F009A42406F582E43401F583E4F005A6
:10122B001FE51FB40499E53D65206042803BE5183E
:10123B002401FFE433FE900128E0C39FEE6480F8A5
:10124B007480984029E4F0F51F740E251FF8E6B45E
:10125B00010AE51F901B7E93423DE4F6051FE51F37
:0E126B00B404E6E53D65206005AF3D1218B005
:011279002252
:101A4100E51C6006E4F51C120003E51E6006E4F5E2
:0F1A51001E120B87E51D6006E4F51D12118B2296
:10182200E51A602E90012AE090012DF0900108E067
:1018320090012EF0900111E090012FF090011AE03A
:10184200900130F0900123E0900131F012000EE49B
:03185200F51A2262
:1018FB00051290012CE0600DE512C394644011E4D5
:10190B00F512B2862290012AE06003D28622C286AB
:01191B0022A9
:101855000513E513C394644012E51B600EE4F5130C
:10186500308706C28705198002D287E519C394041B
:0D187500400BE51B6007C287E4F519F51B69
:011882002243
:10134300051490012CE060030213F2900112E0FCFB
:10135300A3E0FDA3E0FEA3E0FF9000FCE0F8A3E020
:10136300F9A3E0FAA3E0FBC312084A60579001090E
:10137300E0FCA3E0FDA3E0FEA3E0FF9000FCE0F8A7
:10138300A3A3A3E0C312084A603A90011BE0FCA3A5
:10139300E0FDA3E0FEA3E0FF9000FCE0F8A3A3A31D
:1013A300E0C312084A601D900124E0FCA3E0FDA302
:1013B300E0FEA3E0FF9000FCE0F8A3A3A3E0C312C8
:1013C300084A702BD3900101E09400900100E0944F
:1013D30000400BE514940F4005E4F514B287C39065
:0F13E3000103E09464900102E094004002C2878D
:0113F20022D8
:091C33001218FB121855021343AC
:1015E700900129E0FB605890012CE06052900100C7
:1015F700E0FEA3E0FF640A4E7007751B01F519C2F0
:1016070087C3EF940AEE94004035900103E0949667
:10161700900102E0940040279000FCE0FCA3E0FD6D
:10162700A3E0FEA3E0FFEB75F009A42400F582E434
:101637003401F58312086E121A99E4900129F022F9
:100F2F00E4F51F78207C00FD7BFF7A1B798AFE7F1A
:100F3F00041207990516E5167002051590012CE0AD
:100F4F00600302107CA28133F520A280E433F521E7
:100F5F00A284E433F522A283E433F523900100E069
:100F6F007004A3E064017056F51FE51F75F009A426
:100F7F002409F582E43401F583E0FCA3E0FDA3E04E
:100F8F00FEA3E0FF9000FCE0F8A3E0F9A3E0FAA3D2
:100F9F00E0FBC312084A701C433D0FE51F901B7EF8
:100FAF0093F4523D900129E51FF0AF3D1218B0E4C4
:100FBF00F515F516051FE51FC3940440AD22C39028
:100FCF000103E09496900102E09400500302107C1C
:100FDF00900101E09401900100E094005003021091
:100FEF007C900129E075F009A42409F582E434010D
:100FFF00F583E0FCA3E0FDA3E0FEA3E0FF9000FC7F
:10100F00E0F8A3E0F9A3E0FAA3E0FBC312084A70EB
:10101F005C433D0FD3E51694C4E5159409504690F3
:10102F000129E0FF2420F8E6600AEF901B7A93F481
:10103F00523D801390012AE06003533D0F90012928
:10104F00E0901B7A93423DE4900129F09001060451
:10105F00F090010FF0900118F0900121F0E4900151
:0D106F0028F075180AAF3D1218B0121A993A
:01107C002251
:101B6600E517600FE4F5171208B1121C331215E7DA
:041B7600120F2F22F9
:10150D001219A090012DE090012AF090012EE0908B
:10151D000108F090012FE0900111F0900130E09062
:10152D00011AF0900131E0900123F090012AE0F4CE
:10153D00601C900108E0F46015900111E0F4600E5C
:10154D0090011AE0F46007900123E0B4FF15E490D8
:10155D00012AF0900108F0900111F090011AF0901D
:0F156D000123F090012AE06003D28622C2862279
:101A600012150D1200547F0F1218B0121C79121C9F
:0D1A700069121C72121C1D121B52021B2653
:1018B000E4FEC2AFEFC4131313540124FF92B0EF40
:1018C00025E0FFC29600D2960EBE08E8C29700D26D
:0518D00097C2B0D2AF89
:0118D50022F0
:030E0800013D0F9A
:091C3C002093037F01227F0022A6
:091C45002092037F01227F00229E
:091C4E002091037F01227F002296
:091C57002090037F01227F00228E
:091C60002094037F01227F002281
:10191C0090012CE0600C121A99D287900129740165
:10192C00F022E53D44046008533DFBAF3D1218B076
:01193C002288
:10193D0090012CE0600C121A99D287900129740243
:10194D00F022E53D44026008533DFDAF3D1218B055
:01195D002267
:10195E0090012CE0600C121A99D287900129740321
:10196E00F022E53D44016008533DFEAF3D1218B034
:01197E002246
:10197F0090012CE0600C121A99D2879001297404FF
:10198F00F022E53D44086008533DF7AF3D1218B013
:01199F002225
:0F1C000090012CE06008E4F0900129F0C28722E7
:1016A30090012CE07045308105533D7F800C900103
:1016B3002AE06003533D0F433D80433D04AF3D1299
:1016C30018B090012BE0B40107E4F075180A800309
:1016D3007518059001067401F090010FF090011840
:0E16E300F0900121F0E4900128F022C287224D
:1016F10090012CE07045308005533DBF800C900176
:101701002AE06003533D0F433D40433D02AF3D128C
:1017110018B090012BE0B40107E4F075180A8003BA
:101721007518059001067401F090010FF0900118F1
:0E173100F0900121F0E4900128F022C28722FE
:10173F0090012CE07045308405533DDF800C900103
:10174F002AE06003533D0F433D20433D01AF3D125F
:10175F0018B090012BE0B40107E4F075180A80036C
:10176F007518059001067401F090010FF0900118A3
:0E177F00F0900121F0E4900128F022C28722B0
:10178D0090012CE07045308305533DEF800C9001A6
:10179D002AE06003533D0F433D10433D08AF3D121A
:1017AD0018B090012BE0B40107E4F075180A80031E
:1017BD007518059001067401F090010FF090011855
:0E17CD00F0900121F0E4900128F022C2872262
:101AB20090012CE06004E4F0800790012C7401F0A6
:081AC200E4900129F0C2872223
:101B8E0090012CE0600C90010912087A0000000010
:031B9E00C28722D9
:101BA10090012CE0600C90011212087A00000000F4
:031BB100C28722C6
:101BB40090012CE0600C90011B12087A00000000D8
:031BC400C28722B3
:101BC70090012CE0600C90012412087A00000000BC
:031BD700C28722A0
:101ACA0090012CE07010433D0475180A90012B0414
:071ADA00F0AF3D1218B0222D
:101AE10090012CE07010433D0275180A90012B04FF
:071AF100F0AF3D1218B02216
:101AF80090012CE07010433D0175180A90012B04E9
:071B0800F0AF3D1218B022FE
:101B0F0090012CE07010433D0875180A90012B04CA
:071B1F00F0AF3D1218B022E7
:1019C100900108E0B40104E4F0800690010874017C
:1019D100F09001067401F0E4900128F0751A0122DB
:1019E100900111E0B40104E4F0800690011174014A
:1019F100F090010F7401F0E4900128F0751A0122B2
:101A010090011AE0B40104E4F0800690011A740117
:101A1100F09001187401F0E4900128F0751A012288
:101A2100900123E0B40104E4F080069001237401E5
:101A3100F09001217401F0E4900128F0751A01225F
:10001E0090012AE0700604F0D2868007E490012A4F
:10002E00F0C286533D0FAF3D1218B0900106740119
:10003E00F090010FF0900118F0900121F0E4900182
:06004E0028F0751A0122E2
:10107D007522FF75231975241C7525FF75261675A8
:10108D0027A37528FF75291B752A8E752BFF752CC7
:10109D001A752DCA752EFF752F197530C17BFF7A04
:1010AD001C793C12127A7522FF75231975243D7532
:1010BD0025FF7526167527F17528FF75291B752ACD
:1010CD00A1752BFF752C1A752DE1752EFF752F1936
:1010DD007530E17BFF7A1C794512127A7522FF7506
:1010ED00231975245E7525FF75261775273F7528FD
:1010FD00FF75291B752AB4752BFF752C1A752DF8E4
:10110D00752EFF752F1A7530017BFF7A1C794E12E3
:10111D00127A7522FF75231975247F7525FF7526A3
:10112D001775278D7528FF75291B752AC7752BFF18
:10113D00752C1B752D0F752EFF752F1A7530217B94
:10114D00FF7A1C795712127A7522007523007524C7
:10115D00007525FF75261C7527007528FF75291A42
:10116D00752AB2752B00752C00752D00752EFF7527
:0E117D002F0075301E7BFF7A1C796002127AFB
:091C690043B31F53B4E002107DE7
:0300000002148166
:0C148100787FE4F6D8FD75813E0214C8A7
:0E1C0F00121A60121A41121B6612182280F57A
:100E0B006060000000000000000000000000000017
:100E1B0000000000000000000000000000000000C7
:100E2B0000000000000000000000000000000000B7
:100E3B0000000000000000000000000000000000A7
:100E4B000000000000000000000000000000000097
:100E5B000000000000000000000000000000000087
:100E6B000000000060320060000000000000000085
:100E7B000000000000000000000000000000000067
:100E8B000000000000000000000000000000000057
:0A0E9B00000000000000000000004D
:10164700E4F51FF520F520E52075F013A42400F537
:1016570082E43400F583E0FBA3E0FAA3E0F9EA496A
:101667004B602DE52075F013A42400F582E43400C7
:10167700F583A3E0FAA3E0F91208ABBF0112E52056
:1016870075F013A42412F582E43400F583E0421FB9
:0B1697000520E520C3940540AEAF1F06
:0116A2002225
:10127A007F0190005FE0FEC3940540021F229000A8
:10128A005FE0FD75F013A42400F582E43400F583D1
:10129A00EBF0A3EAF0A3E9F0ED75F013A42403F54B
:1012AA0082E43400F583E522F0A3E523F0A3E524E4
:1012BA00F0ED75F013A42406F582E43400F583E515
:1012CA0025F0A3E526F0A3E527F0ED75F013A42495
:1012DA0009F582E43400F583E528F0A3E529F0A3B3
:1012EA00E52AF0ED75F013A4240CF582E43400F538
:1012FA0083E52BF0A3E52CF0A3E52DF0ED75F013B3
:10130A00A4240FF582E43400F583E52EF0A3E52F3B
:10131A00F0A3E530F0EFA805088002C333D8FCFF3C
:10132A00EE75F013A42412F582E43400F583EFF08D
:08133A0090005FE004F07F0168
:011342002288
:100066008F238D24E52475F00AA42465F582E434F3
:1000760000F583E004F0E52475F00AA42466F58211
:10008600E43400F583E004F0E5236017E52475F019
:100096000AA42464F582E43400F583E06523700342
:1000A600020264E52475F00AA42462F582E43400B1
:1000B600F583E0FEA3E0C39402EE94005019E52414
:1000C60075F00AA42462F582E43400F583E475F041
:1000D60001120826020416E52475F00AA42460F528
:1000E60082E43400F583E0FEA3E0C3942CEE940191
:1000F6004040E52475F00AA42469F582E43400F54D
:1001060083E4F0E52475F013A4240CF582E43400AE
:10011600F583E0FBA3E0FAA3E0F9EA494B7003029A
:10012600023CE52475F013A4240CF582E4340002A5
:100136000231E52475F00AA42460F582E43400F562
:1001460083E0FEA3E0C39402EE9400500302023C57
:10015600E52475F013A4240FF582E43400F583E05A
:10016600FBA3E0FAA3E0F9EA494B7003020208E5B3
:100176002475F00AA42469F582E43400F583E0B41A
:100186000114E52475F00AA42469F582E43400F527
:1001960083E4F002023CE52475F00AA42468F582A3
:1001A600E43400F583E0B40134E52475F013A424A7
:1001B60006F582E43400F583E0FBA3E0FAA3E0F958
:1001C600EA494B6018E52475F013A42406F582E489
:1001D6003400F583A3E0FAA3E0F91208ABE5247531
:1001E600F00AA42466F582E43400F583E4F0E524FD
:1001F60075F00AA42468F582E43400F5837401F0EE
:100206008034E52475F013A42406F582E43400F561
:1002160083E0FBA3E0FAA3E0F9EA494B6018E52482
:1002260075F013A42406F582E43400F583A3E0FAFE
:10023600A3E0F91208ABE52475F00AA42464F5825C
:10024600E43400F583E523F0E52475F00AA4246080
:10025600F582E43400F583E4F0A3F0020416E52405
:1002660075F00AA42460F582E43400F583E475F0A1
:1002760001120826E52475F00AA42460F582E43408
:1002860000F583E0FEA3E064024E60030203B5E5D9
:100296002475F00AA42462F582E43400F583E4F0C0
:1002A600A3F0E52475F013A4240FF582E43400F5D9
:1002B60083E0FBA3E0FAA3E0F9EA494B70030203EB
:1002C6008AE52475F00AA42468F582E43400F583EF
:1002D600E064017078E52475F00AA42465F582E4EB
:1002E6003400F583E0C3941E5063E52475F00AA438
:1002F6002469F582E43400F5837401F0E52475F091
:100306000AA42468F582E43400F583E4F0E5247554
:10031600F00AA42467F582E43400F583E4F0E524CA
:1003260075F013A4240FF582E43400F583E0FBA3F3
:10033600E0FAA3E0F9EA494B7003020416E52475D6
:10034600F013A4240FF582E4340002040BE52475AF
:10035600F00AA42469F582E43400F583E4F0E52488
:1003660075F00AA42467F582E43400F5837401F07D
:10037600E52475F00AA42465F582E43400F583E4E7
:10038600F0020416E52475F013A42403F582E43480
:1003960000F583E0FBA3E0FAA3E0F9EA494B6070BD
:1003A600E52475F013A42403F582E434008056E5B1
:1003B6002475F00AA42460F582E43400F583E0FE97
:1003C600A3E0642C7003EE64017045E52475F00A21
:1003D600A42469F582E43400F583E4F0E52475F09D
:1003E60013A42409F582E43400F583E0FBA3E0FAC4
:1003F600A3E0F9EA494B6018E52475F013A4240933
:10040600F582E43400F583A3E0FAA3E0F91208AB21
:10041600E52475F013A4240FF582E43400F583E097
:10042600FBA3E0FAA3E0F9EA494B7003020511E5E4
:100436002475F00AA42467F582E43400F583E064A9
:1004460001705AE52475F00AA42465F582E43400A7
:10045600F583E0C3941E4045E52475F00AA424679D
:10046600F582E43400F583E4F0E52475F013A42462
:1004760003F582E43400F583E0FBA3E0FAA3E0F998
:10048600EA494B6018E52475F013A42403F582E4C9
:100496003400F583A3E0FAA3E0F91208ABE524756E
:1004A600F00AA42468F582E43400F583E064017060
:1004B6005AE52475F00AA42466F582E43400F5832F
:1004C600E0C3941E4045E52475F00AA42468F5822D
:1004D600E43400F583E4F0E52475F013A42406F56E
:1004E60082E43400F583E0FBA3E0FAA3E0F9EA49ED
:1004F6004B6018E52475F013A42406F582E4340055
:0C050600F583A3E0FAA3E0F91208AB2291
:021883008F1FB5
:10188500E4F520752101F522F520AF20E521A80713
:10189500088002C333D8FC551FF522AD20FF120086
:0A18A500660520E520C3940540E02D
:0118AF002216
:08000300E4FF12164702188306
:071C790053B13F43B2C0224A
:0D0EA5004A012DFF000000000000000000C9
:101BDA0075C7AA75C755439F0175C7AA75C75543E7
:031BEA00A5012230
:101B3C0075AF2275A738E4F5A675AEFF75C7AA7503
:061B4C00C75543A401226D
:101BED0075C7AA75C75553A5FE75C7AA75C75553B1
:031BFD009FFE2226
:1018D600E4FF75AF2175A7388FA6742D2FF582E426
:1018E6003401F583E0F5AE75C7AA75C75543A40163
:0418F6000FBF0ADE38
:0118FA0022CB
:1019A000E4FDED2400FFE434388F82F583E493FFF7
:1019B000742D2DF582E43401F583EFF00DBD0AE2BC
:0119C0002204
:0C000E00121BDA121B3C1218D6021BED6C
:100EB20060640092000000000000000000000000DA
:100EC2000000000000000000000000000000000020
:100ED2000000000000000000000000000000000010
:100EE2000000000000000000000000000000000000
:100EF20000000000000000000000000000000000F0
:100F020000000000000000000000000000000000DF
:100F120000000000000000004E00F600000000008B
:0C0F2200000000000000000000013E0084
:04157C00AB07AA0609
:10158000900093E07019C3EB94FAEA94004057304E
:101590009554A3EAF0A3EBF09000937401F0227C41
:1015A000007D05AF03AE021207BFD3900095E09F08
:1015B000900094E09E4016E53E25E02496F582E4F6
:1015C0003400F583EAF0A3EBF0053E8007E49000D9
:1015D00093F0F53EE53EC39430400BE4F53E9000B9
:0615E0009204F0E4A3F008
:0115E60022E2
:101A9900E4900100F0A3F09000FC12087A00000025
:091AA90000E49000F6F0A3F02225
:1008B100E4F522F521F520F51FF523F524F525F5BD
:1008C10026F527F528F529F52AF52BF52CF52DF533
:1008D1002E900092E064016003020B78F090010019
:1008E100E07002A3E0702D900096E0FFA3E090007D
:1008F100F8CFF0A3EFF0900098E0FFA3E09000FAAA
:10090100CFF0A3EFF0900094E0FFA3E09000F6CFCA
:10091100F0A3EFF09000FAE0FEA3E0FF9000F9E011
:100921002FF5249000F8E03EF523FEAF247C007DF6
:10093100051207D18E278F289000F6E0FEA3E0FF75
:100941007C007D051207D18E298F2AE4FBEBC3942D
:10095100304003020AA2EB25E02498F582E434003A
:10096100F583E0FEA3E0FFEB25E02496F582E43475
:1009710000F583E0FCA3E0FD2FF526EC3EF525E52F
:10098100242528FFE5233527FED3E5269FE5259E6F
:100991005014C3E5249528FFE5239527FEC3E526DA
:1009A1009FE5259E500F900103E004F07006900131
:1009B10002E004F022EB25E02498F582E43400F50E
:1009C10083E0FEA3E0FFD3ED9FEC9E4050AF22AE4B
:1009D10021AD20AC1F780112085BEF4401F522EE36
:1009E100F521EDF520ECF51FEB25E02498F582E4E7
:1009F1003400F583E0FEA3E0252CF52CEE352BF534
:100A01002BEB25E02496F582E43400F583E0FEA388
:100A1100E0252EF52EEE352DF52D020A9DEB25E074
:100A21002498F582E43400F583E0FEA3E0FFEB2592
:100A3100E02496F582E43400F583E0FCA3E0C39F53
:100A4100EC9E5049AF22AE21AD20AC1F78011208B7
:100A51005B8F228E218D208C1FEB25E02498F5825F
:100A6100E43400F583E0FEA3E0252EF52EEE352DCE
:100A7100F52DEB25E02496F582E43400F583E0FEC4
:100A8100A3E0252CF52CEE352BF52B800F900103DF
:100A9100E004F07006900102E004F0220B0B020961
:100AA1004E900094E0FEA3E0FF2528FDE5273EFCE3
:100AB1009000F6E0FAA3E0FBC39DEA9C502BC3EF44
:100AC1009528FFEE9527FED3EB9FEA9E401B9000F1
:100AD100FCE0FCA3E0FDA3E0FEA3E0FFAB22AA2122
:100AE100A920A81F12084A6078900094E0FFA3E0B3
:100AF1009000F6CFF0A3EFF0AF22AE21AD20AC1FF6
:100B01009000FC12086E900100E4F0A304F0E4A34D
:100B1100F0A3F0AE2BAF2CFC7D181207D1AC06ADC3
:100B210007E412060FE4FBFAF9783F1205191206E1
:100B3100489000FAEEF0A3EFF0AE2DAF2E7C007DD1
:100B4100181207D1AC06AD07E412060FE4FBFAF95F
:100B5100783F1205191206489000F8EEF0A3EFF065
:100B610022900101E004F07006900100E004F0E43D
:100B7100900102F0A3F022900103E004F0700690CE
:050B81000102E004F098
:010B8600224C
:101A7D0053C8FE53C90F43C9D043C90843921043FD
:0C1A8D0093035393FE53F1F043F1082241
:071C800053B3DF53B4DF2270
:0C1C1D00121C80121A7D439B84D2CA2244
:030063000217DBA6
:1017DB00C0E0C0F0C083C082C0D075D000C000C0D4
:0B17EB0002C003C004C005C006C00718
:1017F600E59230E00E5392FEAFE5EFFEADE4EDFF6D
:0318060012157C3C
:10180900D007D006D005D004D003D002D000D0D064
:09181900D082D083D0F0D0E0327F
:100512000206B4E86480F8E933E83360110460F05D
:10052200ED33EC337009E8FCE9FDEAFEEBFF22044F
:1005320060DED3EB9FEA9EE99DE8C2E78CF0C2F74A
:1005420095F0400CE8CCF8E9CDF9EACEFAEBCFFB16
:1005520012067F85D0F05804700320D5B3E80470EA
:10056200075002B2D50206BE92D5EC0460F7E4CC85
:10057200C0E0C398F8603B94186008400DD0E0FBDF
:10058200020696E4FBFAC9FC8028E830E406E4C9D6
:10059200FBE4CAFCE830E305E4C9CACBFCE8540733
:1005A2006010F8C3E913F9EA13FAEB13FBEC13FC3E
:1005B200D8F130F52FC3E49CFCEF9BFFEE9AFEEDE1
:1005C20099FDD0E0FBEF4E4D4C701222DB03020688
:1005D200BBEC2CFCEF33FFEE33FEED33FDED30E7E9
:1005E200EB020696EF2BFFEE3AFEED39FDD0E0FB73
:1005F20050130BBB00030206BEED13FDEE13FEEF1C
:0806020013FFEC13FC02069645
:10060A0075F020800E75F010800575F0087D007E6B
:10061A00007F003392D530D50312083CEC334010EA
:10062A00EF33FFEE33FEED33FDEC33FCD5F0ED2274
:0E063A00E5F0247EA2D513CC92E7CDCEFF22B0
:10064800EDD2E7CD33EC3392D524814006E4FFFEAA
:10065800FDFC22FCE4CFCECDCC24E0501174FF8009
:10066800EDC3CC13CCCD13CDCE13CECF13CF0470A6
:07067800F030D5DE02083C62
:10067F00E9D2E7C933E833F892D5EDD2E7CD33ECC1
:07068F0033FC5002B2D5223A
:10069600EC30E7100FBF000C0EBE00080DBD0004C5
:1006A6000BEB6014A2D5EB13FCED92E7FD2274FF71
:1006B600FCFDFEFF22E480F8A2D574FF13FC7D80CA
:0306C600E480EFDE
:10148D00021C0FE493A3F8E493A34003F68001F24A
:10149D0008DFF48029E493A3F85407240CC8C33360
:1014AD00C4540F4420C8834004F456800146F6DF2F
:1014BD00E4800B0102040810204080900D8CE47E26
:1014CD00019360BCA3FF543F30E509541FFEE49324
:1014DD00A360010ECF54C025E060A840B8E493A3EB
:1014ED00FAE493A3F8E493A3C8C582C8CAC583CA16
:1014FD00F0A3C8C582C8CAC583CADFE9DEE780BECE
:010F2E0000C2
:1006C900E709F608DFFA8046E709F208DFFA803E13
:1006D90088828C83E709F0A3DFFA8032E309F60800
:1006E900DFFA8078E309F208DFFA807088828C8368
:1006F900E309F0A3DFFA806489828A83E0A3F6081C
:10070900DFFA805889828A83E0A3F208DFFA804CF5
:1007190080D280FA80C680D4806980F280338010CC
:1007290080A680EA809A80A880DA80E280CA803335
:1007390089828A83ECFAE493A3C8C582C8CCC583AD
:10074900CCF0A3C8C582C8CCC583CCDFE9DEE7807D
:100759000D89828A83E493A3F608DFF9ECFAA9F0FC
:10076900EDFB2289828A83ECFAE0A3C8C582C8CC52
:10077900C583CCF0A3C8C582C8CCC583CCDFEADE6B
:10078900E880DB89828A83E493A3F208DFF980CCCD
:1007990088F0EF60010E4E60C388F0ED2402B404C6
:1007A9000050B9F582EB2402B4040050AF2323456D
:0607B90082239007197372
:1007BF00EF8DF0A4A8F0CF8CF0A428CE8DF0A42E4E
:0207CF00FE2208
:1007D100BC000BBE0029EF8DF084FFADF022E4CC0C
:1007E100F875F008EF2FFFEE33FEEC33FCEE9DECD5
:1007F100984005FCEE9DFE0FD5F0E9E4CEFD22ED1B
:10080100F8F5F0EE8420D21CFEADF075F008EF2F64
:10081100FFED33FD4007985006D5F0F222C398FD55
:050821000FD5F0EA22F2
:10082600C5F0F8A3E028F0C5F0F8E582158270025D
:060836001583E038F022FA
:0E083C00C3E49FFFE49EFEE49DFDE49CFC22CD
:10084A00EB9FF5F0EA9E42F0E99D42F0E89C45F004
:01085A00227B
:10085B00E8600FEFC333FFEE33FEED33FDEC33FCFB
:03086B00D8F1229F
:0C086E00ECF0A3EDF0A3EEF0A3EFF022FD
:10087A00A8828583F0D083D082120891120891123F
:10088A000891120891E473E493A3C583C5F0C58364
:10089A00C8C582C8F0A3C583C5F0C583C8C582C8C8
:0108AA00222B
:0608AB008A838982E473D8
:00000001FF
