:100D4D0002080000020A0000020C0000020E000062
:100D5D000210000002120000021400000216000032
:080D6D0002180000021A000048
:10184E005389F0438902538EF7758C7B758A7BD250
:06185E00A9D2AFD28C22DA
:1018640053890F438910538E7F758DF5758B95D2EF
:04187400ABD28E2243
:03001B0002193097
:0A193000758DF5758B95752B01324E
:03000B00021213CB
:0B121300C0E0C0D075D000C006C007CE
:10121E000509E50970020508050BE50B7002050AC4
:10122E00050DE50D7002050C050FE50F7002050E9C
:10123E000511E51170020510051BE51B7002051A5C
:10124E00C3E5099464E50894004009750800750922
:10125E0000753001C374109513FF74279512FEC3E9
:10126E00E50B9FE50A9E400F751223751328750A2C
:10127E0000750B00753201C374109515FF74279518
:10128E0014FEC3E50D9FE50C9E400F7514237515D6
:10129E0028750C00750D00753301C374109517FF7A
:1012AE0074279516FEC3E50F9FE50E9E400F75162B
:1012BE00267517AC750E00750F00753101C37410CD
:1012CE009519FF74279518FEC3E5119FE5109E40F2
:1012DE000F7518267519AC751000751100752D0156
:0912EE00D007D006D0D0D0E032C8
:1018BC00804020100402010800000000000000001D
:100D7500012E00013000013200013100012D00017A
:100D85003300012F00012B00012C05570103000042
:100D9500000000000000000000000000000000004E
:100DA50000000000000121000122000423000000D2
:070DB500000427000000000C
:0F18CC0053B33F43B4C053ACFE43AD01D2B0227F
:0719780043B10F53B2F0224E
:100B4800851C3478357C007D007BFF7A1879C47E5B
:100B5800007F04120799E4A28133F535A280E433BB
:100B6800F536A284E433F537A283E433F5389001EF
:070B780018E07003020C41BC
:100B7F00900105E06003020D4C90010AE060030252
:100B8F000D4C90010FE06003020D4C900114E060DA
:100B9F0003020D4CE4FF74232FF8E6FE74352FF893
:100BAF00E6FD6E6008EDB40104EF04F521E6FE7476
:100BBF00232FF8A6060FBF04DDE5226521602585EA
:100BCF002122E4FFEF2401FDE433FCE521B5050EFE
:100BDF00E4B5040A531C0FEF9018BC93421C0FBFCF
:100BEF0004E2802D74342521F8E66013E521901876
:100BFF00BB93FE551C6003020D41EE421C8012E5B3
:100C0F00219018BB93FE551C7003020D41EEF45258
:100C1F001C9001057401F090010AF090010FF09003
:0F0C2F000114F0E4900117F0900119F0752C05F5
:100C3E00020D41E4FFEF75F005A42407F582E434BC
:100C4E0001F583E064016003020D0FEF75F005A45A
:100C5E002403F582E43401F583E475F001120826CD
:100C6E00EF9018BC93551C7003020D0FEF75F00535
:100C7E00A42406F582E43401F583E07023EF75F0C9
:100C8E0005A42403F582E43401F583E4F0A3F0EF28
:100C9E0075F005A42406F582E43401F5837401F0A1
:100CAE00EF75F005A42403F582E43401F583E0FC2E
:100CBE00A3E0C39407EC94004047EF75F005A4241D
:100CCE0003F582E43401F583E4F0A3F0EF75F0054B
:100CDE00A42406F582E43401F583E4F0EF9018BC09
:100CEE0093F4521CEF75F005A42405F582E434014B
:100CFE00F5837401F0E4900117F0900119F0752C52
:100D0E0005EF75F005A42405F582E43401F583E0C2
:100D1E00701874352FF8E66009EF9018BC93421CDA
:100D2E008008EF9018BC93F4521C0FEF640460031C
:0E0D3E00020C43E51C65346005AF1C12175013
:010D4C002284
:10112400E4F534851C3578367C00FD7BFF7A18792C
:10113400C8FE7F04120799900117E004F0E0652CC3
:1011440060030211D2A28133F536A280E433F5376D
:10115400A284E433F538A283E433F539E4F534E5C5
:101164003475F005A42405F582E43401F583E060C8
:101174004E74362534F8E6FF7E00C374079534FDBB
:10118400EFA805088005C333CE33CED8F9FFE53484
:101194009018BC93551C6F7001EE601274272534AF
:1011A400F87601E5349018C093F4521C8011E534AC
:1011B40075F005A42405F582E43401F583E4F00513
:1011C40034E534B40499E51C65356042803BE52C74
:1011D4002401FFE433FE900117E0C39FEE6480F81E
:1011E4007480984029E4F0F53474272534F8E6B483
:1011F400010AE5349018C093421CE4F60534E53442
:0E120400B404E6E51C65356005AF1C121750FA
:0112120022B9
:1017F600E5306006E4F530120003E5336006E4F5F3
:0F18060033120B48E5326006E4F532121124224A
:1016A900E52F603FE4F52F900118E0FD7F817E383A
:1016B900120ED5900107E0FD7F827E38120ED5907B
:1016C900010CE0FD7F837E38120ED5900111E0FDFB
:1016D9007F847E38120ED5900116E0FD7F857E3815
:0416E900120ED522E6
:0B192500E52B6006E4F52B1208802281
:10144C007F817E38121970900118EFF07F827E3800
:10145C00121970900107EFF07F837E38121970908B
:10146C00010CEFF07F847E38121970900111EFF0AF
:10147C007F857E38121970900116EFF0900118E0FC
:10148C00F4601C900107E0F4601590010CE0F4602E
:10149C000E900111E0F46007900116E0B4FF15E422
:1014AC00900118F0900107F090010CF0900111F0F0
:1014BC00900116F0900118E06003D28622C28622B9
:1018150012144C1218CC7F0F12175012197F12197F
:0D1825006712197812000E12186402184E96
:10175000E4FEC2AFEFC4131313540124FF92B0EFA1
:1017600025E0FFC29600D2960EBE08E8C29700D2CE
:0517700097C2B0D2AFEA
:011775002251
:030DBC00011C0F08
:09193A002093037F01227F0022AB
:091943002092037F01227F0022A3
:09194C002091037F01227F00229B
:091955002090037F01227F002293
:09195E002094037F01227F002286
:0F18DB00E51C44046008531CFBAF1C121750227D
:0F18EA00E51C44026008531CFDAF1C121750226E
:0F18F900E51C44016008531CFEAF1C121750225F
:0F190800E51C44086008531CF7AF1C121750224F
:10001E00308105531C7F800C900118E06003531C47
:10002E000F431C80431C04AF1C121750900119E0A3
:10003E00B40107E4F0752C0A8003752C05900105B8
:10004E007401F090010AF090010FF0900114F0E4A9
:05005E00900117F022E3
:1015DA00308005531CBF800C900118E06003531C37
:1015EA000F431C40431C02AF1C121750900119E014
:1015FA00B40107E4F0752C0A8003752C05900105E7
:10160A007401F090010AF090010FF0900114F0E4D7
:05161A00900117F02211
:10161F00308405531CDF800C900118E06003531CCD
:10162F000F431C20431C01AF1C121750900119E0EF
:10163F00B40107E4F0752C0A8003752C05900105A1
:10164F007401F090010AF090010FF0900114F0E492
:05165F00900117F022CC
:10166400308305531CEF800C900118E06003531C79
:101674000F431C10431C08AF1C121750900119E0B3
:10168400B40107E4F0752C0A8003752C059001055C
:101694007401F090010AF090010FF0900114F0E44D
:0516A400900117F02287
:10187800431C04752C0A9001197401F0AF1C02175F
:01188800500F
:10188900431C02752C0A9001197401F0AF1C021750
:0118990050FE
:10189A00431C01752C0A9001197401F0AF1C021740
:0118AA0050ED
:1018AB00431C08752C0A9001197401F0AF1C021728
:0118BB0050DC
:10177600900107E0B40104E4F080069001077401CB
:10178600F09001057401F0E4900117F0752F012225
:1017960090010CE0B40104E4F0800690010C7401A1
:1017A600F090010A7401F0E4900117F0752F012200
:1017B600900111E0B40104E4F08006900111740177
:1017C600F090010F7401F0E4900117F0752F0122DB
:1017D600900116E0B40104E4F0800690011674014D
:1017E600F09001147401F0E4900117F0752F0122B6
:1016ED00900118E0700604F0D2868007E49001188E
:1016FD00F0C286531C0FAF1C1217509001057401D8
:10170D00F090010AF090010FF0900114F0E49001B7
:06171D0017F0752F0122F8
:101016007537FF7538187539DB753AFF753B0075FE
:101026003C1E753D00753E00753F007540FF7541DD
:10103600187542787543FF7544177545767BFF7AB8
:1010460019793A1212F77537FF7538187539EA7536
:101056003AFF753B15753CDA753D00753E00753FE8
:10106600007540FF7541187542897543FF75441731
:101076007545967BFF7A1979431212F77537FF7516
:1010860038187539F9753AFF753B16753C1F753D6D
:1010960000753E00753F007540FF75411875429A10
:1010A6007543FF7544177545B67BFF7A19794C125F
:1010B60012F77537FF753819753908753AFF753B9C
:1010C60016753C64753D00753E00753F007540FF22
:1010D6007541187542AB7543FF7544177545D67B48
:1010E600FF7A1979551212F7753700753800753978
:1010F60000753A00753B00753C00753D00753E0075
:10110600753F007540007541007542007543FF75D7
:0E11160044167545ED7BFF7A19795E0212F7DB
:0919670043B31F53B4E002101653
:030000000213C028
:0C13C000787FE4F6D8FD75814502140723
:0E1917001218151217F61219251216A980F5CE
:100DBF006060000000000000000000000000000064
:100DCF000000000000000000000000000000000014
:100DDF000000000000000000000000000000000004
:100DEF0000000000000000000000000000000000F4
:100DFF0000000000000000000000000000000000E4
:100E0F0000000000000000000000000000000000D3
:100E1F0000000000603200600000000000000000D1
:100E2F0000000000000000000000000000000000B3
:100E3F0000000000000000000000000000000000A3
:0A0E4F000000000000000000000099
:10153700E4F534F535F535E53575F013A42400F5F4
:1015470082E43400F583E0FBA3E0FAA3E0F9EA497B
:101557004B602DE53575F013A42400F582E43400C3
:10156700F583A3E0FAA3E0F912087ABF0112E53583
:1015770075F013A42412F582E43400F583E04234B5
:0B1587000535E535C3940540AEAF34D8
:011592002236
:1012F7007F0190005FE0FEC3940540021F2290002B
:101307005FE0FD75F013A42400F582E43400F58353
:10131700EBF0A3EAF0A3E9F0ED75F013A42403F5CD
:1013270082E43400F583E537F0A3E538F0A3E53927
:10133700F0ED75F013A42406F582E43400F583E597
:101347003AF0A3E53BF0A3E53CF0ED75F013A424D8
:1013570009F582E43400F583E53DF0A3E53EF0A30B
:10136700E53FF0ED75F013A4240CF582E43400F5A5
:1013770083E540F0A3E541F0A3E542F0ED75F013F6
:10138700A4240FF582E43400F583E543F0A3E54494
:10139700F0A3E545F0EFA805088002C333D8FCFFAA
:1013A700EE75F013A42412F582E43400F583EFF010
:0813B70090005FE004F07F01EB
:0113BF00220B
:100066008F388D39E53975F00AA42465F582E434B4
:1000760000F583E004F0E53975F00AA42466F582FC
:10008600E43400F583E004F0E5386017E53975F0EF
:100096000AA42464F582E43400F583E0653870032D
:1000A600020264E53975F00AA42462F582E434009C
:1000B600F583E0FEA3E0C39402EE94005019E539FF
:1000C60075F00AA42462F582E43400F583E475F041
:1000D60001120826020416E53975F00AA42460F513
:1000E60082E43400F583E0FEA3E0C3942CEE940191
:1000F6004040E53975F00AA42469F582E43400F538
:1001060083E4F0E53975F013A4240CF582E4340099
:10011600F583E0FBA3E0FAA3E0F9EA494B7003029A
:10012600023CE53975F013A4240CF582E434000290
:100136000231E53975F00AA42460F582E43400F54D
:1001460083E0FEA3E0C39402EE9400500302023C57
:10015600E53975F013A4240FF582E43400F583E045
:10016600FBA3E0FAA3E0F9EA494B7003020208E5B3
:100176003975F00AA42469F582E43400F583E0B405
:100186000114E53975F00AA42469F582E43400F512
:1001960083E4F002023CE53975F00AA42468F5828E
:1001A600E43400F583E0B40134E53975F013A42492
:1001B60006F582E43400F583E0FBA3E0FAA3E0F958
:1001C600EA494B6018E53975F013A42406F582E474
:1001D6003400F583A3E0FAA3E0F912087AE539754D
:1001E600F00AA42466F582E43400F583E4F0E539E8
:1001F60075F00AA42468F582E43400F5837401F0EE
:100206008034E53975F013A42406F582E43400F54C
:1002160083E0FBA3E0FAA3E0F9EA494B6018E5396D
:1002260075F013A42406F582E43400F583A3E0FAFE
:10023600A3E0F912087AE53975F00AA42464F58278
:10024600E43400F583E538F0E53975F00AA4246056
:10025600F582E43400F583E4F0A3F0020416E539F0
:1002660075F00AA42460F582E43400F583E475F0A1
:1002760001120826E53975F00AA42460F582E434F3
:1002860000F583E0FEA3E064024E60030203B5E5D9
:100296003975F00AA42462F582E43400F583E4F0AB
:1002A600A3F0E53975F013A4240FF582E43400F5C4
:1002B60083E0FBA3E0FAA3E0F9EA494B70030203EB
:1002C6008AE53975F00AA42468F582E43400F583DA
:1002D600E064017078E53975F00AA42465F582E4D6
:1002E6003400F583E0C3941E5063E53975F00AA423
:1002F6002469F582E43400F5837401F0E53975F07C
:100306000AA42468F582E43400F583E4F0E539753F
:10031600F00AA42467F582E43400F583E4F0E539B5
:1003260075F013A4240FF582E43400F583E0FBA3F3
:10033600E0FAA3E0F9EA494B7003020416E53975C1
:10034600F013A4240FF582E4340002040BE539759A
:10035600F00AA42469F582E43400F583E4F0E53973
:1003660075F00AA42467F582E43400F5837401F07D
:10037600E53975F00AA42465F582E43400F583E4D2
:10038600F0020416E53975F013A42403F582E4346B
:1003960000F583E0FBA3E0FAA3E0F9EA494B6070BD
:1003A600E53975F013A42403F582E434008056E59C
:1003B6003975F00AA42460F582E43400F583E0FE82
:1003C600A3E0642C7003EE64017045E53975F00A0C
:1003D600A42469F582E43400F583E4F0E53975F088
:1003E60013A42409F582E43400F583E0FBA3E0FAC4
:1003F600A3E0F9EA494B6018E53975F013A424091E
:10040600F582E43400F583A3E0FAA3E0F912087A52
:10041600E53975F013A4240FF582E43400F583E082
:10042600FBA3E0FAA3E0F9EA494B7003020511E5E4
:100436003975F00AA42467F582E43400F583E06494
:1004460001705AE53975F00AA42465F582E4340092
:10045600F583E0C3941E4045E53975F00AA4246788
:10046600F582E43400F583E4F0E53975F013A4244D
:1004760003F582E43400F583E0FBA3E0FAA3E0F998
:10048600EA494B6018E53975F013A42403F582E4B4
:100496003400F583A3E0FAA3E0F912087AE539758A
:1004A600F00AA42468F582E43400F583E064017060
:1004B6005AE53975F00AA42466F582E43400F5831A
:1004C600E0C3941E4045E53975F00AA42468F58218
:1004D600E43400F583E4F0E53975F013A42406F559
:1004E60082E43400F583E0FBA3E0FAA3E0F9EA49ED
:1004F6004B6018E53975F013A42406F582E4340040
:0C050600F583A3E0FAA3E0F912087A22C2
:021723008F3401
:10172500E4F535753601F537F535AF35E536A807F6
:10173500088002C333D8FC5534F537AD35FF1200A8
:0A174500660535E535C3940540E064
:01174F002277
:08000300E4FF12153702172378
:07197F0053B13F43B2C02247
:041970008F828E8351
:03197400E493FFFA
:01197700224D
:060ED5008E348F358D36CE
:100EDB00E4F537A907E9C394805004E4F98002795B
:100EEB00807D807C00E97A002400FFEA3534F538F8
:100EFB008F39ED7003EC6401601E85398285388370
:100F0B00E4938D828C83F005370DBD00010C053900
:100F1B00E53970DE053880DAAB35A903E9C3948077
:100F2B00E9500A2480FFE433FCAD0780037C00FD0D
:100F3B008D828C83E536F08BA6E534FFF5A775AE75
:100F4B00FFA2AF9200C2AF75C7AA75C755439F01E9
:100F5B00A20092AFA2AF9200C2AF75C7AA75C755D8
:100F6B0043A501A20092AF75AF22A2AF9200C2AF10
:100F7B0075C7AA75C75543A401A20092AFA903E98F
:100F8B00C394805004E4F9800279807C007D8089D1
:100F9B00A68FA7A2AF9200C2AF75C7AA75C755435C
:100FAB009F01A20092AFA2AF9200C2AF75C7AA7504
:100FBB00C75543A501A20092AF75AF21EDF44C606C
:100FCB00238D828C83E0F5AEA2AF9200C2AF75C7C2
:100FDB00AA75C75543A401A20092AF05A60DBD008B
:100FEB00010C80D8A2AF9200C2AF75C7AA75C755C6
:100FFB0053A5FEA20092AFA2AF9200C2AF75C7AAD3
:0A100B0075C755539FFEA20092AF77
:0110150022B8
:100E59006064009200000000000000000000000033
:100E69000000000000000000000000000000000079
:100E79000000000000000000000000000000000069
:100E89000000000000000000000000000000000059
:100E99000000000000000000000000000000000049
:100EA9000000000000000000000000000000000039
:100EB90000000000000000004D00F60000000000E6
:0B0EC9000000000000000000011D0000
:0414CC00AB07AA06BA
:1014D000900093E07019C3EB94FAEA9400405730FF
:1014E0009554A3EAF0A3EBF09000937401F0227CF2
:1014F000007D05AF03AE021207BFD3900095E09FB9
:10150000900094E09E4016E51D25E02496F582E4C7
:101510003400F583EAF0A3EBF0051D8007E49000AA
:1015200093F0F51DE51DC39430400BE4F51D9000CC
:061530009204F0E4A3F0B8
:011536002292
:10088000E4F537F536F535F534F538F539F53AF55B
:100890003BF53CF53DF53EF53FF540F541F542F5BC
:1008A00043900092E064016003020B39F090010074
:1008B000E0702D900096E0FFA3E09000F8CFF0A349
:1008C000EFF0900098E0FFA3E09000FACFF0A3EFE4
:1008D000F0900094E0FFA3E09000F6CFF0A3EFF0DB
:1008E0009000FAE0FEA3E0FF9000F9E02FF53990C8
:1008F00000F8E03EF538FEAF397C007D051207D1E7
:100900008E3C8F3D9000F6E0FEA3E0FF7C007D056D
:100910001207D18E3E8F3FE4FBEBC39430400302BD
:100920000A6DEB25E02498F582E43400F583E0FEBF
:10093000A3E0FFEB25E02496F582E43400F583E0A4
:10094000FCA3E0FD2FF53BEC3EF53AE539253DFFF4
:10095000E538353CFED3E53B9FE53A9E5014C3E5B0
:1009600039953DFFE538953CFEC3E53B9FE53A9E52
:10097000500F900102E004F07006900101E004F0D5
:1009800022EB25E02498F582E43400F583E0FEA311
:10099000E0FFD3ED9FEC9E4050AF37AE36AD35ACA7
:1009A00034780112085BEF4401F537EEF536EDF5CA
:1009B00035ECF534EB25E02498F582E43400F5833A
:1009C000E0FEA3E02541F541EE3540F540EB25E0A2
:1009D0002496F582E43400F583E0FEA3E02543F598
:1009E00043EE3542F542020A68EB25E02498F58291
:1009F000E43400F583E0FEA3E0FFEB25E02496F568
:100A000082E43400F583E0FCA3E0C39FEC9E5049F0
:100A1000AF37AE36AD35AC34780112085B8F378E08
:100A2000368D358C34EB25E02498F582E43400F5DE
:100A300083E0FEA3E02543F543EE3542F542EB2586
:100A4000E02496F582E43400F583E0FEA3E025413E
:100A5000F541EE3540F540800F900102E004F07062
:100A600006900101E004F0220B0B0209199000949A
:100A7000E0FEA3E0FF253DFDE53C3EFC9000F6E0F6
:100A8000FAA3E0FBC39DEA9C502BC3EF953DFFEE1C
:100A9000953CFED3EB9FEA9E401B9000FCE0FCA33C
:100AA000E0FDA3E0FEA3E0FFAB37AA36A935A834EA
:100AB00012084A6078900094E0FFA3E09000F6CF1F
:100AC000F0A3EFF0AF37AE36AD35AC349000FC128A
:100AD000086E9001007401F0E4A3F0A3F0AE40AF03
:100AE00041FC7D181207D1AC06AD07E412060FE4F5
:100AF000FBFAF9783F1205191206489000FAEEF059
:100B0000A3EFF0AE42AF437C007D181207D1AC06D4
:100B1000AD07E412060FE4FBFAF9783F120519124B
:100B200006489000F8EEF0A3EFF0B28722900100A3
:100B3000E004F0E4A3F0A3F022900102E004F070DE
:070B400006900101E004F042
:010B4700228B
:1018320053C8FE53C90F43C9D043C908439210434A
:0C18420093035393FE53F1F043F108228E
:0719860053B3DF53B4DF226D
:0C000E00121986121832439B84D2CA22B9
:03006300021593F0
:10159300C0E0C0F0C083C082C0D075D000C000C01E
:0B15A30002C003C004C005C006C00762
:1015AE00E59230E00E5392FEAFE5EFFEADE4EDFFB7
:0315BE001214CC38
:1015C100D007D006D005D004D003D002D000D0D0AF
:0915D100D082D083D0F0D0E032CA
:100512000206B4E86480F8E933E83360110460F05D
:10052200ED33EC337009E8FCE9FDEAFEEBFF22044F
:1005320060DED3EB9FEA9EE99DE8C2E78CF0C2F74A
:1005420095F0400CE8CCF8E9CDF9EACEFAEBCFFB16
:1005520012067F85D0F05804700320D5B3E80470EA
:10056200075002B2D50206BE92D5EC0460F7E4CC85
:10057200C0E0C398F8603B94186008400DD0E0FBDF
:10058200020696E4FBFAC9FC8028E830E406E4C9D6
:10059200FBE4CAFCE830E305E4C9CACBFCE8540733
:1005A2006010F8C3E913F9EA13FAEB13FBEC13FC3E
:1005B200D8F130F52FC3E49CFCEF9BFFEE9AFEEDE1
:1005C20099FDD0E0FBEF4E4D4C701222DB03020688
:1005D200BBEC2CFCEF33FFEE33FEED33FDED30E7E9
:1005E200EB020696EF2BFFEE3AFEED39FDD0E0FB73
:1005F20050130BBB00030206BEED13FDEE13FEEF1C
:0806020013FFEC13FC02069645
:10060A0075F020800E75F010800575F0087D007E6B
:10061A00007F003392D530D50312083CEC334010EA
:10062A00EF33FFEE33FEED33FDEC33FCD5F0ED2274
:0E063A00E5F0247EA2D513CC92E7CDCEFF22B0
:10064800EDD2E7CD33EC3392D524814006E4FFFEAA
:10065800FDFC22FCE4CFCECDCC24E0501174FF8009
:10066800EDC3CC13CCCD13CDCE13CECF13CF0470A6
:07067800F030D5DE02083C62
:10067F00E9D2E7C933E833F892D5EDD2E7CD33ECC1
:07068F0033FC5002B2D5223A
:10069600EC30E7100FBF000C0EBE00080DBD0004C5
:1006A6000BEB6014A2D5EB13FCED92E7FD2274FF71
:1006B600FCFDFEFF22E480F8A2D574FF13FC7D80CA
:0306C600E480EFDE
:1013CC00021917E493A3F8E493A34003F68001F207
:1013DC0008DFF48029E493A3F85407240CC8C33322
:1013EC00C4540F4420C8834004F456800146F6DFF1
:1013FC00E4800B0102040810204080900D4DE47E27
:10140C00019360BCA3FF543F30E509541FFEE493E5
:10141C00A360010ECF54C025E060A840B8E493A3AC
:10142C00FAE493A3F8E493A3C8C582C8CAC583CAD7
:10143C00F0A3C8C582C8CAC583CADFE9DEE780BE8F
:010ED400001D
:1006C900E709F608DFFA8046E709F208DFFA803E13
:1006D90088828C83E709F0A3DFFA8032E309F60800
:1006E900DFFA8078E309F208DFFA807088828C8368
:1006F900E309F0A3DFFA806489828A83E0A3F6081C
:10070900DFFA805889828A83E0A3F208DFFA804CF5
:1007190080D280FA80C680D4806980F280338010CC
:1007290080A680EA809A80A880DA80E280CA803335
:1007390089828A83ECFAE493A3C8C582C8CCC583AD
:10074900CCF0A3C8C582C8CCC583CCDFE9DEE7807D
:100759000D89828A83E493A3F608DFF9ECFAA9F0FC
:10076900EDFB2289828A83ECFAE0A3C8C582C8CC52
:10077900C583CCF0A3C8C582C8CCC583CCDFEADE6B
:10078900E880DB89828A83E493A3F208DFF980CCCD
:1007990088F0EF60010E4E60C388F0ED2402B404C6
:1007A9000050B9F582EB2402B4040050AF2323456D
:0607B90082239007197372
:1007BF00EF8DF0A4A8F0CF8CF0A428CE8DF0A42E4E
:0207CF00FE2208
:1007D100BC000BBE0029EF8DF084FFADF022E4CC0C
:1007E100F875F008EF2FFFEE33FEEC33FCEE9DECD5
:1007F100984005FCEE9DFE0FD5F0E9E4CEFD22ED1B
:10080100F8F5F0EE8420D21CFEADF075F008EF2F64
:10081100FFED33FD4007985006D5F0F222C398FD55
:050821000FD5F0EA22F2
:10082600C5F0F8A3E028F0C5F0F8E582158270025D
:060836001583E038F022FA
:0E083C00C3E49FFFE49EFEE49DFDE49CFC22CD
:10084A00EB9FF5F0EA9E42F0E99D42F0E89C45F004
:01085A00227B
:10085B00E8600FEFC333FFEE33FEED33FDEC33FCFB
:03086B00D8F1229F
:0C086E00ECF0A3EDF0A3EEF0A3EFF022FD
:06087A008A838982E47309
:00000001FF
