:100B7C0002080000020A0000020C0000020E000035
:100B8C000210000002120000021400000216000005
:080B9C0002180000021A00001B
:101633005389F0438902538EF7758C7B758A7BD26D
:06164300A9D2AFD28C22F7
:1016490053890F438910538E7F758DF5758B95D20C
:04165900ABD28E2260
:03001B0002174584
:07174500758DF5758B9532DF
:03000B0002103CA4
:0B103C00C0E0C0D075D000C006C007A7
:101047000509E50970020508050BE50B7002050A9D
:10105700050DE50D7002050C050FE50F7002050E75
:101067000511E51170020510051BE51B7002051A35
:10107700C3E5099464E508940040097508007509FB
:1010870000752F01C374109513FF74279512FEC3C3
:10109700E50B9FE50A9E400F751223751328750A05
:1010A70000750B00753101C374109515FF742795F2
:1010B70014FEC3E50D9FE50C9E400F7514237515AF
:1010C70028750C00750D00753201C374109517FF54
:1010D70074279516FEC3E50F9FE50E9E400F751604
:1010E700267517AC750E00750F00753001C37410A7
:1010F7009519FF74279518FEC3E5119FE5109E40CB
:101107000F7518267519AC751000751100752C012F
:09111700D007D006D0D0D0E032A0
:1016A100804020100402010800000000000000003A
:100BA400012D00012F00013100013000012C000152
:100BB4003200012E00012B055700640000000000E4
:100BC4000000000000000000000000000000000021
:100BD400000001210001220004230000000004277A
:040BE400000000000D
:0F16B10053B33F43B4C053ACFE43AD01D2B0229C
:07174C0043B10F53B2F0227C
:10097700851C3378347C007D007BFF7A1679A97E4D
:10098700007F041202EDE4A28133F534A280E43340
:10099700F535A284E433F536A283E433F5379000C6
:0709A70079E07003020A7001
:1009AE00900066E06003020B7B90006BE060030238
:1009BE000B7B900070E06003020B7B900075E06093
:1009CE0003020B7BE4FF74232FF8E6FE74342FF83A
:1009DE00E6FD6E6008EDB40104EF04F521E6FE7449
:1009EE00232FF8A6060FBF04DDE5226521602585BD
:1009FE002122E4FFEF2401FDE433FCE521B5050ED1
:100A0E00E4B5040A531C0FEF9016A193421C0FBFBE
:100A1E0004E2802D74332521F8E66013E52190164B
:100A2E00A093FE551C6003020B70EE421C8012E573
:100A3E00219016A093FE551C7003020B70EEF4521B
:100A4E001C9000667401F090006BF0900070F090B6
:0F0A5E000075F0E4900078F090007AF0752B05A9
:100A6D00020B70E4FFEF75F005A42468F582E43401
:100A7D0000F583E064016003020B3EEF75F005A401
:100A8D002464F582E43400F583E475F00112037AF1
:100A9D00EF9016A193551C7003020B3EEF75F005F8
:100AAD00A42467F582E43400F583E07023EF75F03C
:100ABD0005A42464F582E43400F583E4F0A3F0EF9B
:100ACD0075F005A42467F582E43400F5837401F014
:100ADD00EF75F005A42464F582E43400F583E0FCA1
:100AED00A3E0C39407EC94004047EF75F005A424F0
:100AFD0064F582E43400F583E4F0A3F0EF75F005BE
:100B0D00A42467F582E43400F583E4F0EF9016A198
:100B1D0093F4521CEF75F005A42466F582E43400BD
:100B2D00F5837401F0E4900078F090007AF0752B65
:100B3D0005EF75F005A42466F582E43400F583E035
:100B4D00701874342FF8E66009EF9016A193421CCB
:100B5D008008EF9016A193F4521C0FEF640460030C
:0E0B6D00020A72E51C65336005AF1C12153BD1
:010B7B002257
:100F4D00E4F533851C3478357C00FD7BFF7A16790A
:100F5D00ADFE7F041202ED900078E004F0E0652B09
:100F6D006003020FFBA28133F535A280E433F53621
:100F7D00A284E433F537A283E433F538E4F533E5A1
:100F8D003375F005A42466F582E43400F583E06042
:100F9D004E74352533F8E6FF7E00C374079533FD97
:100FAD00EFA805088005C333CE33CED8F9FFE5335E
:100FBD009016A193551C6F7001EE601274272533A6
:100FCD00F87601E5339016A593F4521C8011E533A4
:100FDD0075F005A42466F582E43400F583E4F0058C
:100FED0033E533B40499E51C65346042803BE52B51
:100FFD002401FFE433FE900078E0C39FEE6480F897
:10100D007480984029E4F0F53374272533F8E6B45D
:10101D00010AE5339016A593421CE4F60533E5333A
:0E102D00B404E6E51C65346005AF1C12153BEB
:01103B002292
:1015E100E52F6006E4F52F120003E5326006E4F50D
:0F15F10032120977E5316006E4F531120F4D2211
:10149400E52E603FE4F52E900079E0FD7F817E38F3
:1014A400120CFE900068E0FD7F827E38120CFE90E4
:1014B400006DE0FD7F837E38120CFE900072E0FD2B
:1014C4007F847E38120CFE900077E0FD7F857E38A5
:0414D400120CFE22D6
:10124B007F817E3812173D900079EFF07F827E38D8
:10125B0012173D900068EFF07F837E3812173D9098
:10126B00006DEFF07F847E3812173D900072EFF027
:10127B007F857E3812173D900077EFF0900079E074
:10128B00F4601C900068E0F4601590006DE0F46071
:10129B000E900072E0F46007900077E0B4FF15E465
:1012AB00900079F0900068F090006DF0900072F073
:1012BB00900077F0900079E06003D28622C28622FC
:10161C0012124B1216B17F0F12153B1217531217E1
:07162C003412174C021633C3
:10153B00E4FEC2AFEFC4131313540124FF92B0EFB8
:10154B0025E0FFC29600D2960EBE08E8C29700D2E5
:05155B0097C2B0D2AF01
:011560002268
:030BE800011C0FDE
:091707002093037F01227F0022E0
:091710002092037F01227F0022D8
:091719002091037F01227F0022D0
:091722002090037F01227F0022C8
:09172B002094037F01227F0022BB
:0F16C000E51C44046008531CFBAF1C12153B22B1
:0F16CF00E51C44026008531CFDAF1C12153B22A2
:0F16DE00E51C44016008531CFEAF1C12153B2293
:0F16ED00E51C44086008531CF7AF1C12153B2284
:10001E00308105531C7F800C900079E06003531CE7
:10002E000F431C80431C04AF1C12153B90007AE05A
:10003E00B40107E4F0752B0A8003752B059000665A
:10004E007401F090006BF0900070F0900075F0E489
:05005E00900078F02283
:1013C500308005531CBF800C900079E06003531CEE
:1013D5000F431C40431C02AF1C12153B90007AE0E2
:1013E500B40107E4F0752B0A8003752B05900066A0
:1013F5007401F090006BF0900070F0900075F0E4CF
:05140500900078F022C8
:10140A00308405531CDF800C900079E06003531C84
:10141A000F431C20431C01AF1C12153B90007AE0BD
:10142A00B40107E4F0752B0A8003752B059000665A
:10143A007401F090006BF0900070F0900075F0E489
:05144A00900078F02283
:10144F00308305531CEF800C900079E06003531C30
:10145F000F431C10431C08AF1C12153B90007AE081
:10146F00B40107E4F0752B0A8003752B0590006615
:10147F007401F090006BF0900070F0900075F0E444
:05148F00900078F0223E
:10165D00431C04752B0A90007A7401F0AF1C02151F
:01166D003B41
:10166E00431C02752B0A90007A7401F0AF1C021510
:01167E003B30
:10167F00431C01752B0A90007A7401F0AF1C021500
:01168F003B1F
:10169000431C08752B0A90007A7401F0AF1C0215E8
:0116A0003B0E
:10156100900068E0B40104E4F08006900068740122
:10157100F09000667401F0E4900078F0752E01227D
:1015810090006DE0B40104E4F0800690006D7401F8
:10159100F090006B7401F0E4900078F0752E012258
:1015A100900072E0B40104E4F080069000727401CE
:1015B100F09000707401F0E4900078F0752E012233
:1015C100900077E0B40104E4F080069000777401A4
:1015D100F09000757401F0E4900078F0752E01220E
:1014D800900079E0700604F0D2868007E4900079E5
:1014E800F0C286531C0FAF1C12153B9000667401A6
:1014F800F090006BF0900070F0900075F0E49000B0
:0615080078F0752E0122AF
:100E3F007536FF7537167538C07539FF753A0075F9
:100E4F003B1E753C00753D00753E00753FFF7540BC
:100E5F001675415D7542FF7543157544617BFF7AC9
:100E6F001779071211207536FF7537167538CF753C
:100E7F0039FF753A13753BC5753C00753D00753EDE
:100E8F0000753FFF75401675416E7542FF7543152E
:100E9F007544817BFF7A1779101211207536FF7513
:100EAF0037167538DE7539FF753A14753B0A753C80
:100EBF0000753D00753E00753FFF75401675417F0B
:100ECF007542FF7543157544A17BFF7A1779191287
:100EDF0011207536FF7537167538ED7539FF753A70
:100EEF0014753B4F753C00753D00753E00753FFF17
:100EFF007540167541907542FF7543157544C17B5A
:100F0F00FF7A177922121120753600753700753860
:100F1F0000753900753A00753B00753C00753D0052
:100F2F00753E00753F007540007541007542FF75B5
:0E0F3F0043147544D87BFF7A17792B021120DA
:0917340043B31F53B4E0020E3F61
:030000000211BF2B
:0C11BF00787FE4F6D8FD7581F40212067A
:0B16FC0012161C1215E112149480F865
:100BEB002060630000000000000000000000000017
:100BFB0000000000000000000000000000000000EA
:100C0B0000000000000000000000000000000000D9
:100C1B0000000000000000000000000000000000C9
:100C2B0000000000000000000000000000000000B9
:100C3B0000000000000000000000000000000000A9
:100C4B000000002032C30000000000000000000084
:100C5B000000000000000000000000000000000089
:100C6B000000000000000000000000000000000079
:080C7B00000000000000000071
:10133600E4F533F534F534E53475F013A42463F895
:10134600860308E6FA08E64A4B6021E53475F01391
:10135600A42463F808E6FA08E6F91203C2BF010CF2
:10136600E53475F013A42475F8E642330534E53404
:07137600C3940540C2AF3330
:01137D00224D
:101120007F0178C2E6FEC3940540021F2278C2E622
:10113000FD75F013A42463F8A60308A60208A6010F
:10114000AA37A938ED75F013A42466F8A63608A6C8
:101150000208A601AA3AA93BED75F013A42469F888
:10116000A63908A60208A601AA3DA93EED75F0130E
:10117000A4246CF8A63C08A60208A601AA40A9412E
:10118000ED75F013A4246FF8A63F08A60208A60187
:10119000AA43A944ED75F013A42472F8A64208A648
:1011A0000208A601EFA805088002C333D8FCFFEEB1
:0E11B00075F013A42475F8A60778C2067F0117
:0111BE00220E
:1003C8008F378D38E53875F00AA424C8F806E53863
:1003D80075F00AA424C9F806E5376011E53875F008
:1003E8000AA424C7F8E537667003020522E53875C4
:1003F800F00AA424C6F9C3E7940219E7940050133D
:10040800E53875F00AA424C5F80806E61870010650
:1004180002064EE53875F00AA424C4F9C3E7942C03
:1004280019E79401402DE53875F00AA424CCF8E4C6
:10043800F6E53875F013A4246FF8860308E6FA0881
:10044800E64A4B7003020507E53875F013A4246FDC
:100458000204FDE53875F00AA424C4F9C3E7940240
:1004680019E794005003020507E53875F013A42432
:1004780072F8860308E6FA08E64A4B605CE53875C8
:10048800F00AA424CCF8E6B40104E4F68071E53857
:1004980075F00AA424CBF8E6B40126E53875F01304
:1004A800A42469F8860308E6FA08E64A4B6012E5D0
:1004B8003875F013A42469F808E6FA08E6F9120377
:1004C800C2E53875F00AA424C9F8E4F6E53875F0F1
:1004D8000AA424CBF876018026E53875F013A42405
:1004E80069F8860308E6FA08E64A4B6012E53875AB
:1004F800F013A42469F808E6FA08E6F91203C2E53D
:100508003875F00AA424C7F8A637E53875F00AA4A8
:1005180024C3F8E4F608F602064EE53875F00AA496
:1005280024C3F80806E618700106E53875F00AA431
:1005380024C4F9E7640219476003020609E538751F
:10054800F00AA424C5F8E4F608F6E53875F013A413
:100558002472F8860308E6FA08E64A4B7003020597
:10056800EBE53875F00AA424CBF8E664017051E590
:100578003875F00AA424C8F8E6C3941E5042E5383A
:1005880075F00AA424CCF87601E53875F00AA4249D
:10059800CBF8E4F6E53875F00AA424CAF8E4F6E5E1
:1005A8003875F013A42472F8860308E6FA08E64AB8
:1005B8004B700302064EE53875F013A42472807C54
:1005C800E53875F00AA424CCF8E4F6E53875F00AA5
:1005D800A424CAF87601E53875F00AA424C8F8E41A
:1005E800F68063E53875F013A42466F8860308E6F8
:1005F800FA08E64A4B604FE53875F013A424668084
:100608003BE53875F00AA424C4F9E7642C70041992
:10061800E764017031E53875F00AA424CCF8E4F6F3
:10062800E53875F013A4246CF8860308E6FA08E6A2
:100638004A4B6012E53875F013A4246CF808E6FA02
:1006480008E6F91203C2E53875F013A42472F88697
:100658000308E6FA08E64A4B7003020701E5387515
:10066800F00AA424CAF8E664017040E53875F00A77
:10067800A424C8F8E6C3941E4031E53875F00AA4EE
:1006880024CAF8E4F6E53875F013A42466F886035E
:1006980008E6FA08E64A4B6012E53875F013A42418
:1006A80066F808E6FA08E6F91203C2E53875F00AB2
:1006B800A424CBF8E664017040E53875F00AA42458
:1006C800C9F8E6C3941E4031E53875F00AA424CB76
:1006D800F8E4F6E53875F013A42469F8860308E60B
:1006E800FA08E64A4B6012E53875F013A42469F855
:0A06F80008E6FA08E6F91203C22230
:02150E008F3319
:10151000E4F534753501F536F534AF34E535A80713
:10152000088002C333D8FC5533F536AD34FF1203BF
:0A153000C80534E534C3940540E01B
:01153A00228E
:08000300E4FF12133602150E92
:0717530053B13F43B2C02275
:04173D008F828E8386
:03174100E493FF2F
:011744002282
:060CFE008E338F348D35AA
:100D0400E4F536A907E9C394805004E4F980027934
:100D1400807D807C00E97A002400FFEA3533F537D2
:100D24008F38ED7003EC6401601E8538828537834B
:100D3400E4938D828C83F005360DBD00010C0538DB
:100D4400E53870DE053780DAAB34A903E9C3948053
:100D5400E9500A2480FFE433FCAD0780037C00FDE6
:100D64008D828C83E535F08BA6E533FFF5A775AE50
:100D7400FFA2AF9200C2AF75C7AA75C755439F01C2
:100D8400A20092AFA2AF9200C2AF75C7AA75C755B1
:100D940043A501A20092AF75AF22A2AF9200C2AFE9
:100DA40075C7AA75C75543A401A20092AFA903E968
:100DB400C394805004E4F9800279807C007D8089AA
:100DC400A68FA7A2AF9200C2AF75C7AA75C7554335
:100DD4009F01A20092AFA2AF9200C2AF75C7AA75DD
:100DE400C75543A501A20092AF75AF21EDF44C6045
:100DF400238D828C83E0F5AEA2AF9200C2AF75C79B
:100E0400AA75C75543A401A20092AF05A60DBD0063
:100E1400010C80D8A2AF9200C2AF75C7AA75C7559E
:100E240053A5FEA20092AFA2AF9200C2AF75C7AAAB
:0A0E340075C755539FFEA20092AF50
:010E3E002291
:100C8300606400000000000000000000000000009D
:100C93000000000000000000000000000000000051
:100CA3000000000000000000000000000000000041
:100CB3000000000000000000000000000000000031
:100CC3000000000000000000000000000000000021
:100CD3000000000000000000000000000000000011
:100CE30000000000000000000D560000000000009E
:0A0CF30000000000000000015500A1
:0412CB00AB07AA06BD
:1012CF00900001E07019C3EB94FAEA940040573094
:1012DF009554A3EAF0A3EBF09000017401F0227C87
:1012EF00007D05AF03AE02120313D3900003E09FFE
:1012FF00900002E09E4016E55525E02404F582E4B7
:10130F003400F583EAF0A3EBF005558007E4900075
:10131F0001F0F555E555C39430400BE4F5559000B9
:06132F000004F0E4A3F04D
:011335002295
:10070200E4F548F547F546F545F549F54AF54BF563
:100712004CF54DF54EF54FF550F551F552F553F5B3
:1007220054900000E06401600302096EF0E560701D
:100732001C900004E0F558A3E0F559A3E0F55AA394
:10074200E0F55B900002E0F556A3E0F557E5592588
:100752005BF54AE558355AF549FEAF4A7C007D05FE
:100762001203258E4D8F4EAE56AF577C007D05127B
:1007720003258E4F8F50E4FBEBC3943040030208F5
:10078200C1EB25E02406F582E43400F583E0FEA304
:10079200E0FFEB25E02404F582E43400F583E0FC7D
:1007A200A3E0FD2FF54CEC3EF54BE54A254EFFE567
:1007B20049354DFED3E54C9FE54B9E5014C3E54AA7
:1007C200954EFFE549954DFEC3E54C9FE54B9E5086
:1007D200090562E5627002056122EB25E02406F557
:1007E20082E43400F583E0FEA3E0FFD3ED9FEC9EAC
:1007F200404FAF48AE47AD46AC4578011203AFEF6C
:100802004401F548EEF547EDF546ECF545EB25E0FC
:100812002406F582E43400F583E0FEA3E02552F5D8
:1008220052EE3551F551EB25E02404F582E4340013
:10083200F583E0FEA3E02554F554EE3553F55380DD
:1008420079EB25E02406F582E43400F583E0FEA38B
:10085200E0FFEB25E02404F582E43400F583E0FCBC
:10086200A3E0C39FEC9E5049AF48AE47AD46AC45AE
:1008720078011203AF8F488E478D468C45EB25E0F9
:100882002406F582E43400F583E0FEA3E02554F566
:1008920054EE3553F553EB25E02404F582E434009D
:1008A200F583E0FEA3E02552F552EE3551F5518075
:1008B200090562E56270020561220B0B02077A905C
:1008C2000002E0FEA3E0FF254EFDE54D3EFCC3E540
:1008D200579DE5569C5027C3EF954EFFEE954DFE72
:1008E200D3E5579FE5569E4015AF5FAE5EAD5DAC5A
:1008F2005CAB48AA47A946A84512039E60669000D1
:1009020002E0F556A3E0F55785485F85475E8546C8
:100912005D85455C756001E4F561F562AE51AF52EB
:10092200FC7D18120325AC06AD07E4120163E4FB5B
:10093200FAF9783F12006D12019C8E5A8F5BAE530A
:10094200AF547C007D18120325AC06AD07E41201FA
:1009520063E4FBFAF9783F12006D12019C8E588F06
:1009620059B286220560E4F561F562220562E5620C
:0409720070020561A9
:01097600225E
:1016000053C8FE53C90F43C9D043C908439210437E
:0C16100093035393FE53F1F043F10822C2
:07175A0053B3DF53B4DF229B
:0C000E0012175A121600439B84D2CA221B
:0300630002137E07
:10137E00C0E0C0F0C083C082C0D075D000C000C035
:0B138E0002C003C004C005C006C00779
:10139900E59230E00E5392FEAFE5EFFEADE4EDFFCE
:0313A9001212CB52
:1013AC00D007D006D005D004D003D002D000D0D0C6
:0913BC00D082D083D0F0D0E032E1
:10006600020208E86480F8E933E83360110460F0BE
:10007600ED33EC337009E8FCE9FDEAFEEBFF220400
:1000860060DED3EB9FEA9EE99DE8C2E78CF0C2F7FB
:1000960095F0400CE8CCF8E9CDF9EACEFAEBCFFBC7
:1000A6001201D385D0F05804700320D5B3E804704C
:1000B600075002B2D502021292D5EC0460F7E4CCE6
:1000C600C0E0C398F8603B94186008400DD0E0FB90
:1000D6000201EAE4FBFAC9FC8028E830E406E4C938
:1000E600FBE4CAFCE830E305E4C9CACBFCE85407E4
:1000F6006010F8C3E913F9EA13FAEB13FBEC13FCEF
:10010600D8F130F52FC3E49CFCEF9BFFEE9AFEED91
:1001160099FDD0E0FBEF4E4D4C701222DB0302023C
:100126000FEC2CFCEF33FFEE33FEED33FDED30E745
:10013600EB0201EAEF2BFFEE3AFEED39FDD0E0FBD4
:1001460050130BBB0003020212ED13FDEE13FEEF7C
:0801560013FFEC13FC0201EAA7
:10015E0075F020800E75F010800575F0087D007E1C
:10016E00007F003392D530D503120390EC3340104C
:10017E00EF33FFEE33FEED33FDEC33FCD5F0ED2225
:0E018E00E5F0247EA2D513CC92E7CDCEFF2261
:10019C00EDD2E7CD33EC3392D524814006E4FFFE5B
:1001AC00FDFC22FCE4CFCECDCC24E0501174FF80BA
:1001BC00EDC3CC13CCCD13CDCE13CECF13CF047057
:0701CC00F030D5DE020390C4
:1001D300E9D2E7C933E833F892D5EDD2E7CD33EC72
:0701E30033FC5002B2D522EB
:1001EA00EC30E7100FBF000C0EBE00080DBD000476
:1001FA000BEB6014A2D5EB13FCED92E7FD2274FF22
:10020A00FCFDFEFF22E480F8A2D574FF13FC7D807A
:03021A00E480EF8E
:1011CB000216FCE493A3F8E493A34003F68001F228
:1011DB0008DFF48029E493A3F85407240CC8C33325
:1011EB00C4540F4420C8834004F456800146F6DFF4
:1011FB00E4800B0102040810204080900B7CE47EFD
:10120B00019360BCA3FF543F30E509541FFEE493E8
:10121B00A360010ECF54C025E060A840B8E493A3AF
:10122B00FAE493A3F8E493A3C8C582C8CAC583CADA
:10123B00F0A3C8C582C8CAC583CADFE9DEE780BE92
:010CFD0000F6
:10021D00E709F608DFFA8046E709F208DFFA803EC3
:10022D0088828C83E709F0A3DFFA8032E309F608B0
:10023D00DFFA8078E309F208DFFA807088828C8318
:10024D00E309F0A3DFFA806489828A83E0A3F608CC
:10025D00DFFA805889828A83E0A3F208DFFA804CA6
:10026D0080D280FA80C680D4806980F2803380107D
:10027D0080A680EA809A80A880DA80E280CA8033E6
:10028D0089828A83ECFAE493A3C8C582C8CCC5835E
:10029D00CCF0A3C8C582C8CCC583CCDFE9DEE7802E
:1002AD000D89828A83E493A3F608DFF9ECFAA9F0AD
:1002BD00EDFB2289828A83ECFAE0A3C8C582C8CC03
:1002CD00C583CCF0A3C8C582C8CCC583CCDFEADE1C
:1002DD00E880DB89828A83E493A3F208DFF980CC7E
:1002ED0088F0EF60010E4E60C388F0ED2402B40477
:1002FD000050B9F582EB2402B4040050AF2323451E
:06030D00822390026D73D3
:10031300EF8DF0A4A8F0CF8CF0A428CE8DF0A42EFE
:02032300FE22B8
:10032500BC000BBE0029EF8DF084FFADF022E4CCBC
:10033500F875F008EF2FFFEE33FEEC33FCEE9DEC85
:10034500984005FCEE9DFE0FD5F0E9E4CEFD22EDCB
:10035500F8F5F0EE8420D21CFEADF075F008EF2F15
:10036500FFED33FD4007985006D5F0F222C398FD06
:050375000FD5F0EA22A3
:10037A00C5F0F8A3E028F0C5F0F8E582158270020E
:06038A001583E038F022AB
:0E039000C3E49FFFE49EFEE49DFDE49CFC227E
:10039E00EB9FF5F0EA9E42F0E99D42F0E89C45F0B5
:0103AE00222C
:1003AF00E8600FEFC333FFEE33FEED33FDEC33FCAC
:0303BF00D8F12250
:0603C2008A838982E473C6
:00000001FF
