:10045600023500000237000002390000023B0000AE
:100925005389F0438902538EF7758C7B758A7BD288
:06093500A9D2AFD28C2212
:03000B000207C524
:0B07C500C0E0C0D075D000C006C00727
:1007D0000536E536700205350538E538700205370F
:1007E000053AE53A70020539C3E5369464E5359477
:1007F00000400C753500753600750C01752201C37B
:100800007498953CFF743A953BFEC3E5389FE537F5
:100810009E4009753B32753CC8750A01C3E53A94A0
:0F08200088E53994134008753900753A00B2879E
:09082F00D007D006D0D0D0E03291
:10046600010C00010A00010B00012200150D00001D
:100476000000000000000000000000000000000076
:070486000000000208000065
:0F09740053B33F43B4C053ACFE43AD01D2B022E6
:0709FD0043B10F53B2F022D9
:1005FB00E4AD3DA2813375F080A4FFE53D54806FDF
:10060B007002E5F06012E50F700E533D7FA281334F
:10061B00C43333335480423DA280E43375F040A49D
:10062B00FFE53D54406F7002E5F06011E514700D6D
:10063B00533DBFA28033C4333354C0423DA283E445
:10064B003375F020A4FFE53D54206F7002E5F06098
:10065B0010E519700C533DDFA28333C43354E042D1
:10066B003DA282E43375F010A4FFE53D54106F708A
:10067B0002E5F0600FE51E700B533DEFA28233C411
:0E068B0054F0423DED653D6005AF3D1208ADF7
:01069900223E
:100529000509E50970020508E52160030205FAD20B
:1005390086050EE50E7002050DE5116401600302E2
:1005490005F5050EE50E7002050DE53D30E729E5D7
:10055900107007F50DF50E751001C3E50E9464E5ED
:100569000D94004026E4F50DF50EF510533D7F7509
:100579000F01F508F5098013E4F50DF50E20810B3F
:10058900E50FB40106433D04E4F50FE5096432457E
:1005990008700BE50F64017053533DFB804ED3E5A2
:1005A90009943CE5089400401BD3E5099446E50805
:1005B90094005010E50F64017032E53D20E22D43AF
:1005C9003D048028D3E5099446E5089400401DA21E
:1005D90081E43375F080A4FFE53D54807C00B507C4
:1005E9000BECB5F007E4F508F509F50FAF3D120876
:0105F900AD54
:0105FA0022DE
:1008D300E50C6006E4F50C1209F5E5226006120545
:0F08E30029E4F522E50A60061205FBE4F50A2276
:1008F2001209747F0F1208AD120A041209EC1209D0
:0A090200FD120925751101C28622BD
:1008AD00E4FEC2AFEFC4131313540124FF92B0EF53
:1008BD0025E0FFC29600D2960EBE08E8C29700D280
:0508CD0097C2B0D2AF9C
:0108D2002203
:03048D00013D0F1F
:0909BF002093037F01227F002236
:0909C8002092037F01227F00222E
:0909D1002091037F01227F002226
:0909DA002090037F01227F00221E
:0909E3002094037F01227F002211
:0F098300E53D44046008533DFBAF3D1208AD2233
:0F099200E53D44026008533DFDAF3D1208AD2224
:0F09A100E53D44016008533DFEAF3D1208AD2215
:0F09B000E53D44086008533DF7AF3D1208AD2206
:010A110022C2
:10090C00E53D20E213308108533D7F433D048003D5
:09091C00433D84AF3D1208AD22F9
:10093B00308008533DBF433D028003433D42AF3DF2
:03094B000208ADF2
:10094E00308308533DDF433D018003433D21AF3DDE
:03095E000208ADDF
:10096100308208533DEF433D088003433D18AF3DBE
:030971000208ADCC
:100348007526FF7527097528837529FF752A09758C
:100358002B0C752C00752D00752E00752F0075302F
:10036800007531007532007533007534007BFF7AF3
:100378000979BF12069A7526FF752709752892759F
:1003880029FF752A09752B3B752C00752D00752ED4
:1003980000752F0075300075310075320075330017
:1003A8007534007BFF7A0979C812069A7526FF759D
:1003B80027097528A17529FF752A09752B4E752CF3
:1003C80000752D00752E00752F00753000753100F1
:1003D8007532007533007534007BFF7A0979D112C4
:1003E800069A7526FF7527097528B07529FF752A9D
:1003F80009752B61752C00752D00752E00752F0061
:100408007530007531007532007533007534007B26
:10041800FF7A0979DA12069A7526FF75270A752870
:1004280011752900752A00752B00752C00752D0093
:10043800752E00752F007530007531007532007506
:0E04480033007534007BFF7A0979E302069ACF
:0909EC0043B31F53B4E0020348B9
:03000000020739BB
:0C073900787FE4F6D8FD7581CF020780C0
:080003001208F21208D380FB81
:1004900020603E000000000000000000000000009E
:1004A000000000000000000000000000000000004C
:1004B000000000000000000000000000000000003C
:1004C000000000000000000000000000000000002C
:1004D000000000000000000000000000000000001C
:1004E000000000000000000000000000000000000C
:1004F00000000020329E000000000000000000000C
:1005000000000000000000000000000000000000EB
:1005100000000000000000000000000000000000DB
:080520000000000000000000D3
:10083800E4F523F524F524E52475F013A4243EF803
:10084800860308E6FA08E64A4B6021E52475F013AA
:10085800A4243EF808E6FA08E6F9120A0BBF010CD0
:10086800E52475F013A42450F8E642230524E52472
:07087800C3940540C2AF2349
:01087F002256
:10069A007F01789DE6FEC3940540021F22789DE6FD
:1006AA00FD75F013A4243EF8A60308A60208A601C5
:1006BA00AA27A928ED75F013A42441F8A62608A6AE
:1006CA000208A601AA2AA92BED75F013A42444F85E
:1006DA00A62908A60208A601AA2DA92EED75F013CF
:1006EA00A42447F8A62C08A60208A601AA30A93114
:1006FA00ED75F013A4244AF8A62F08A60208A6014D
:10070A00AA33A934ED75F013A4244DF8A63208A62D
:10071A000208A601EFA805088002C333D8FCFFEE41
:0E072A0075F013A42450F8A607789D067F01F1
:01073800229E
:10000E008F278D28E52875F00AA424A3F806E52885
:10001E0075F00AA424A4F806E5276011E52875F00A
:10002E000AA424A2F8E527667003020168E5287584
:10003E00F00AA424A1F9C3E7940319E7940050131E
:10004E00E52875F00AA424A0F80806E61870010643
:10005E00020294E52875F00AA4249FF9C3E7942CB4
:10006E0019E79401402DE52875F00AA424A7F8E4B9
:10007E00F6E52875F013A4244AF8860308E6FA0874
:10008E00E64A4B700302014DE52875F013A4244A8D
:10009E00020143E52875F00AA4249FF9C3E79403EF
:1000AE0019E79400500302014DE52875F013A424BE
:1000BE004DF8860308E6FA08E64A4B605CE52875BB
:1000CE00F00AA424A7F8E6B40104E4F68071E5284A
:1000DE0075F00AA424A6F8E6B40126E52875F013F7
:1000EE00A42444F8860308E6FA08E64A4B6012E5B3
:1000FE002875F013A42444F808E6FA08E6F9120A63
:10010E000BE52875F00AA424A4F8E4F6E52875F0AA
:10011E000AA424A6F876018026E52875F013A424F7
:10012E0044F8860308E6FA08E64A4B6012E528759D
:10013E00F013A42444F808E6FA08E6F9120A0BE5CF
:10014E002875F00AA424A2F8A627E52875F00AA4BB
:10015E00249EF8E4F608F6020294E52875F00AA447
:10016E00249EF80806E618700106E52875F00AA424
:10017E00249FF9E764031947600302024FE52875CF
:10018E00F00AA424A0F8E4F608F6E52875F013A406
:10019E00244DF8860308E6FA08E64A4B700302027D
:1001AE0031E52875F00AA424A6F8E664017051E53D
:1001BE002875F00AA424A3F8E6C394325042E52829
:1001CE0075F00AA424A7F87601E52875F00AA42490
:1001DE00A6F8E4F6E52875F00AA424A5F8E4F6E5F9
:1001EE002875F013A4244DF8860308E6FA08E64AAB
:1001FE004B7003020294E52875F013A4244D807C05
:10020E00E52875F00AA424A7F8E4F6E52875F00AA7
:10021E00A424A5F87601E52875F00AA424A3F8E431
:10022E00F68063E52875F013A42441F8860308E6EA
:10023E00FA08E64A4B604FE52875F013A424418076
:10024E003BE52875F00AA4249FF9E7642C70041985
:10025E00E764017031E52875F00AA424A7F8E4F6E6
:10026E00E52875F013A42447F8860308E6FA08E695
:10027E004A4B6012E52875F013A42447F808E6FAF5
:10028E0008E6F9120A0BE52875F013A4244DF8863A
:10029E000308E6FA08E64A4B7003020347E52875A1
:1002AE00F00AA424A5F8E664017040E52875F00A6A
:1002BE00A424A3F8E6C394324031E52875F00AA4CD
:1002CE0024A5F8E4F6E52875F013A42441F8860376
:1002DE0008E6FA08E64A4B6012E52875F013A424E6
:1002EE0041F808E6FA08E6F9120A0BE52875F00A55
:1002FE00A424A6F8E664017040E52875F00AA4244B
:10030E00A4F8E6C394324031E52875F00AA424A679
:10031E00F8E4F6E52875F013A42444F8860308E6FD
:10032E00FA08E64A4B6012E52875F013A42444F847
:0A033E0008E6FA08E6F9120A0B229D
:020880008F23C4
:10088200E4F524752501F526F524AF24E525A8070E
:10089200088002C333D8FC5523F526AD24FF12008D
:0A08A2000E0524E524C3940540E090
:0108AC002229
:0809F500E4FF1208380208803B
:070A040053B13F43B2C022D1
:10074500020003E493A3F8E493A34003F68001F2C7
:1007550008DFF48029E493A3F85407240CC8C333B5
:10076500C4540F4420C8834004F456800146F6DF84
:10077500E4800B0102040810204080900456E47EBA
:10078500019360BCA3FF543F30E509541FFEE49379
:10079500A360010ECF54C025E060A840B8E493A340
:1007A500FAE493A3F8E493A3C8C582C8CAC583CA6B
:1007B500F0A3C8C582C8CAC583CADFE9DEE780BE23
:0105280000D2
:060A0B008A838982E47376
:00000001FF
